{
  "address": "0xC2F655621AA4583857a2256ed40C8730E5779ab7",
  "abi": [
    {
      "inputs": [
        {
          "internalType": "address",
          "name": "_tokenAddr",
          "type": "address"
        }
      ],
      "stateMutability": "nonpayable",
      "type": "constructor"
    },
    {
      "anonymous": false,
      "inputs": [
        {
          "indexed": false,
          "internalType": "string",
          "name": "Bar_Number",
          "type": "string"
        },
        {
          "indexed": false,
          "internalType": "string",
          "name": "Warrant_Number",
          "type": "string"
        }
      ],
      "name": "BarAdded",
      "type": "event"
    },
    {
      "anonymous": false,
      "inputs": [
        {
          "indexed": false,
          "internalType": "address",
          "name": "burn_from",
          "type": "address"
        },
        {
          "indexed": false,
          "internalType": "uint256",
          "name": "amount",
          "type": "uint256"
        },
        {
          "indexed": false,
          "internalType": "string",
          "name": "Bar_Number",
          "type": "string"
        },
        {
          "indexed": false,
          "internalType": "string",
          "name": "Warrant_Number",
          "type": "string"
        }
      ],
      "name": "BarBurn",
      "type": "event"
    },
    {
      "anonymous": false,
      "inputs": [
        {
          "indexed": false,
          "internalType": "address",
          "name": "to",
          "type": "address"
        },
        {
          "indexed": false,
          "internalType": "uint256",
          "name": "amount",
          "type": "uint256"
        },
        {
          "indexed": false,
          "internalType": "string",
          "name": "Bar_Number",
          "type": "string"
        },
        {
          "indexed": false,
          "internalType": "string",
          "name": "Warrant_Number",
          "type": "string"
        }
      ],
      "name": "BarMint",
      "type": "event"
    },
    {
      "anonymous": false,
      "inputs": [
        {
          "indexed": false,
          "internalType": "string",
          "name": "Bar_Number",
          "type": "string"
        },
        {
          "indexed": false,
          "internalType": "string",
          "name": "Warrant_Number",
          "type": "string"
        },
        {
          "indexed": false,
          "internalType": "enum CGOController.txnStatus",
          "name": "status",
          "type": "uint8"
        }
      ],
      "name": "BurnCancelled",
      "type": "event"
    },
    {
      "anonymous": false,
      "inputs": [
        {
          "indexed": false,
          "internalType": "string",
          "name": "Bar_Number",
          "type": "string"
        },
        {
          "indexed": false,
          "internalType": "string",
          "name": "Warrant_Number",
          "type": "string"
        },
        {
          "indexed": false,
          "internalType": "enum CGOController.txnStatus",
          "name": "status",
          "type": "uint8"
        }
      ],
      "name": "BurnInitiated",
      "type": "event"
    },
    {
      "anonymous": false,
      "inputs": [
        {
          "indexed": false,
          "internalType": "bool",
          "name": "status",
          "type": "bool"
        }
      ],
      "name": "EditBarStatusPaused",
      "type": "event"
    },
    {
      "anonymous": false,
      "inputs": [
        {
          "indexed": false,
          "internalType": "string",
          "name": "Bar_Number",
          "type": "string"
        },
        {
          "indexed": false,
          "internalType": "string",
          "name": "Warrant_Number",
          "type": "string"
        },
        {
          "indexed": false,
          "internalType": "enum CGOController.txnStatus",
          "name": "status",
          "type": "uint8"
        }
      ],
      "name": "MintCancelled",
      "type": "event"
    },
    {
      "anonymous": false,
      "inputs": [
        {
          "indexed": false,
          "internalType": "string",
          "name": "Bar_Number",
          "type": "string"
        },
        {
          "indexed": false,
          "internalType": "string",
          "name": "Warrant_Number",
          "type": "string"
        },
        {
          "indexed": false,
          "internalType": "enum CGOController.txnStatus",
          "name": "status",
          "type": "uint8"
        }
      ],
      "name": "MintInitiated",
      "type": "event"
    },
    {
      "anonymous": false,
      "inputs": [
        {
          "indexed": true,
          "internalType": "address",
          "name": "previousOwner",
          "type": "address"
        },
        {
          "indexed": true,
          "internalType": "address",
          "name": "newOwner",
          "type": "address"
        }
      ],
      "name": "OwnershipTransferred",
      "type": "event"
    },
    {
      "anonymous": false,
      "inputs": [
        {
          "indexed": false,
          "internalType": "address",
          "name": "to",
          "type": "address"
        },
        {
          "indexed": false,
          "internalType": "uint256",
          "name": "amount",
          "type": "uint256"
        }
      ],
      "name": "WithdrawFunds",
      "type": "event"
    },
    {
      "inputs": [
        {
          "internalType": "string",
          "name": "Bar_Number",
          "type": "string"
        },
        {
          "internalType": "string",
          "name": "Warrant_Number",
          "type": "string"
        }
      ],
      "name": "addBarNumWarrantNum",
      "outputs": [],
      "stateMutability": "nonpayable",
      "type": "function"
    },
    {
      "inputs": [
        {
          "internalType": "string",
          "name": "",
          "type": "string"
        }
      ],
      "name": "barNumWarrantNum",
      "outputs": [
        {
          "internalType": "string",
          "name": "",
          "type": "string"
        }
      ],
      "stateMutability": "view",
      "type": "function"
    },
    {
      "inputs": [
        {
          "internalType": "address",
          "name": "user",
          "type": "address"
        },
        {
          "internalType": "bool",
          "name": "value",
          "type": "bool"
        }
      ],
      "name": "blacklistUpdate",
      "outputs": [],
      "stateMutability": "nonpayable",
      "type": "function"
    },
    {
      "inputs": [
        {
          "internalType": "uint256",
          "name": "amount",
          "type": "uint256"
        },
        {
          "internalType": "string",
          "name": "Bar_Number",
          "type": "string"
        },
        {
          "internalType": "string",
          "name": "Warrant_Number",
          "type": "string"
        }
      ],
      "name": "burn",
      "outputs": [],
      "stateMutability": "nonpayable",
      "type": "function"
    },
    {
      "inputs": [
        {
          "internalType": "string",
          "name": "Bar_Number",
          "type": "string"
        },
        {
          "internalType": "string",
          "name": "Warrant_Number",
          "type": "string"
        }
      ],
      "name": "cancelInitiateBurn",
      "outputs": [],
      "stateMutability": "nonpayable",
      "type": "function"
    },
    {
      "inputs": [
        {
          "internalType": "string",
          "name": "Bar_Number",
          "type": "string"
        },
        {
          "internalType": "string",
          "name": "Warrant_Number",
          "type": "string"
        }
      ],
      "name": "cancelInitiateMint",
      "outputs": [],
      "stateMutability": "nonpayable",
      "type": "function"
    },
    {
      "inputs": [],
      "name": "executorAddr",
      "outputs": [
        {
          "internalType": "address",
          "name": "",
          "type": "address"
        }
      ],
      "stateMutability": "view",
      "type": "function"
    },
    {
      "inputs": [
        {
          "internalType": "string",
          "name": "Bar_Number",
          "type": "string"
        },
        {
          "internalType": "string",
          "name": "Warrant_Number",
          "type": "string"
        }
      ],
      "name": "initiateBurn",
      "outputs": [],
      "stateMutability": "nonpayable",
      "type": "function"
    },
    {
      "inputs": [
        {
          "internalType": "string",
          "name": "Bar_Number",
          "type": "string"
        },
        {
          "internalType": "string",
          "name": "Warrant_Number",
          "type": "string"
        }
      ],
      "name": "initiateMint",
      "outputs": [],
      "stateMutability": "nonpayable",
      "type": "function"
    },
    {
      "inputs": [],
      "name": "initiatorAddr",
      "outputs": [
        {
          "internalType": "address",
          "name": "",
          "type": "address"
        }
      ],
      "stateMutability": "view",
      "type": "function"
    },
    {
      "inputs": [],
      "name": "isEditBarPaused",
      "outputs": [
        {
          "internalType": "bool",
          "name": "",
          "type": "bool"
        }
      ],
      "stateMutability": "view",
      "type": "function"
    },
    {
      "inputs": [
        {
          "internalType": "address",
          "name": "to",
          "type": "address"
        },
        {
          "internalType": "uint256",
          "name": "amount",
          "type": "uint256"
        },
        {
          "internalType": "string",
          "name": "Bar_Number",
          "type": "string"
        },
        {
          "internalType": "string",
          "name": "Warrant_Number",
          "type": "string"
        }
      ],
      "name": "mint",
      "outputs": [],
      "stateMutability": "nonpayable",
      "type": "function"
    },
    {
      "inputs": [],
      "name": "owner",
      "outputs": [
        {
          "internalType": "address",
          "name": "",
          "type": "address"
        }
      ],
      "stateMutability": "view",
      "type": "function"
    },
    {
      "inputs": [
        {
          "internalType": "bool",
          "name": "status",
          "type": "bool"
        }
      ],
      "name": "pauseEditBar",
      "outputs": [],
      "stateMutability": "nonpayable",
      "type": "function"
    },
    {
      "inputs": [
        {
          "internalType": "string",
          "name": "Bar_Number",
          "type": "string"
        },
        {
          "internalType": "string",
          "name": "Warrant_Number",
          "type": "string"
        }
      ],
      "name": "removeBarNumWarrantNum",
      "outputs": [],
      "stateMutability": "nonpayable",
      "type": "function"
    },
    {
      "inputs": [],
      "name": "renounceOwnership",
      "outputs": [],
      "stateMutability": "nonpayable",
      "type": "function"
    },
    {
      "inputs": [
        {
          "internalType": "address",
          "name": "_executorAddr",
          "type": "address"
        }
      ],
      "name": "setExecutorAddr",
      "outputs": [],
      "stateMutability": "nonpayable",
      "type": "function"
    },
    {
      "inputs": [
        {
          "internalType": "address",
          "name": "_initiatorAddr",
          "type": "address"
        }
      ],
      "name": "setInitiatorAddr",
      "outputs": [],
      "stateMutability": "nonpayable",
      "type": "function"
    },
    {
      "inputs": [],
      "name": "tokenAddr",
      "outputs": [
        {
          "internalType": "address",
          "name": "",
          "type": "address"
        }
      ],
      "stateMutability": "view",
      "type": "function"
    },
    {
      "inputs": [
        {
          "internalType": "address",
          "name": "newOwner",
          "type": "address"
        }
      ],
      "name": "transferCgoOwnership",
      "outputs": [],
      "stateMutability": "nonpayable",
      "type": "function"
    },
    {
      "inputs": [
        {
          "internalType": "address",
          "name": "newOwner",
          "type": "address"
        }
      ],
      "name": "transferOwnership",
      "outputs": [],
      "stateMutability": "nonpayable",
      "type": "function"
    },
    {
      "inputs": [
        {
          "internalType": "string",
          "name": "",
          "type": "string"
        },
        {
          "internalType": "string",
          "name": "",
          "type": "string"
        }
      ],
      "name": "txnStatusRecord",
      "outputs": [
        {
          "internalType": "enum CGOController.txnStatus",
          "name": "",
          "type": "uint8"
        }
      ],
      "stateMutability": "view",
      "type": "function"
    },
    {
      "inputs": [
        {
          "internalType": "address",
          "name": "to",
          "type": "address"
        },
        {
          "internalType": "uint256",
          "name": "amount",
          "type": "uint256"
        }
      ],
      "name": "withdrawFunds",
      "outputs": [],
      "stateMutability": "nonpayable",
      "type": "function"
    }
  ],
  "transactionHash": "0xfd7a65638a987f965d778eb054a7d8dee7069115362761e666b80822863809ad",
  "args": [
    "0xb162D21D85d3E4d0C436645D9cd85853D871437A"
  ],
  "numDeployments": 1,
  "solcInputHash": "2695636aad130875ecf70f5d1da1a9c5",
  "bytecode": "0x60806040526003805460ff60a01b191690553480156200001e57600080fd5b506040516200471538038062004715833981810160405260208110156200004457600080fd5b5051600062000052620000cb565b600080546001600160a01b0319166001600160a01b0383169081178255604051929350917f8be0079c531659141344cd1fd0a4f28419497f9722a3daafe3b4186f6b6457e0908290a350600180546001600160a01b039092166001600160a01b03199283161790556002805490911633179055620000cf565b3390565b61463680620000df6000396000f3fe608060405234801561001057600080fd5b506004361061014d5760003560e01c80636c7ff3bb116100c3578063b351dfe81161007c578063b351dfe814610a9a578063ba211db014610ac8578063c107532914610bf8578063cc49109a14610c24578063d12554d914610d3d578063f2fde38b14610e665761014d565b80636c7ff3bb14610a3f578063715018a614610a5e578063760fa67f14610a665780638da5cb5b14610a6e578063a71ecc6114610a76578063b00455c114610a925761014d565b80634a681673116101155780634a68167314610633578063500e46ab146106595780635eacf7281461067f5780635fbe4d1d146107c95780636037749d146107ed578063686fa7d6146109165761014d565b8063055e2905146101525780630850c0ac1461027d578063236e2f40146103a65780632fb102cf146103cc578063394d5c931461050a575b600080fd5b61027b6004803603604081101561016857600080fd5b810190602081018135600160201b81111561018257600080fd5b82018360208201111561019457600080fd5b803590602001918460018302840111600160201b831117156101b557600080fd5b91908080601f0160208091040260200160405190810160405280939291908181526020018383808284376000920191909152509295949360208101935035915050600160201b81111561020757600080fd5b82018360208201111561021957600080fd5b803590602001918460018302840111600160201b8311171561023a57600080fd5b91908080601f016020809104026020016040519081016040528093929190818152602001838380828437600092019190915250929550610e8c945050505050565b005b61027b6004803603604081101561029357600080fd5b810190602081018135600160201b8111156102ad57600080fd5b8201836020820111156102bf57600080fd5b803590602001918460018302840111600160201b831117156102e057600080fd5b91908080601f0160208091040260200160405190810160405280939291908181526020018383808284376000920191909152509295949360208101935035915050600160201b81111561033257600080fd5b82018360208201111561034457600080fd5b803590602001918460018302840111600160201b8311171561036557600080fd5b91908080601f016020809104026020016040519081016040528093929190818152602001838380828437600092019190915250929550611557945050505050565b61027b600480360360208110156103bc57600080fd5b50356001600160a01b0316611b0a565b61027b600480360360808110156103e257600080fd5b6001600160a01b0382351691602081013591810190606081016040820135600160201b81111561041157600080fd5b82018360208201111561042357600080fd5b803590602001918460018302840111600160201b8311171561044457600080fd5b91908080601f0160208091040260200160405190810160405280939291908181526020018383808284376000920191909152509295949360208101935035915050600160201b81111561049657600080fd5b8201836020820111156104a857600080fd5b803590602001918460018302840111600160201b831117156104c957600080fd5b91908080601f016020809104026020016040519081016040528093929190818152602001838380828437600092019190915250929550611b84945050505050565b61027b6004803603604081101561052057600080fd5b810190602081018135600160201b81111561053a57600080fd5b82018360208201111561054c57600080fd5b803590602001918460018302840111600160201b8311171561056d57600080fd5b91908080601f0160208091040260200160405190810160405280939291908181526020018383808284376000920191909152509295949360208101935035915050600160201b8111156105bf57600080fd5b8201836020820111156105d157600080fd5b803590602001918460018302840111600160201b831117156105f257600080fd5b91908080601f0160208091040260200160405190810160405280939291908181526020018383808284376000920191909152509295506121ac945050505050565b61027b6004803603602081101561064957600080fd5b50356001600160a01b031661279d565b61027b6004803603602081101561066f57600080fd5b50356001600160a01b031661285e565b6107a86004803603604081101561069557600080fd5b810190602081018135600160201b8111156106af57600080fd5b8201836020820111156106c157600080fd5b803590602001918460018302840111600160201b831117156106e257600080fd5b91908080601f0160208091040260200160405190810160405280939291908181526020018383808284376000920191909152509295949360208101935035915050600160201b81111561073457600080fd5b82018360208201111561074657600080fd5b803590602001918460018302840111600160201b8311171561076757600080fd5b91908080601f0160208091040260200160405190810160405280939291908181526020018383808284376000920191909152509295506128d8945050505050565b604051808260048111156107b857fe5b815260200191505060405180910390f35b6107d1612915565b604080516001600160a01b039092168252519081900360200190f35b61027b6004803603604081101561080357600080fd5b810190602081018135600160201b81111561081d57600080fd5b82018360208201111561082f57600080fd5b803590602001918460018302840111600160201b8311171561085057600080fd5b91908080601f0160208091040260200160405190810160405280939291908181526020018383808284376000920191909152509295949360208101935035915050600160201b8111156108a257600080fd5b8201836020820111156108b457600080fd5b803590602001918460018302840111600160201b831117156108d557600080fd5b91908080601f016020809104026020016040519081016040528093929190818152602001838380828437600092019190915250929550612924945050505050565b61027b6004803603604081101561092c57600080fd5b810190602081018135600160201b81111561094657600080fd5b82018360208201111561095857600080fd5b803590602001918460018302840111600160201b8311171561097957600080fd5b91908080601f0160208091040260200160405190810160405280939291908181526020018383808284376000920191909152509295949360208101935035915050600160201b8111156109cb57600080fd5b8201836020820111156109dd57600080fd5b803590602001918460018302840111600160201b831117156109fe57600080fd5b91908080601f016020809104026020016040519081016040528093929190818152602001838380828437600092019190915250929550612daf945050505050565b61027b60048036036020811015610a5557600080fd5b5035151561347e565b61027b613528565b6107d16135ca565b6107d16135d9565b610a7e6135e8565b604080519115158252519081900360200190f35b6107d16135f8565b61027b60048036036040811015610ab057600080fd5b506001600160a01b0381351690602001351515613607565b61027b60048036036060811015610ade57600080fd5b81359190810190604081016020820135600160201b811115610aff57600080fd5b820183602082011115610b1157600080fd5b803590602001918460018302840111600160201b83111715610b3257600080fd5b91908080601f0160208091040260200160405190810160405280939291908181526020018383808284376000920191909152509295949360208101935035915050600160201b811115610b8457600080fd5b820183602082011115610b9657600080fd5b803590602001918460018302840111600160201b83111715610bb757600080fd5b91908080601f0160208091040260200160405190810160405280939291908181526020018383808284376000920191909152509295506136d1945050505050565b61027b60048036036040811015610c0e57600080fd5b506001600160a01b038135169060200135613db7565b610cc860048036036020811015610c3a57600080fd5b810190602081018135600160201b811115610c5457600080fd5b820183602082011115610c6657600080fd5b803590602001918460018302840111600160201b83111715610c8757600080fd5b91908080601f016020809104026020016040519081016040528093929190818152602001838380828437600092019190915250929550613ed9945050505050565b6040805160208082528351818301528351919283929083019185019080838360005b83811015610d02578181015183820152602001610cea565b50505050905090810190601f168015610d2f5780820380516001836020036101000a031916815260200191505b509250505060405180910390f35b61027b60048036036040811015610d5357600080fd5b810190602081018135600160201b811115610d6d57600080fd5b820183602082011115610d7f57600080fd5b803590602001918460018302840111600160201b83111715610da057600080fd5b91908080601f0160208091040260200160405190810160405280939291908181526020018383808284376000920191909152509295949360208101935035915050600160201b811115610df257600080fd5b820183602082011115610e0457600080fd5b803590602001918460018302840111600160201b83111715610e2557600080fd5b91908080601f016020809104026020016040519081016040528093929190818152602001838380828437600092019190915250929550613f80945050505050565b61027b60048036036020811015610e7c57600080fd5b50356001600160a01b0316614304565b6003546001600160a01b03163314610ed55760405162461bcd60e51b81526004018080602001828103825260248152602001806145986024913960400191505060405180910390fd5b60036005836040518082805190602001908083835b60208310610f095780518252601f199092019160209182019101610eea565b51815160209384036101000a6000190180199092169116179052920194855250604051938490038101842086519094879450925082918401908083835b60208310610f655780518252601f199092019160209182019101610f46565b51815160209384036101000a600019018019909216911617905292019485525060405193849003019092205460ff169150506004811115610fa257fe5b1480611078575060046005836040518082805190602001908083835b60208310610fdd5780518252601f199092019160209182019101610fbe565b51815160209384036101000a6000190180199092169116179052920194855250604051938490038101842086519094879450925082918401908083835b602083106110395780518252601f19909201916020918201910161101a565b51815160209384036101000a600019018019909216911617905292019485525060405193849003019092205460ff16915050600481111561107657fe5b145b156110ca576040805162461bcd60e51b815260206004820152601f60248201527f4275726e207265717565737420657869737420666f7220746869732042617200604482015290519081900360640190fd5b806040516020018082805190602001908083835b602083106110fd5780518252601f1990920191602091820191016110de565b6001836020036101000a038019825116818451168082178552505050505050905001915050604051602081830303815290604052805190602001206004836040518082805190602001908083835b6020831061116a5780518252601f19909201916020918201910161114b565b6001836020036101000a038019825116818451168082178552505050505050905001915050908152602001604051809103902060405160200180828054600181600116156101000203166002900480156111fb5780601f106111d95761010080835404028352918201916111fb565b820191906000526020600020905b8154815290600101906020018083116111e7575b505091505060405160208183030381529060405280519060200120141561125d576040805162461bcd60e51b815260206004820152601160248201527010985c88185b1c9958591e48195e1a5cdd607a1b604482015290519081900360640190fd5b60016005836040518082805190602001908083835b602083106112915780518252601f199092019160209182019101611272565b51815160209384036101000a6000190180199092169116179052920194855250604051938490038101842086519094879450925082918401908083835b602083106112ed5780518252601f1990920191602091820191016112ce565b51815160209384036101000a600019018019909216911617905292019485525060405193849003019092205460ff16915050600481111561132a57fe5b146113665760405162461bcd60e51b81526004018080602001828103825260218152602001806145566021913960400191505060405180910390fd5b60006005836040518082805190602001908083835b6020831061139a5780518252601f19909201916020918201910161137b565b51815160209384036101000a6000190180199092169116179052920194855250604051938490038101842086519094879450925082918401908083835b602083106113f65780518252601f1990920191602091820191016113d7565b51815160209384036101000a60001901801990921691161790529201948552506040519384900301909220805490925060ff19169050600183600481111561143a57fe5b02179055507f148baf8fdfa312bf20ec878dd0ebe643ee8b3d92a777405f7b1edf8ea01895c78282600060405180806020018060200184600481111561147c57fe5b8152602001838103835286818151815260200191508051906020019080838360005b838110156114b657818101518382015260200161149e565b50505050905090810190601f1680156114e35780820380516001836020036101000a031916815260200191505b50838103825285518152855160209182019187019080838360005b838110156115165781810151838201526020016114fe565b50505050905090810190601f1680156115435780820380516001836020036101000a031916815260200191505b509550505050505060405180910390a15050565b6003546001600160a01b031633146115a05760405162461bcd60e51b81526004018080602001828103825260248152602001806145986024913960400191505060405180910390fd5b600154604080516370a0823160e01b81523060048201529051683635c9adc5dea00000926001600160a01b0316916370a08231916024808301926020929190829003018186803b1580156115f357600080fd5b505afa158015611607573d6000803e3d6000fd5b505050506040513d602081101561161d57600080fd5b5051101561166d576040805162461bcd60e51b8152602060048201526018602482015277496e73756666696369656e742043474f2042616c616e636560401b604482015290519081900360640190fd5b60036005836040518082805190602001908083835b602083106116a15780518252601f199092019160209182019101611682565b51815160209384036101000a6000190180199092169116179052920194855250604051938490038101842086519094879450925082918401908083835b602083106116fd5780518252601f1990920191602091820191016116de565b51815160209384036101000a600019018019909216911617905292019485525060405193849003019092205460ff16915050600481111561173a57fe5b14158015611813575060046005836040518082805190602001908083835b602083106117775780518252601f199092019160209182019101611758565b51815160209384036101000a6000190180199092169116179052920194855250604051938490038101842086519094879450925082918401908083835b602083106117d35780518252601f1990920191602091820191016117b4565b51815160209384036101000a600019018019909216911617905292019485525060405193849003019092205460ff16915050600481111561181057fe5b14155b1561185e576040805162461bcd60e51b8152602060048201526016602482015275109d5c9b881c995c5d595cdd081b9bdd08195e1a5cdd60521b604482015290519081900360640190fd5b806040516020018082805190602001908083835b602083106118915780518252601f199092019160209182019101611872565b6001836020036101000a038019825116818451168082178552505050505050905001915050604051602081830303815290604052805190602001206004836040518082805190602001908083835b602083106118fe5780518252601f1990920191602091820191016118df565b6001836020036101000a0380198251168184511680821785525050505050509050019150509081526020016040518091039020604051602001808280546001816001161561010002031660029004801561198f5780601f1061196d57610100808354040283529182019161198f565b820191906000526020600020905b81548152906001019060200180831161197b575b505091505060405160208183030381529060405280519060200120146119f4576040805162461bcd60e51b8152602060048201526015602482015274496e636f7272656374204261722064657461696c7360581b604482015290519081900360640190fd5b60026005836040518082805190602001908083835b60208310611a285780518252601f199092019160209182019101611a09565b51815160209384036101000a6000190180199092169116179052920194855250604051938490038101842086519094879450925082918401908083835b60208310611a845780518252601f199092019160209182019101611a65565b51815160209384036101000a60001901801990921691161790529201948552506040519384900301909220805490925060ff191690506001836004811115611ac857fe5b02179055507ffdf2db319bfdfcf7897b86008483aacc62583ee933c1f1db544e41846ccbf8e38282600260405180806020018060200184600481111561147c57fe5b611b126143fc565b6000546001600160a01b03908116911614611b62576040805162461bcd60e51b815260206004820181905260248201526000805160206145e1833981519152604482015290519081900360640190fd5b600280546001600160a01b0319166001600160a01b0392909216919091179055565b6003546001600160a01b03163314611bcd5760405162461bcd60e51b81526004018080602001828103825260248152602001806145986024913960400191505060405180910390fd5b600154604080516340c10f1960e01b81526001600160a01b038781166004830152670de0b6b3a764000087026024830152915191909216916340c10f1991604480830192600092919082900301818387803b158015611c2b57600080fd5b505af1158015611c3f573d6000803e3d6000fd5b50505050806040516020018082805190602001908083835b60208310611c765780518252601f199092019160209182019101611c57565b6001836020036101000a038019825116818451168082178552505050505050905001915050604051602081830303815290604052805190602001206004836040518082805190602001908083835b60208310611ce35780518252601f199092019160209182019101611cc4565b6001836020036101000a03801982511681845116808217855250505050505090500191505090815260200160405180910390206040516020018082805460018160011615610100020316600290048015611d745780601f10611d52576101008083540402835291820191611d74565b820191906000526020600020905b815481529060010190602001808311611d60575b5050915050604051602081830303815290604052805190602001201415611dd6576040805162461bcd60e51b815260206004820152601160248201527010985c88185b1c9958591e48195e1a5cdd607a1b604482015290519081900360640190fd5b60016005836040518082805190602001908083835b60208310611e0a5780518252601f199092019160209182019101611deb565b51815160209384036101000a6000190180199092169116179052920194855250604051938490038101842086519094879450925082918401908083835b60208310611e665780518252601f199092019160209182019101611e47565b51815160209384036101000a600019018019909216911617905292019485525060405193849003019092205460ff169150506004811115611ea357fe5b14611edf5760405162461bcd60e51b81526004018080602001828103825260218152602001806145566021913960400191505060405180910390fd5b826103e814611f35576040805162461bcd60e51b815260206004820152601a60248201527f4d696e7420616d6f756e742073686f756c642062652031303030000000000000604482015290519081900360640190fd5b806004836040518082805190602001908083835b60208310611f685780518252601f199092019160209182019101611f49565b51815160209384036101000a60001901801990921691161790529201948552506040519384900381019093208451611fa99591949190910192509050614400565b5060026005836040518082805190602001908083835b60208310611fde5780518252601f199092019160209182019101611fbf565b51815160209384036101000a6000190180199092169116179052920194855250604051938490038101842086519094879450925082918401908083835b6020831061203a5780518252601f19909201916020918201910161201b565b51815160209384036101000a60001901801990921691161790529201948552506040519384900301909220805490925060ff19169050600183600481111561207e57fe5b02179055507f6c5141baea3136c0a6e98d38bfa1d3f439b831aac09095817ef594d75231ed208484670de0b6b3a764000002848460405180856001600160a01b031681526020018481526020018060200180602001838103835285818151815260200191508051906020019080838360005b838110156121085781810151838201526020016120f0565b50505050905090810190601f1680156121355780820380516001836020036101000a031916815260200191505b50838103825284518152845160209182019186019080838360005b83811015612168578181015183820152602001612150565b50505050905090810190601f1680156121955780820380516001836020036101000a031916815260200191505b50965050505050505060405180910390a150505050565b6002546001600160a01b031633146121f55760405162461bcd60e51b81526004018080602001828103825260258152602001806144e96025913960400191505060405180910390fd5b60036005836040518082805190602001908083835b602083106122295780518252601f19909201916020918201910161220a565b51815160209384036101000a6000190180199092169116179052920194855250604051938490038101842086519094879450925082918401908083835b602083106122855780518252601f199092019160209182019101612266565b51815160209384036101000a600019018019909216911617905292019485525060405193849003019092205460ff1691505060048111156122c257fe5b1480612398575060046005836040518082805190602001908083835b602083106122fd5780518252601f1990920191602091820191016122de565b51815160209384036101000a6000190180199092169116179052920194855250604051938490038101842086519094879450925082918401908083835b602083106123595780518252601f19909201916020918201910161233a565b51815160209384036101000a600019018019909216911617905292019485525060405193849003019092205460ff16915050600481111561239657fe5b145b156123ea576040805162461bcd60e51b815260206004820152601f60248201527f4275726e207265717565737420657869737420666f7220746869732042617200604482015290519081900360640190fd5b806040516020018082805190602001908083835b6020831061241d5780518252601f1990920191602091820191016123fe565b6001836020036101000a038019825116818451168082178552505050505050905001915050604051602081830303815290604052805190602001206004836040518082805190602001908083835b6020831061248a5780518252601f19909201916020918201910161246b565b6001836020036101000a0380198251168184511680821785525050505050509050019150509081526020016040518091039020604051602001808280546001816001161561010002031660029004801561251b5780601f106124f957610100808354040283529182019161251b565b820191906000526020600020905b815481529060010190602001808311612507575b505091505060405160208183030381529060405280519060200120141561257d576040805162461bcd60e51b815260206004820152601160248201527010985c88185b1c9958591e48195e1a5cdd607a1b604482015290519081900360640190fd5b60016005836040518082805190602001908083835b602083106125b15780518252601f199092019160209182019101612592565b51815160209384036101000a6000190180199092169116179052920194855250604051938490038101842086519094879450925082918401908083835b6020831061260d5780518252601f1990920191602091820191016125ee565b51815160209384036101000a600019018019909216911617905292019485525060405193849003019092205460ff16915050600481111561264a57fe5b14156126875760405162461bcd60e51b81526004018080602001828103825260258152602001806145bc6025913960400191505060405180910390fd5b60016005836040518082805190602001908083835b602083106126bb5780518252601f19909201916020918201910161269c565b51815160209384036101000a6000190180199092169116179052920194855250604051938490038101842086519094879450925082918401908083835b602083106127175780518252601f1990920191602091820191016126f8565b51815160209384036101000a60001901801990921691161790529201948552506040519384900301909220805490925060ff19169050600183600481111561275b57fe5b02179055507f414a5a1d8ed4fc86e0618577c5ae5de37aee0d3c581567b3832f802f29142b418282600160405180806020018060200184600481111561147c57fe5b6127a56143fc565b6000546001600160a01b039081169116146127f5576040805162461bcd60e51b815260206004820181905260248201526000805160206145e1833981519152604482015290519081900360640190fd5b6001546040805163f2fde38b60e01b81526001600160a01b0384811660048301529151919092169163f2fde38b91602480830192600092919082900301818387803b15801561284357600080fd5b505af1158015612857573d6000803e3d6000fd5b5050505050565b6128666143fc565b6000546001600160a01b039081169116146128b6576040805162461bcd60e51b815260206004820181905260248201526000805160206145e1833981519152604482015290519081900360640190fd5b600380546001600160a01b0319166001600160a01b0392909216919091179055565b8151602081840181018051600582529282019482019490942091909352815180830184018051928152908401929093019190912091525460ff1681565b6001546001600160a01b031681565b61292c6143fc565b6000546001600160a01b0390811691161461297c576040805162461bcd60e51b815260206004820181905260248201526000805160206145e1833981519152604482015290519081900360640190fd5b600354600160a01b900460ff161515600114156129ca5760405162461bcd60e51b81526004018080602001828103825260228152602001806145346022913960400191505060405180910390fd5b806040516020018082805190602001908083835b602083106129fd5780518252601f1990920191602091820191016129de565b6001836020036101000a038019825116818451168082178552505050505050905001915050604051602081830303815290604052805190602001206004836040518082805190602001908083835b60208310612a6a5780518252601f199092019160209182019101612a4b565b6001836020036101000a03801982511681845116808217855250505050505090500191505090815260200160405180910390206040516020018082805460018160011615610100020316600290048015612afb5780601f10612ad9576101008083540402835291820191612afb565b820191906000526020600020905b815481529060010190602001808311612ae7575b5050915050604051602081830303815290604052805190602001201415612b5d576040805162461bcd60e51b815260206004820152601160248201527010985c88185b1c9958591e48195e1a5cdd607a1b604482015290519081900360640190fd5b806004836040518082805190602001908083835b60208310612b905780518252601f199092019160209182019101612b71565b51815160209384036101000a60001901801990921691161790529201948552506040519384900381019093208451612bd19591949190910192509050614400565b5060026005836040518082805190602001908083835b60208310612c065780518252601f199092019160209182019101612be7565b51815160209384036101000a6000190180199092169116179052920194855250604051938490038101842086519094879450925082918401908083835b60208310612c625780518252601f199092019160209182019101612c43565b51815160209384036101000a60001901801990921691161790529201948552506040519384900301909220805490925060ff191690506001836004811115612ca657fe5b02179055507fac9bc919b1caca6ecaadfbfafbb1794b941be89e2c6fcefde11f0a91efd1d2198282604051808060200180602001838103835285818151815260200191508051906020019080838360005b83811015612d0f578181015183820152602001612cf7565b50505050905090810190601f168015612d3c5780820380516001836020036101000a031916815260200191505b50838103825284518152845160209182019186019080838360005b83811015612d6f578181015183820152602001612d57565b50505050905090810190601f168015612d9c5780820380516001836020036101000a031916815260200191505b5094505050505060405180910390a15050565b6002546001600160a01b03163314612df85760405162461bcd60e51b81526004018080602001828103825260258152602001806144e96025913960400191505060405180910390fd5b600154604080516370a0823160e01b81523060048201529051683635c9adc5dea00000926001600160a01b0316916370a08231916024808301926020929190829003018186803b158015612e4b57600080fd5b505afa158015612e5f573d6000803e3d6000fd5b505050506040513d6020811015612e7557600080fd5b50511015612ec5576040805162461bcd60e51b8152602060048201526018602482015277496e73756666696369656e742043474f2042616c616e636560401b604482015290519081900360640190fd5b60036005836040518082805190602001908083835b60208310612ef95780518252601f199092019160209182019101612eda565b51815160209384036101000a6000190180199092169116179052920194855250604051938490038101842086519094879450925082918401908083835b60208310612f555780518252601f199092019160209182019101612f36565b51815160209384036101000a600019018019909216911617905292019485525060405193849003019092205460ff169150506004811115612f9257fe5b1480613068575060046005836040518082805190602001908083835b60208310612fcd5780518252601f199092019160209182019101612fae565b51815160209384036101000a6000190180199092169116179052920194855250604051938490038101842086519094879450925082918401908083835b602083106130295780518252601f19909201916020918201910161300a565b51815160209384036101000a600019018019909216911617905292019485525060405193849003019092205460ff16915050600481111561306657fe5b145b156130ba576040805162461bcd60e51b815260206004820152601a60248201527f4275726e207265717565737420616c7265616479206578697374000000000000604482015290519081900360640190fd5b806040516020018082805190602001908083835b602083106130ed5780518252601f1990920191602091820191016130ce565b6001836020036101000a038019825116818451168082178552505050505050905001915050604051602081830303815290604052805190602001206004836040518082805190602001908083835b6020831061315a5780518252601f19909201916020918201910161313b565b6001836020036101000a038019825116818451168082178552505050505050905001915050908152602001604051809103902060405160200180828054600181600116156101000203166002900480156131eb5780601f106131c95761010080835404028352918201916131eb565b820191906000526020600020905b8154815290600101906020018083116131d7575b50509150506040516020818303038152906040528051906020012014613250576040805162461bcd60e51b8152602060048201526015602482015274496e636f7272656374204261722064657461696c7360581b604482015290519081900360640190fd5b60026005836040518082805190602001908083835b602083106132845780518252601f199092019160209182019101613265565b51815160209384036101000a6000190180199092169116179052920194855250604051938490038101842086519094879450925082918401908083835b602083106132e05780518252601f1990920191602091820191016132c1565b51815160209384036101000a600019018019909216911617905292019485525060405193849003019092205460ff16915050600481111561331d57fe5b14613368576040805162461bcd60e51b8152602060048201526016602482015275135a5b9d081c995c5d595cdd081b9bdd08195e1a5cdd60521b604482015290519081900360640190fd5b60036005836040518082805190602001908083835b6020831061339c5780518252601f19909201916020918201910161337d565b51815160209384036101000a6000190180199092169116179052920194855250604051938490038101842086519094879450925082918401908083835b602083106133f85780518252601f1990920191602091820191016133d9565b51815160209384036101000a60001901801990921691161790529201948552506040519384900301909220805490925060ff19169050600183600481111561343c57fe5b02179055507f958e890dc745eff10f691e6643bf164523f5d2347f1824c93258e4150bc408a78282600360405180806020018060200184600481111561147c57fe5b6134866143fc565b6000546001600160a01b039081169116146134d6576040805162461bcd60e51b815260206004820181905260248201526000805160206145e1833981519152604482015290519081900360640190fd5b60038054821515600160a01b810260ff60a01b199092169190911790915560408051918252517e642bba6e3f08aa2c941bc293d57dfe61e9c3c1dd1e282c2871af333aa612ab9181900360200190a150565b6135306143fc565b6000546001600160a01b03908116911614613580576040805162461bcd60e51b815260206004820181905260248201526000805160206145e1833981519152604482015290519081900360640190fd5b600080546040516001600160a01b03909116907f8be0079c531659141344cd1fd0a4f28419497f9722a3daafe3b4186f6b6457e0908390a3600080546001600160a01b0319169055565b6003546001600160a01b031681565b6000546001600160a01b031690565b600354600160a01b900460ff1681565b6002546001600160a01b031681565b61360f6143fc565b6000546001600160a01b0390811691161461365f576040805162461bcd60e51b815260206004820181905260248201526000805160206145e1833981519152604482015290519081900360640190fd5b6001546040805163166a3bfd60e31b81526001600160a01b03858116600483015284151560248301529151919092169163b351dfe891604480830192600092919082900301818387803b1580156136b557600080fd5b505af11580156136c9573d6000803e3d6000fd5b505050505050565b6003546001600160a01b0316331461371a5760405162461bcd60e51b81526004018080602001828103825260248152602001806145986024913960400191505060405180910390fd5b806040516020018082805190602001908083835b6020831061374d5780518252601f19909201916020918201910161372e565b6001836020036101000a038019825116818451168082178552505050505050905001915050604051602081830303815290604052805190602001206004836040518082805190602001908083835b602083106137ba5780518252601f19909201916020918201910161379b565b6001836020036101000a0380198251168184511680821785525050505050509050019150509081526020016040518091039020604051602001808280546001816001161561010002031660029004801561384b5780601f1061382957610100808354040283529182019161384b565b820191906000526020600020905b815481529060010190602001808311613837575b505091505060405160208183030381529060405280519060200120146138b0576040805162461bcd60e51b8152602060048201526015602482015274496e636f7272656374204261722064657461696c7360581b604482015290519081900360640190fd5b60036005836040518082805190602001908083835b602083106138e45780518252601f1990920191602091820191016138c5565b51815160209384036101000a6000190180199092169116179052920194855250604051938490038101842086519094879450925082918401908083835b602083106139405780518252601f199092019160209182019101613921565b51815160209384036101000a600019018019909216911617905292019485525060405193849003019092205460ff16915050600481111561397d57fe5b146139b95760405162461bcd60e51b81526004018080602001828103825260218152602001806145776021913960400191505060405180910390fd5b826103e814613a0f576040805162461bcd60e51b815260206004820152601a60248201527f4275726e20616d6f756e742073686f756c642062652031303030000000000000604482015290519081900360640190fd5b600154604080516370a0823160e01b81523060048201529051670de0b6b3a76400008602926001600160a01b0316916370a08231916024808301926020929190829003018186803b158015613a6357600080fd5b505afa158015613a77573d6000803e3d6000fd5b505050506040513d6020811015613a8d57600080fd5b50511015613add576040805162461bcd60e51b8152602060048201526018602482015277496e73756666696369656e742043474f2042616c616e636560401b604482015290519081900360640190fd5b60015460408051630852cd8d60e31b8152670de0b6b3a76400008602600482015290516001600160a01b03909216916342966c689160248082019260009290919082900301818387803b158015613b3357600080fd5b505af1158015613b47573d6000803e3d6000fd5b505050506004826040518082805190602001908083835b60208310613b7d5780518252601f199092019160209182019101613b5e565b51815160209384036101000a60001901801990921691161790529201948552506040519384900301909220613bb692509050600061448c565b60046005836040518082805190602001908083835b60208310613bea5780518252601f199092019160209182019101613bcb565b51815160209384036101000a6000190180199092169116179052920194855250604051938490038101842086519094879450925082918401908083835b60208310613c465780518252601f199092019160209182019101613c27565b51815160209384036101000a60001901801990921691161790529201948552506040519384900301909220805490925060ff191690506001836004811115613c8a57fe5b02179055507f69607ed0b791422b8f2da1c708bea51e66affd56d4511e89fd7d0ed6df7a380b3084670de0b6b3a764000002848460405180856001600160a01b031681526020018481526020018060200180602001838103835285818151815260200191508051906020019080838360005b83811015613d14578181015183820152602001613cfc565b50505050905090810190601f168015613d415780820380516001836020036101000a031916815260200191505b50838103825284518152845160209182019186019080838360005b83811015613d74578181015183820152602001613d5c565b50505050905090810190601f168015613da15780820380516001836020036101000a031916815260200191505b50965050505050505060405180910390a1505050565b613dbf6143fc565b6000546001600160a01b03908116911614613e0f576040805162461bcd60e51b815260206004820181905260248201526000805160206145e1833981519152604482015290519081900360640190fd5b6001546040805163a9059cbb60e01b81526001600160a01b038581166004830152602482018590529151919092169163a9059cbb9160448083019260209291908290030181600087803b158015613e6557600080fd5b505af1158015613e79573d6000803e3d6000fd5b505050506040513d6020811015613e8f57600080fd5b5050604080516001600160a01b03841681526020810183905281517f21901fa892c430ea8bd38b9390225ac8e67eac75ee10ffba16feefc539a288f9929181900390910190a15050565b805160208183018101805160048252928201938201939093209190925280546040805160026001841615610100026000190190931692909204601f81018590048502830185019091528082529092830182828015613f785780601f10613f4d57610100808354040283529160200191613f78565b820191906000526020600020905b815481529060010190602001808311613f5b57829003601f168201915b505050505081565b613f886143fc565b6000546001600160a01b03908116911614613fd8576040805162461bcd60e51b815260206004820181905260248201526000805160206145e1833981519152604482015290519081900360640190fd5b600354600160a01b900460ff1615156001141561403c576040805162461bcd60e51b815260206004820181905260248201527f4d616e75616c204261722052656d6f76616c2069732072657374726963746564604482015290519081900360640190fd5b806040516020018082805190602001908083835b6020831061406f5780518252601f199092019160209182019101614050565b6001836020036101000a038019825116818451168082178552505050505050905001915050604051602081830303815290604052805190602001206004836040518082805190602001908083835b602083106140dc5780518252601f1990920191602091820191016140bd565b6001836020036101000a0380198251168184511680821785525050505050509050019150509081526020016040518091039020604051602001808280546001816001161561010002031660029004801561416d5780601f1061414b57610100808354040283529182019161416d565b820191906000526020600020905b815481529060010190602001808311614159575b505091505060405160208183030381529060405280519060200120146141d2576040805162461bcd60e51b8152602060048201526015602482015274496e636f7272656374204261722064657461696c7360581b604482015290519081900360640190fd5b6004826040518082805190602001908083835b602083106142045780518252601f1990920191602091820191016141e5565b51815160209384036101000a6000190180199092169116179052920194855250604051938490030190922061423d92509050600061448c565b6005826040518082805190602001908083835b6020831061426f5780518252601f199092019160209182019101614250565b51815160209384036101000a6000190180199092169116179052920194855250604051938490038101842085519094869450925082918401908083835b602083106142cb5780518252601f1990920191602091820191016142ac565b51815160209384036101000a60001901801990921691161790529201948552506040519384900301909220805460ff1916905550505050565b61430c6143fc565b6000546001600160a01b0390811691161461435c576040805162461bcd60e51b815260206004820181905260248201526000805160206145e1833981519152604482015290519081900360640190fd5b6001600160a01b0381166143a15760405162461bcd60e51b815260040180806020018281038252602681526020018061450e6026913960400191505060405180910390fd5b600080546040516001600160a01b03808516939216917f8be0079c531659141344cd1fd0a4f28419497f9722a3daafe3b4186f6b6457e091a3600080546001600160a01b0319166001600160a01b0392909216919091179055565b3390565b828054600181600116156101000203166002900490600052602060002090601f016020900481019282614436576000855561447c565b82601f1061444f57805160ff191683800117855561447c565b8280016001018555821561447c579182015b8281111561447c578251825591602001919060010190614461565b506144889291506144d3565b5090565b50805460018160011615610100020316600290046000825580601f106144b257506144d0565b601f0160209004906000526020600020908101906144d091906144d3565b50565b5b8082111561448857600081556001016144d456fe4f6e6c7920496e69746961746f722063616e2063616c6c20746869732066756e6374696f6e4f776e61626c653a206e6577206f776e657220697320746865207a65726f20616464726573734d616e75616c2042617220496e73657274696f6e20697320726573747269637465644d696e7420696e6974696174696f6e2072657175657374206e6f742065786973744275726e20696e6974696174696f6e2072657175657374206e6f742065786973744f6e6c79204578656375746f722063616e2063616c6c20746869732066756e6374696f6e4d696e7420696e6974696174696f6e207265717565737420616c72656164792065786973744f776e61626c653a2063616c6c6572206973206e6f7420746865206f776e6572a26469706673582212209ca021e37d5c1040f86eaee6a27c380ac93a8e7bbe7504c01f90bcf479aea6c664736f6c63430007060033",
  "devdoc": {
    "kind": "dev",
    "methods": {
      "owner()": {
        "details": "Returns the address of the current owner."
      },
      "renounceOwnership()": {
        "details": "Leaves the contract without owner. It will not be possible to call `onlyOwner` functions anymore. Can only be called by the current owner. NOTE: Renouncing ownership will leave the contract without an owner, thereby removing any functionality that is only available to the owner."
      },
      "transferOwnership(address)": {
        "details": "Transfers ownership of the contract to a new account (`newOwner`). Can only be called by the current owner."
      }
    },
    "version": 1
  },
  "userdoc": {
    "kind": "user",
    "methods": {},
    "version": 1
  },
  "storageLayout": {
    "storage": [
      {
        "astId": 30,
        "contract": "contracts/CGOController.sol:CGOController",
        "label": "_owner",
        "offset": 0,
        "slot": "0",
        "type": "t_address"
      },
      {
        "astId": 1184,
        "contract": "contracts/CGOController.sol:CGOController",
        "label": "tokenAddr",
        "offset": 0,
        "slot": "1",
        "type": "t_address"
      },
      {
        "astId": 1186,
        "contract": "contracts/CGOController.sol:CGOController",
        "label": "initiatorAddr",
        "offset": 0,
        "slot": "2",
        "type": "t_address"
      },
      {
        "astId": 1188,
        "contract": "contracts/CGOController.sol:CGOController",
        "label": "executorAddr",
        "offset": 0,
        "slot": "3",
        "type": "t_address"
      },
      {
        "astId": 1191,
        "contract": "contracts/CGOController.sol:CGOController",
        "label": "isEditBarPaused",
        "offset": 20,
        "slot": "3",
        "type": "t_bool"
      },
      {
        "astId": 1201,
        "contract": "contracts/CGOController.sol:CGOController",
        "label": "barNumWarrantNum",
        "offset": 0,
        "slot": "4",
        "type": "t_mapping(t_string_memory_ptr,t_string_storage)"
      },
      {
        "astId": 1207,
        "contract": "contracts/CGOController.sol:CGOController",
        "label": "txnStatusRecord",
        "offset": 0,
        "slot": "5",
        "type": "t_mapping(t_string_memory_ptr,t_mapping(t_string_memory_ptr,t_enum(txnStatus)1197))"
      }
    ],
    "types": {
      "t_address": {
        "encoding": "inplace",
        "label": "address",
        "numberOfBytes": "20"
      },
      "t_bool": {
        "encoding": "inplace",
        "label": "bool",
        "numberOfBytes": "1"
      },
      "t_enum(txnStatus)1197": {
        "encoding": "inplace",
        "label": "enum CGOController.txnStatus",
        "numberOfBytes": "1"
      },
      "t_mapping(t_string_memory_ptr,t_enum(txnStatus)1197)": {
        "encoding": "mapping",
        "key": "t_string_memory_ptr",
        "label": "mapping(string => enum CGOController.txnStatus)",
        "numberOfBytes": "32",
        "value": "t_enum(txnStatus)1197"
      },
      "t_mapping(t_string_memory_ptr,t_mapping(t_string_memory_ptr,t_enum(txnStatus)1197))": {
        "encoding": "mapping",
        "key": "t_string_memory_ptr",
        "label": "mapping(string => mapping(string => enum CGOController.txnStatus))",
        "numberOfBytes": "32",
        "value": "t_mapping(t_string_memory_ptr,t_enum(txnStatus)1197)"
      },
      "t_mapping(t_string_memory_ptr,t_string_storage)": {
        "encoding": "mapping",
        "key": "t_string_memory_ptr",
        "label": "mapping(string => string)",
        "numberOfBytes": "32",
        "value": "t_string_storage"
      },
      "t_string_memory_ptr": {
        "encoding": "bytes",
        "label": "string",
        "numberOfBytes": "32"
      },
      "t_string_storage": {
        "encoding": "bytes",
        "label": "string",
        "numberOfBytes": "32"
      }
    }
  }
}