{
  "address": "0x09c31920ae05754BC0298acD42A1088926008355",
  "abi": [
    {
      "anonymous": false,
      "inputs": [
        {
          "indexed": false,
          "internalType": "string",
          "name": "Bar_Number",
          "type": "string"
        },
        {
          "indexed": false,
          "internalType": "string",
          "name": "Warrant_Number",
          "type": "string"
        }
      ],
      "name": "BarAdded",
      "type": "event"
    },
    {
      "anonymous": false,
      "inputs": [
        {
          "indexed": false,
          "internalType": "address",
          "name": "burn_from",
          "type": "address"
        },
        {
          "indexed": false,
          "internalType": "uint256",
          "name": "amount",
          "type": "uint256"
        },
        {
          "indexed": false,
          "internalType": "string",
          "name": "Bar_Number",
          "type": "string"
        },
        {
          "indexed": false,
          "internalType": "string",
          "name": "Warrant_Number",
          "type": "string"
        }
      ],
      "name": "BarBurn",
      "type": "event"
    },
    {
      "anonymous": false,
      "inputs": [
        {
          "indexed": false,
          "internalType": "address",
          "name": "to",
          "type": "address"
        },
        {
          "indexed": false,
          "internalType": "uint256",
          "name": "amount",
          "type": "uint256"
        },
        {
          "indexed": false,
          "internalType": "string",
          "name": "Bar_Number",
          "type": "string"
        },
        {
          "indexed": false,
          "internalType": "string",
          "name": "Warrant_Number",
          "type": "string"
        }
      ],
      "name": "BarMint",
      "type": "event"
    },
    {
      "anonymous": false,
      "inputs": [
        {
          "indexed": false,
          "internalType": "string",
          "name": "Bar_Number",
          "type": "string"
        },
        {
          "indexed": false,
          "internalType": "string",
          "name": "Warrant_Number",
          "type": "string"
        },
        {
          "indexed": false,
          "internalType": "enum CGOController_V2.txnStatus",
          "name": "status",
          "type": "uint8"
        }
      ],
      "name": "BurnCancelled",
      "type": "event"
    },
    {
      "anonymous": false,
      "inputs": [
        {
          "indexed": false,
          "internalType": "string",
          "name": "Bar_Number",
          "type": "string"
        },
        {
          "indexed": false,
          "internalType": "string",
          "name": "Warrant_Number",
          "type": "string"
        },
        {
          "indexed": false,
          "internalType": "enum CGOController_V2.txnStatus",
          "name": "status",
          "type": "uint8"
        }
      ],
      "name": "BurnInitiated",
      "type": "event"
    },
    {
      "anonymous": false,
      "inputs": [
        {
          "indexed": false,
          "internalType": "bool",
          "name": "status",
          "type": "bool"
        }
      ],
      "name": "EditBarStatusPaused",
      "type": "event"
    },
    {
      "anonymous": false,
      "inputs": [
        {
          "indexed": false,
          "internalType": "string",
          "name": "Bar_Number",
          "type": "string"
        },
        {
          "indexed": false,
          "internalType": "string",
          "name": "Warrant_Number",
          "type": "string"
        },
        {
          "indexed": false,
          "internalType": "enum CGOController_V2.txnStatus",
          "name": "status",
          "type": "uint8"
        }
      ],
      "name": "MintCancelled",
      "type": "event"
    },
    {
      "anonymous": false,
      "inputs": [
        {
          "indexed": false,
          "internalType": "string",
          "name": "Bar_Number",
          "type": "string"
        },
        {
          "indexed": false,
          "internalType": "string",
          "name": "Warrant_Number",
          "type": "string"
        },
        {
          "indexed": false,
          "internalType": "enum CGOController_V2.txnStatus",
          "name": "status",
          "type": "uint8"
        }
      ],
      "name": "MintInitiated",
      "type": "event"
    },
    {
      "anonymous": false,
      "inputs": [
        {
          "indexed": true,
          "internalType": "address",
          "name": "previousOwner",
          "type": "address"
        },
        {
          "indexed": true,
          "internalType": "address",
          "name": "newOwner",
          "type": "address"
        }
      ],
      "name": "OwnershipTransferred",
      "type": "event"
    },
    {
      "anonymous": false,
      "inputs": [
        {
          "indexed": false,
          "internalType": "address",
          "name": "to",
          "type": "address"
        },
        {
          "indexed": false,
          "internalType": "uint256",
          "name": "amount",
          "type": "uint256"
        }
      ],
      "name": "WithdrawFunds",
      "type": "event"
    },
    {
      "inputs": [
        {
          "internalType": "string",
          "name": "Bar_Number",
          "type": "string"
        },
        {
          "internalType": "string",
          "name": "Warrant_Number",
          "type": "string"
        }
      ],
      "name": "addBarNumWarrantNum",
      "outputs": [],
      "stateMutability": "nonpayable",
      "type": "function"
    },
    {
      "inputs": [
        {
          "internalType": "string",
          "name": "",
          "type": "string"
        }
      ],
      "name": "barNumWarrantNum",
      "outputs": [
        {
          "internalType": "string",
          "name": "",
          "type": "string"
        }
      ],
      "stateMutability": "view",
      "type": "function"
    },
    {
      "inputs": [
        {
          "internalType": "address",
          "name": "user",
          "type": "address"
        },
        {
          "internalType": "bool",
          "name": "value",
          "type": "bool"
        }
      ],
      "name": "blacklistUpdate",
      "outputs": [],
      "stateMutability": "nonpayable",
      "type": "function"
    },
    {
      "inputs": [
        {
          "internalType": "uint256",
          "name": "amount",
          "type": "uint256"
        },
        {
          "internalType": "string",
          "name": "Bar_Number",
          "type": "string"
        },
        {
          "internalType": "string",
          "name": "Warrant_Number",
          "type": "string"
        }
      ],
      "name": "burn",
      "outputs": [],
      "stateMutability": "nonpayable",
      "type": "function"
    },
    {
      "inputs": [
        {
          "internalType": "string",
          "name": "Bar_Number",
          "type": "string"
        },
        {
          "internalType": "string",
          "name": "Warrant_Number",
          "type": "string"
        }
      ],
      "name": "cancelInitiateBurn",
      "outputs": [],
      "stateMutability": "nonpayable",
      "type": "function"
    },
    {
      "inputs": [
        {
          "internalType": "string",
          "name": "Bar_Number",
          "type": "string"
        },
        {
          "internalType": "string",
          "name": "Warrant_Number",
          "type": "string"
        }
      ],
      "name": "cancelInitiateMint",
      "outputs": [],
      "stateMutability": "nonpayable",
      "type": "function"
    },
    {
      "inputs": [],
      "name": "executorAddr",
      "outputs": [
        {
          "internalType": "address",
          "name": "",
          "type": "address"
        }
      ],
      "stateMutability": "view",
      "type": "function"
    },
    {
      "inputs": [
        {
          "internalType": "address",
          "name": "_tokenAddr",
          "type": "address"
        }
      ],
      "name": "initialize",
      "outputs": [],
      "stateMutability": "nonpayable",
      "type": "function"
    },
    {
      "inputs": [
        {
          "internalType": "string",
          "name": "Bar_Number",
          "type": "string"
        },
        {
          "internalType": "string",
          "name": "Warrant_Number",
          "type": "string"
        }
      ],
      "name": "initiateBurn",
      "outputs": [],
      "stateMutability": "nonpayable",
      "type": "function"
    },
    {
      "inputs": [
        {
          "internalType": "string",
          "name": "Bar_Number",
          "type": "string"
        },
        {
          "internalType": "string",
          "name": "Warrant_Number",
          "type": "string"
        }
      ],
      "name": "initiateMint",
      "outputs": [],
      "stateMutability": "nonpayable",
      "type": "function"
    },
    {
      "inputs": [],
      "name": "initiatorAddr",
      "outputs": [
        {
          "internalType": "address",
          "name": "",
          "type": "address"
        }
      ],
      "stateMutability": "view",
      "type": "function"
    },
    {
      "inputs": [],
      "name": "isEditBarPaused",
      "outputs": [
        {
          "internalType": "bool",
          "name": "",
          "type": "bool"
        }
      ],
      "stateMutability": "view",
      "type": "function"
    },
    {
      "inputs": [
        {
          "internalType": "address",
          "name": "to",
          "type": "address"
        },
        {
          "internalType": "uint256",
          "name": "amount",
          "type": "uint256"
        },
        {
          "internalType": "string",
          "name": "Bar_Number",
          "type": "string"
        },
        {
          "internalType": "string",
          "name": "Warrant_Number",
          "type": "string"
        }
      ],
      "name": "mint",
      "outputs": [],
      "stateMutability": "nonpayable",
      "type": "function"
    },
    {
      "inputs": [],
      "name": "minterWallet",
      "outputs": [
        {
          "internalType": "address",
          "name": "",
          "type": "address"
        }
      ],
      "stateMutability": "view",
      "type": "function"
    },
    {
      "inputs": [],
      "name": "owner",
      "outputs": [
        {
          "internalType": "address",
          "name": "",
          "type": "address"
        }
      ],
      "stateMutability": "view",
      "type": "function"
    },
    {
      "inputs": [
        {
          "internalType": "bool",
          "name": "status",
          "type": "bool"
        }
      ],
      "name": "pauseEditBar",
      "outputs": [],
      "stateMutability": "nonpayable",
      "type": "function"
    },
    {
      "inputs": [
        {
          "internalType": "string",
          "name": "Bar_Number",
          "type": "string"
        },
        {
          "internalType": "string",
          "name": "Warrant_Number",
          "type": "string"
        }
      ],
      "name": "removeBarNumWarrantNum",
      "outputs": [],
      "stateMutability": "nonpayable",
      "type": "function"
    },
    {
      "inputs": [],
      "name": "renounceOwnership",
      "outputs": [],
      "stateMutability": "nonpayable",
      "type": "function"
    },
    {
      "inputs": [
        {
          "internalType": "address",
          "name": "_executorAddr",
          "type": "address"
        }
      ],
      "name": "setExecutorAddr",
      "outputs": [],
      "stateMutability": "nonpayable",
      "type": "function"
    },
    {
      "inputs": [
        {
          "internalType": "address",
          "name": "_initiatorAddr",
          "type": "address"
        }
      ],
      "name": "setInitiatorAddr",
      "outputs": [],
      "stateMutability": "nonpayable",
      "type": "function"
    },
    {
      "inputs": [
        {
          "internalType": "address",
          "name": "_minterWallet",
          "type": "address"
        }
      ],
      "name": "setMinterWallet",
      "outputs": [],
      "stateMutability": "nonpayable",
      "type": "function"
    },
    {
      "inputs": [],
      "name": "tokenAddr",
      "outputs": [
        {
          "internalType": "address",
          "name": "",
          "type": "address"
        }
      ],
      "stateMutability": "view",
      "type": "function"
    },
    {
      "inputs": [
        {
          "internalType": "address",
          "name": "newOwner",
          "type": "address"
        }
      ],
      "name": "transferCgoOwnership",
      "outputs": [],
      "stateMutability": "nonpayable",
      "type": "function"
    },
    {
      "inputs": [
        {
          "internalType": "address",
          "name": "newOwner",
          "type": "address"
        }
      ],
      "name": "transferOwnership",
      "outputs": [],
      "stateMutability": "nonpayable",
      "type": "function"
    },
    {
      "inputs": [
        {
          "internalType": "string",
          "name": "",
          "type": "string"
        },
        {
          "internalType": "string",
          "name": "",
          "type": "string"
        }
      ],
      "name": "txnStatusRecord",
      "outputs": [
        {
          "internalType": "enum CGOController_V2.txnStatus",
          "name": "",
          "type": "uint8"
        }
      ],
      "stateMutability": "view",
      "type": "function"
    },
    {
      "inputs": [
        {
          "internalType": "address",
          "name": "to",
          "type": "address"
        },
        {
          "internalType": "uint256",
          "name": "amount",
          "type": "uint256"
        }
      ],
      "name": "withdrawFunds",
      "outputs": [],
      "stateMutability": "nonpayable",
      "type": "function"
    }
  ],
  "transactionHash": "0xffa812711016f356f287f5ea35b7c901b4b56ec9e048f6e79230736d6779e66b",
  "args": [],
  "numDeployments": 2,
  "solcInputHash": "6f0a1ad9a279304a919fd05826678902",
  "bytecode": "0x608060405234801561001057600080fd5b50614ab4806100206000396000f3fe608060405234801561001057600080fd5b506004361061018e5760003560e01c8063760fa67f116100de578063b351dfe811610097578063c4d66de811610071578063c4d66de814610c93578063cc49109a14610cb9578063d12554d914610dd2578063f2fde38b14610efb5761018e565b8063b351dfe814610b09578063ba211db014610b37578063c107532914610c675761018e565b8063760fa67f14610aa757806385b6824f14610aaf5780638da5cb5b14610ad55780638f1a422c14610add578063a71ecc6114610ae5578063b00455c114610b015761018e565b8063500e46ab1161014b5780636037749d116101255780636037749d1461082e578063686fa7d6146109575780636c7ff3bb14610a80578063715018a614610a9f5761018e565b8063500e46ab1461069a5780635eacf728146106c05780635fbe4d1d1461080a5761018e565b8063055e2905146101935780630850c0ac146102be578063236e2f40146103e75780632fb102cf1461040d578063394d5c931461054b5780634a68167314610674575b600080fd5b6102bc600480360360408110156101a957600080fd5b810190602081018135600160201b8111156101c357600080fd5b8201836020820111156101d557600080fd5b803590602001918460018302840111600160201b831117156101f657600080fd5b91908080601f0160208091040260200160405190810160405280939291908181526020018383808284376000920191909152509295949360208101935035915050600160201b81111561024857600080fd5b82018360208201111561025a57600080fd5b803590602001918460018302840111600160201b8311171561027b57600080fd5b91908080601f016020809104026020016040519081016040528093929190818152602001838380828437600092019190915250929550610f21945050505050565b005b6102bc600480360360408110156102d457600080fd5b810190602081018135600160201b8111156102ee57600080fd5b82018360208201111561030057600080fd5b803590602001918460018302840111600160201b8311171561032157600080fd5b91908080601f0160208091040260200160405190810160405280939291908181526020018383808284376000920191909152509295949360208101935035915050600160201b81111561037357600080fd5b82018360208201111561038557600080fd5b803590602001918460018302840111600160201b831117156103a657600080fd5b91908080601f0160208091040260200160405190810160405280939291908181526020018383808284376000920191909152509295506115ec945050505050565b6102bc600480360360208110156103fd57600080fd5b50356001600160a01b0316611b9f565b6102bc6004803603608081101561042357600080fd5b6001600160a01b0382351691602081013591810190606081016040820135600160201b81111561045257600080fd5b82018360208201111561046457600080fd5b803590602001918460018302840111600160201b8311171561048557600080fd5b91908080601f0160208091040260200160405190810160405280939291908181526020018383808284376000920191909152509295949360208101935035915050600160201b8111156104d757600080fd5b8201836020820111156104e957600080fd5b803590602001918460018302840111600160201b8311171561050a57600080fd5b91908080601f016020809104026020016040519081016040528093929190818152602001838380828437600092019190915250929550611c19945050505050565b6102bc6004803603604081101561056157600080fd5b810190602081018135600160201b81111561057b57600080fd5b82018360208201111561058d57600080fd5b803590602001918460018302840111600160201b831117156105ae57600080fd5b91908080601f0160208091040260200160405190810160405280939291908181526020018383808284376000920191909152509295949360208101935035915050600160201b81111561060057600080fd5b82018360208201111561061257600080fd5b803590602001918460018302840111600160201b8311171561063357600080fd5b91908080601f016020809104026020016040519081016040528093929190818152602001838380828437600092019190915250929550612241945050505050565b6102bc6004803603602081101561068a57600080fd5b50356001600160a01b0316612832565b6102bc600480360360208110156106b057600080fd5b50356001600160a01b03166128f3565b6107e9600480360360408110156106d657600080fd5b810190602081018135600160201b8111156106f057600080fd5b82018360208201111561070257600080fd5b803590602001918460018302840111600160201b8311171561072357600080fd5b91908080601f0160208091040260200160405190810160405280939291908181526020018383808284376000920191909152509295949360208101935035915050600160201b81111561077557600080fd5b82018360208201111561078757600080fd5b803590602001918460018302840111600160201b831117156107a857600080fd5b91908080601f01602080910402602001604051908101604052809392919081815260200183838082843760009201919091525092955061296d945050505050565b604051808260048111156107f957fe5b815260200191505060405180910390f35b6108126129aa565b604080516001600160a01b039092168252519081900360200190f35b6102bc6004803603604081101561084457600080fd5b810190602081018135600160201b81111561085e57600080fd5b82018360208201111561087057600080fd5b803590602001918460018302840111600160201b8311171561089157600080fd5b91908080601f0160208091040260200160405190810160405280939291908181526020018383808284376000920191909152509295949360208101935035915050600160201b8111156108e357600080fd5b8201836020820111156108f557600080fd5b803590602001918460018302840111600160201b8311171561091657600080fd5b91908080601f0160208091040260200160405190810160405280939291908181526020018383808284376000920191909152509295506129b9945050505050565b6102bc6004803603604081101561096d57600080fd5b810190602081018135600160201b81111561098757600080fd5b82018360208201111561099957600080fd5b803590602001918460018302840111600160201b831117156109ba57600080fd5b91908080601f0160208091040260200160405190810160405280939291908181526020018383808284376000920191909152509295949360208101935035915050600160201b811115610a0c57600080fd5b820183602082011115610a1e57600080fd5b803590602001918460018302840111600160201b83111715610a3f57600080fd5b91908080601f016020809104026020016040519081016040528093929190818152602001838380828437600092019190915250929550612e44945050505050565b6102bc60048036036020811015610a9657600080fd5b50351515613513565b6102bc6135bd565b61081261365f565b6102bc60048036036020811015610ac557600080fd5b50356001600160a01b031661366e565b6108126136e8565b6108126136f7565b610aed613706565b604080519115158252519081900360200190f35b610812613716565b6102bc60048036036040811015610b1f57600080fd5b506001600160a01b0381351690602001351515613725565b6102bc60048036036060811015610b4d57600080fd5b81359190810190604081016020820135600160201b811115610b6e57600080fd5b820183602082011115610b8057600080fd5b803590602001918460018302840111600160201b83111715610ba157600080fd5b91908080601f0160208091040260200160405190810160405280939291908181526020018383808284376000920191909152509295949360208101935035915050600160201b811115610bf357600080fd5b820183602082011115610c0557600080fd5b803590602001918460018302840111600160201b83111715610c2657600080fd5b91908080601f0160208091040260200160405190810160405280939291908181526020018383808284376000920191909152509295506137ef945050505050565b6102bc60048036036040811015610c7d57600080fd5b506001600160a01b038135169060200135613ed5565b6102bc60048036036020811015610ca957600080fd5b50356001600160a01b0316613ff7565b610d5d60048036036020811015610ccf57600080fd5b810190602081018135600160201b811115610ce957600080fd5b820183602082011115610cfb57600080fd5b803590602001918460018302840111600160201b83111715610d1c57600080fd5b91908080601f0160208091040260200160405190810160405280939291908181526020018383808284376000920191909152509295506140de945050505050565b6040805160208082528351818301528351919283929083019185019080838360005b83811015610d97578181015183820152602001610d7f565b50505050905090810190601f168015610dc45780820380516001836020036101000a031916815260200191505b509250505060405180910390f35b6102bc60048036036040811015610de857600080fd5b810190602081018135600160201b811115610e0257600080fd5b820183602082011115610e1457600080fd5b803590602001918460018302840111600160201b83111715610e3557600080fd5b91908080601f0160208091040260200160405190810160405280939291908181526020018383808284376000920191909152509295949360208101935035915050600160201b811115610e8757600080fd5b820183602082011115610e9957600080fd5b803590602001918460018302840111600160201b83111715610eba57600080fd5b91908080601f016020809104026020016040519081016040528093929190818152602001838380828437600092019190915250929550614185945050505050565b6102bc60048036036020811015610f1157600080fd5b50356001600160a01b0316614509565b6067546001600160a01b03163314610f6a5760405162461bcd60e51b81526004018080602001828103825260248152602001806149e86024913960400191505060405180910390fd5b60036069836040518082805190602001908083835b60208310610f9e5780518252601f199092019160209182019101610f7f565b51815160209384036101000a6000190180199092169116179052920194855250604051938490038101842086519094879450925082918401908083835b60208310610ffa5780518252601f199092019160209182019101610fdb565b51815160209384036101000a600019018019909216911617905292019485525060405193849003019092205460ff16915050600481111561103757fe5b148061110d575060046069836040518082805190602001908083835b602083106110725780518252601f199092019160209182019101611053565b51815160209384036101000a6000190180199092169116179052920194855250604051938490038101842086519094879450925082918401908083835b602083106110ce5780518252601f1990920191602091820191016110af565b51815160209384036101000a600019018019909216911617905292019485525060405193849003019092205460ff16915050600481111561110b57fe5b145b1561115f576040805162461bcd60e51b815260206004820152601f60248201527f4275726e207265717565737420657869737420666f7220746869732042617200604482015290519081900360640190fd5b806040516020018082805190602001908083835b602083106111925780518252601f199092019160209182019101611173565b6001836020036101000a038019825116818451168082178552505050505050905001915050604051602081830303815290604052805190602001206068836040518082805190602001908083835b602083106111ff5780518252601f1990920191602091820191016111e0565b6001836020036101000a038019825116818451168082178552505050505050905001915050908152602001604051809103902060405160200180828054600181600116156101000203166002900480156112905780601f1061126e576101008083540402835291820191611290565b820191906000526020600020905b81548152906001019060200180831161127c575b50509150506040516020818303038152906040528051906020012014156112f2576040805162461bcd60e51b815260206004820152601160248201527010985c88185b1c9958591e48195e1a5cdd607a1b604482015290519081900360640190fd5b60016069836040518082805190602001908083835b602083106113265780518252601f199092019160209182019101611307565b51815160209384036101000a6000190180199092169116179052920194855250604051938490038101842086519094879450925082918401908083835b602083106113825780518252601f199092019160209182019101611363565b51815160209384036101000a600019018019909216911617905292019485525060405193849003019092205460ff1691505060048111156113bf57fe5b146113fb5760405162461bcd60e51b81526004018080602001828103825260218152602001806149a66021913960400191505060405180910390fd5b60006069836040518082805190602001908083835b6020831061142f5780518252601f199092019160209182019101611410565b51815160209384036101000a6000190180199092169116179052920194855250604051938490038101842086519094879450925082918401908083835b6020831061148b5780518252601f19909201916020918201910161146c565b51815160209384036101000a60001901801990921691161790529201948552506040519384900301909220805490925060ff1916905060018360048111156114cf57fe5b02179055507f148baf8fdfa312bf20ec878dd0ebe643ee8b3d92a777405f7b1edf8ea01895c78282600060405180806020018060200184600481111561151157fe5b8152602001838103835286818151815260200191508051906020019080838360005b8381101561154b578181015183820152602001611533565b50505050905090810190601f1680156115785780820380516001836020036101000a031916815260200191505b50838103825285518152855160209182019187019080838360005b838110156115ab578181015183820152602001611593565b50505050905090810190601f1680156115d85780820380516001836020036101000a031916815260200191505b509550505050505060405180910390a15050565b6067546001600160a01b031633146116355760405162461bcd60e51b81526004018080602001828103825260248152602001806149e86024913960400191505060405180910390fd5b606554604080516370a0823160e01b81523060048201529051683635c9adc5dea00000926001600160a01b0316916370a08231916024808301926020929190829003018186803b15801561168857600080fd5b505afa15801561169c573d6000803e3d6000fd5b505050506040513d60208110156116b257600080fd5b50511015611702576040805162461bcd60e51b8152602060048201526018602482015277496e73756666696369656e742043474f2042616c616e636560401b604482015290519081900360640190fd5b60036069836040518082805190602001908083835b602083106117365780518252601f199092019160209182019101611717565b51815160209384036101000a6000190180199092169116179052920194855250604051938490038101842086519094879450925082918401908083835b602083106117925780518252601f199092019160209182019101611773565b51815160209384036101000a600019018019909216911617905292019485525060405193849003019092205460ff1691505060048111156117cf57fe5b141580156118a8575060046069836040518082805190602001908083835b6020831061180c5780518252601f1990920191602091820191016117ed565b51815160209384036101000a6000190180199092169116179052920194855250604051938490038101842086519094879450925082918401908083835b602083106118685780518252601f199092019160209182019101611849565b51815160209384036101000a600019018019909216911617905292019485525060405193849003019092205460ff1691505060048111156118a557fe5b14155b156118f3576040805162461bcd60e51b8152602060048201526016602482015275109d5c9b881c995c5d595cdd081b9bdd08195e1a5cdd60521b604482015290519081900360640190fd5b806040516020018082805190602001908083835b602083106119265780518252601f199092019160209182019101611907565b6001836020036101000a038019825116818451168082178552505050505050905001915050604051602081830303815290604052805190602001206068836040518082805190602001908083835b602083106119935780518252601f199092019160209182019101611974565b6001836020036101000a03801982511681845116808217855250505050505090500191505090815260200160405180910390206040516020018082805460018160011615610100020316600290048015611a245780601f10611a02576101008083540402835291820191611a24565b820191906000526020600020905b815481529060010190602001808311611a10575b50509150506040516020818303038152906040528051906020012014611a89576040805162461bcd60e51b8152602060048201526015602482015274496e636f7272656374204261722064657461696c7360581b604482015290519081900360640190fd5b60026069836040518082805190602001908083835b60208310611abd5780518252601f199092019160209182019101611a9e565b51815160209384036101000a6000190180199092169116179052920194855250604051938490038101842086519094879450925082918401908083835b60208310611b195780518252601f199092019160209182019101611afa565b51815160209384036101000a60001901801990921691161790529201948552506040519384900301909220805490925060ff191690506001836004811115611b5d57fe5b02179055507ffdf2db319bfdfcf7897b86008483aacc62583ee933c1f1db544e41846ccbf8e38282600260405180806020018060200184600481111561151157fe5b611ba7614602565b6033546001600160a01b03908116911614611bf7576040805162461bcd60e51b81526020600482018190526024820152600080516020614a5f833981519152604482015290519081900360640190fd5b606680546001600160a01b0319166001600160a01b0392909216919091179055565b6067546001600160a01b03163314611c625760405162461bcd60e51b81526004018080602001828103825260248152602001806149e86024913960400191505060405180910390fd5b606554604080516340c10f1960e01b81526001600160a01b038781166004830152670de0b6b3a764000087026024830152915191909216916340c10f1991604480830192600092919082900301818387803b158015611cc057600080fd5b505af1158015611cd4573d6000803e3d6000fd5b50505050806040516020018082805190602001908083835b60208310611d0b5780518252601f199092019160209182019101611cec565b6001836020036101000a038019825116818451168082178552505050505050905001915050604051602081830303815290604052805190602001206068836040518082805190602001908083835b60208310611d785780518252601f199092019160209182019101611d59565b6001836020036101000a03801982511681845116808217855250505050505090500191505090815260200160405180910390206040516020018082805460018160011615610100020316600290048015611e095780601f10611de7576101008083540402835291820191611e09565b820191906000526020600020905b815481529060010190602001808311611df5575b5050915050604051602081830303815290604052805190602001201415611e6b576040805162461bcd60e51b815260206004820152601160248201527010985c88185b1c9958591e48195e1a5cdd607a1b604482015290519081900360640190fd5b60016069836040518082805190602001908083835b60208310611e9f5780518252601f199092019160209182019101611e80565b51815160209384036101000a6000190180199092169116179052920194855250604051938490038101842086519094879450925082918401908083835b60208310611efb5780518252601f199092019160209182019101611edc565b51815160209384036101000a600019018019909216911617905292019485525060405193849003019092205460ff169150506004811115611f3857fe5b14611f745760405162461bcd60e51b81526004018080602001828103825260218152602001806149a66021913960400191505060405180910390fd5b826103e814611fca576040805162461bcd60e51b815260206004820152601a60248201527f4d696e7420616d6f756e742073686f756c642062652031303030000000000000604482015290519081900360640190fd5b806068836040518082805190602001908083835b60208310611ffd5780518252601f199092019160209182019101611fde565b51815160209384036101000a6000190180199092169116179052920194855250604051938490038101909320845161203e9591949190910192509050614857565b5060026069836040518082805190602001908083835b602083106120735780518252601f199092019160209182019101612054565b51815160209384036101000a6000190180199092169116179052920194855250604051938490038101842086519094879450925082918401908083835b602083106120cf5780518252601f1990920191602091820191016120b0565b51815160209384036101000a60001901801990921691161790529201948552506040519384900301909220805490925060ff19169050600183600481111561211357fe5b02179055507f6c5141baea3136c0a6e98d38bfa1d3f439b831aac09095817ef594d75231ed208484670de0b6b3a764000002848460405180856001600160a01b031681526020018481526020018060200180602001838103835285818151815260200191508051906020019080838360005b8381101561219d578181015183820152602001612185565b50505050905090810190601f1680156121ca5780820380516001836020036101000a031916815260200191505b50838103825284518152845160209182019186019080838360005b838110156121fd5781810151838201526020016121e5565b50505050905090810190601f16801561222a5780820380516001836020036101000a031916815260200191505b50965050505050505060405180910390a150505050565b6066546001600160a01b0316331461228a5760405162461bcd60e51b81526004018080602001828103825260258152602001806149396025913960400191505060405180910390fd5b60036069836040518082805190602001908083835b602083106122be5780518252601f19909201916020918201910161229f565b51815160209384036101000a6000190180199092169116179052920194855250604051938490038101842086519094879450925082918401908083835b6020831061231a5780518252601f1990920191602091820191016122fb565b51815160209384036101000a600019018019909216911617905292019485525060405193849003019092205460ff16915050600481111561235757fe5b148061242d575060046069836040518082805190602001908083835b602083106123925780518252601f199092019160209182019101612373565b51815160209384036101000a6000190180199092169116179052920194855250604051938490038101842086519094879450925082918401908083835b602083106123ee5780518252601f1990920191602091820191016123cf565b51815160209384036101000a600019018019909216911617905292019485525060405193849003019092205460ff16915050600481111561242b57fe5b145b1561247f576040805162461bcd60e51b815260206004820152601f60248201527f4275726e207265717565737420657869737420666f7220746869732042617200604482015290519081900360640190fd5b806040516020018082805190602001908083835b602083106124b25780518252601f199092019160209182019101612493565b6001836020036101000a038019825116818451168082178552505050505050905001915050604051602081830303815290604052805190602001206068836040518082805190602001908083835b6020831061251f5780518252601f199092019160209182019101612500565b6001836020036101000a038019825116818451168082178552505050505050905001915050908152602001604051809103902060405160200180828054600181600116156101000203166002900480156125b05780601f1061258e5761010080835404028352918201916125b0565b820191906000526020600020905b81548152906001019060200180831161259c575b5050915050604051602081830303815290604052805190602001201415612612576040805162461bcd60e51b815260206004820152601160248201527010985c88185b1c9958591e48195e1a5cdd607a1b604482015290519081900360640190fd5b60016069836040518082805190602001908083835b602083106126465780518252601f199092019160209182019101612627565b51815160209384036101000a6000190180199092169116179052920194855250604051938490038101842086519094879450925082918401908083835b602083106126a25780518252601f199092019160209182019101612683565b51815160209384036101000a600019018019909216911617905292019485525060405193849003019092205460ff1691505060048111156126df57fe5b141561271c5760405162461bcd60e51b8152600401808060200182810382526025815260200180614a0c6025913960400191505060405180910390fd5b60016069836040518082805190602001908083835b602083106127505780518252601f199092019160209182019101612731565b51815160209384036101000a6000190180199092169116179052920194855250604051938490038101842086519094879450925082918401908083835b602083106127ac5780518252601f19909201916020918201910161278d565b51815160209384036101000a60001901801990921691161790529201948552506040519384900301909220805490925060ff1916905060018360048111156127f057fe5b02179055507f414a5a1d8ed4fc86e0618577c5ae5de37aee0d3c581567b3832f802f29142b418282600160405180806020018060200184600481111561151157fe5b61283a614602565b6033546001600160a01b0390811691161461288a576040805162461bcd60e51b81526020600482018190526024820152600080516020614a5f833981519152604482015290519081900360640190fd5b6065546040805163f2fde38b60e01b81526001600160a01b0384811660048301529151919092169163f2fde38b91602480830192600092919082900301818387803b1580156128d857600080fd5b505af11580156128ec573d6000803e3d6000fd5b5050505050565b6128fb614602565b6033546001600160a01b0390811691161461294b576040805162461bcd60e51b81526020600482018190526024820152600080516020614a5f833981519152604482015290519081900360640190fd5b606780546001600160a01b0319166001600160a01b0392909216919091179055565b8151602081840181018051606982529282019482019490942091909352815180830184018051928152908401929093019190912091525460ff1681565b6065546001600160a01b031681565b6129c1614602565b6033546001600160a01b03908116911614612a11576040805162461bcd60e51b81526020600482018190526024820152600080516020614a5f833981519152604482015290519081900360640190fd5b606754600160a01b900460ff16151560011415612a5f5760405162461bcd60e51b81526004018080602001828103825260228152602001806149846022913960400191505060405180910390fd5b806040516020018082805190602001908083835b60208310612a925780518252601f199092019160209182019101612a73565b6001836020036101000a038019825116818451168082178552505050505050905001915050604051602081830303815290604052805190602001206068836040518082805190602001908083835b60208310612aff5780518252601f199092019160209182019101612ae0565b6001836020036101000a03801982511681845116808217855250505050505090500191505090815260200160405180910390206040516020018082805460018160011615610100020316600290048015612b905780601f10612b6e576101008083540402835291820191612b90565b820191906000526020600020905b815481529060010190602001808311612b7c575b5050915050604051602081830303815290604052805190602001201415612bf2576040805162461bcd60e51b815260206004820152601160248201527010985c88185b1c9958591e48195e1a5cdd607a1b604482015290519081900360640190fd5b806068836040518082805190602001908083835b60208310612c255780518252601f199092019160209182019101612c06565b51815160209384036101000a60001901801990921691161790529201948552506040519384900381019093208451612c669591949190910192509050614857565b5060026069836040518082805190602001908083835b60208310612c9b5780518252601f199092019160209182019101612c7c565b51815160209384036101000a6000190180199092169116179052920194855250604051938490038101842086519094879450925082918401908083835b60208310612cf75780518252601f199092019160209182019101612cd8565b51815160209384036101000a60001901801990921691161790529201948552506040519384900301909220805490925060ff191690506001836004811115612d3b57fe5b02179055507fac9bc919b1caca6ecaadfbfafbb1794b941be89e2c6fcefde11f0a91efd1d2198282604051808060200180602001838103835285818151815260200191508051906020019080838360005b83811015612da4578181015183820152602001612d8c565b50505050905090810190601f168015612dd15780820380516001836020036101000a031916815260200191505b50838103825284518152845160209182019186019080838360005b83811015612e04578181015183820152602001612dec565b50505050905090810190601f168015612e315780820380516001836020036101000a031916815260200191505b5094505050505060405180910390a15050565b6066546001600160a01b03163314612e8d5760405162461bcd60e51b81526004018080602001828103825260258152602001806149396025913960400191505060405180910390fd5b606554604080516370a0823160e01b81523060048201529051683635c9adc5dea00000926001600160a01b0316916370a08231916024808301926020929190829003018186803b158015612ee057600080fd5b505afa158015612ef4573d6000803e3d6000fd5b505050506040513d6020811015612f0a57600080fd5b50511015612f5a576040805162461bcd60e51b8152602060048201526018602482015277496e73756666696369656e742043474f2042616c616e636560401b604482015290519081900360640190fd5b60036069836040518082805190602001908083835b60208310612f8e5780518252601f199092019160209182019101612f6f565b51815160209384036101000a6000190180199092169116179052920194855250604051938490038101842086519094879450925082918401908083835b60208310612fea5780518252601f199092019160209182019101612fcb565b51815160209384036101000a600019018019909216911617905292019485525060405193849003019092205460ff16915050600481111561302757fe5b14806130fd575060046069836040518082805190602001908083835b602083106130625780518252601f199092019160209182019101613043565b51815160209384036101000a6000190180199092169116179052920194855250604051938490038101842086519094879450925082918401908083835b602083106130be5780518252601f19909201916020918201910161309f565b51815160209384036101000a600019018019909216911617905292019485525060405193849003019092205460ff1691505060048111156130fb57fe5b145b1561314f576040805162461bcd60e51b815260206004820152601a60248201527f4275726e207265717565737420616c7265616479206578697374000000000000604482015290519081900360640190fd5b806040516020018082805190602001908083835b602083106131825780518252601f199092019160209182019101613163565b6001836020036101000a038019825116818451168082178552505050505050905001915050604051602081830303815290604052805190602001206068836040518082805190602001908083835b602083106131ef5780518252601f1990920191602091820191016131d0565b6001836020036101000a038019825116818451168082178552505050505050905001915050908152602001604051809103902060405160200180828054600181600116156101000203166002900480156132805780601f1061325e576101008083540402835291820191613280565b820191906000526020600020905b81548152906001019060200180831161326c575b505091505060405160208183030381529060405280519060200120146132e5576040805162461bcd60e51b8152602060048201526015602482015274496e636f7272656374204261722064657461696c7360581b604482015290519081900360640190fd5b60026069836040518082805190602001908083835b602083106133195780518252601f1990920191602091820191016132fa565b51815160209384036101000a6000190180199092169116179052920194855250604051938490038101842086519094879450925082918401908083835b602083106133755780518252601f199092019160209182019101613356565b51815160209384036101000a600019018019909216911617905292019485525060405193849003019092205460ff1691505060048111156133b257fe5b146133fd576040805162461bcd60e51b8152602060048201526016602482015275135a5b9d081c995c5d595cdd081b9bdd08195e1a5cdd60521b604482015290519081900360640190fd5b60036069836040518082805190602001908083835b602083106134315780518252601f199092019160209182019101613412565b51815160209384036101000a6000190180199092169116179052920194855250604051938490038101842086519094879450925082918401908083835b6020831061348d5780518252601f19909201916020918201910161346e565b51815160209384036101000a60001901801990921691161790529201948552506040519384900301909220805490925060ff1916905060018360048111156134d157fe5b02179055507f958e890dc745eff10f691e6643bf164523f5d2347f1824c93258e4150bc408a78282600360405180806020018060200184600481111561151157fe5b61351b614602565b6033546001600160a01b0390811691161461356b576040805162461bcd60e51b81526020600482018190526024820152600080516020614a5f833981519152604482015290519081900360640190fd5b60678054821515600160a01b810260ff60a01b199092169190911790915560408051918252517e642bba6e3f08aa2c941bc293d57dfe61e9c3c1dd1e282c2871af333aa612ab9181900360200190a150565b6135c5614602565b6033546001600160a01b03908116911614613615576040805162461bcd60e51b81526020600482018190526024820152600080516020614a5f833981519152604482015290519081900360640190fd5b6033546040516000916001600160a01b0316907f8be0079c531659141344cd1fd0a4f28419497f9722a3daafe3b4186f6b6457e0908390a3603380546001600160a01b0319169055565b6067546001600160a01b031681565b613676614602565b6033546001600160a01b039081169116146136c6576040805162461bcd60e51b81526020600482018190526024820152600080516020614a5f833981519152604482015290519081900360640190fd5b606a80546001600160a01b0319166001600160a01b0392909216919091179055565b6033546001600160a01b031690565b606a546001600160a01b031681565b606754600160a01b900460ff1681565b6066546001600160a01b031681565b61372d614602565b6033546001600160a01b0390811691161461377d576040805162461bcd60e51b81526020600482018190526024820152600080516020614a5f833981519152604482015290519081900360640190fd5b6065546040805163166a3bfd60e31b81526001600160a01b03858116600483015284151560248301529151919092169163b351dfe891604480830192600092919082900301818387803b1580156137d357600080fd5b505af11580156137e7573d6000803e3d6000fd5b505050505050565b6067546001600160a01b031633146138385760405162461bcd60e51b81526004018080602001828103825260248152602001806149e86024913960400191505060405180910390fd5b806040516020018082805190602001908083835b6020831061386b5780518252601f19909201916020918201910161384c565b6001836020036101000a038019825116818451168082178552505050505050905001915050604051602081830303815290604052805190602001206068836040518082805190602001908083835b602083106138d85780518252601f1990920191602091820191016138b9565b6001836020036101000a038019825116818451168082178552505050505050905001915050908152602001604051809103902060405160200180828054600181600116156101000203166002900480156139695780601f10613947576101008083540402835291820191613969565b820191906000526020600020905b815481529060010190602001808311613955575b505091505060405160208183030381529060405280519060200120146139ce576040805162461bcd60e51b8152602060048201526015602482015274496e636f7272656374204261722064657461696c7360581b604482015290519081900360640190fd5b60036069836040518082805190602001908083835b60208310613a025780518252601f1990920191602091820191016139e3565b51815160209384036101000a6000190180199092169116179052920194855250604051938490038101842086519094879450925082918401908083835b60208310613a5e5780518252601f199092019160209182019101613a3f565b51815160209384036101000a600019018019909216911617905292019485525060405193849003019092205460ff169150506004811115613a9b57fe5b14613ad75760405162461bcd60e51b81526004018080602001828103825260218152602001806149c76021913960400191505060405180910390fd5b826103e814613b2d576040805162461bcd60e51b815260206004820152601a60248201527f4275726e20616d6f756e742073686f756c642062652031303030000000000000604482015290519081900360640190fd5b606554604080516370a0823160e01b81523060048201529051670de0b6b3a76400008602926001600160a01b0316916370a08231916024808301926020929190829003018186803b158015613b8157600080fd5b505afa158015613b95573d6000803e3d6000fd5b505050506040513d6020811015613bab57600080fd5b50511015613bfb576040805162461bcd60e51b8152602060048201526018602482015277496e73756666696369656e742043474f2042616c616e636560401b604482015290519081900360640190fd5b60655460408051630852cd8d60e31b8152670de0b6b3a76400008602600482015290516001600160a01b03909216916342966c689160248082019260009290919082900301818387803b158015613c5157600080fd5b505af1158015613c65573d6000803e3d6000fd5b505050506068826040518082805190602001908083835b60208310613c9b5780518252601f199092019160209182019101613c7c565b51815160209384036101000a60001901801990921691161790529201948552506040519384900301909220613cd49250905060006148e3565b60046069836040518082805190602001908083835b60208310613d085780518252601f199092019160209182019101613ce9565b51815160209384036101000a6000190180199092169116179052920194855250604051938490038101842086519094879450925082918401908083835b60208310613d645780518252601f199092019160209182019101613d45565b51815160209384036101000a60001901801990921691161790529201948552506040519384900301909220805490925060ff191690506001836004811115613da857fe5b02179055507f69607ed0b791422b8f2da1c708bea51e66affd56d4511e89fd7d0ed6df7a380b3084670de0b6b3a764000002848460405180856001600160a01b031681526020018481526020018060200180602001838103835285818151815260200191508051906020019080838360005b83811015613e32578181015183820152602001613e1a565b50505050905090810190601f168015613e5f5780820380516001836020036101000a031916815260200191505b50838103825284518152845160209182019186019080838360005b83811015613e92578181015183820152602001613e7a565b50505050905090810190601f168015613ebf5780820380516001836020036101000a031916815260200191505b50965050505050505060405180910390a1505050565b613edd614602565b6033546001600160a01b03908116911614613f2d576040805162461bcd60e51b81526020600482018190526024820152600080516020614a5f833981519152604482015290519081900360640190fd5b6065546040805163a9059cbb60e01b81526001600160a01b038581166004830152602482018590529151919092169163a9059cbb9160448083019260209291908290030181600087803b158015613f8357600080fd5b505af1158015613f97573d6000803e3d6000fd5b505050506040513d6020811015613fad57600080fd5b5050604080516001600160a01b03841681526020810183905281517f21901fa892c430ea8bd38b9390225ac8e67eac75ee10ffba16feefc539a288f9929181900390910190a15050565b600054610100900460ff16806140105750614010614606565b8061401e575060005460ff16155b6140595760405162461bcd60e51b815260040180806020018281038252602e815260200180614a31602e913960400191505060405180910390fd5b600054610100900460ff16158015614084576000805460ff1961ff0019909116610100171660011790555b606580546001600160a01b03199081166001600160a01b0385161790915560668054339083168117909155606780549092161760ff60a01b191690556140c861460c565b80156140da576000805461ff00191690555b5050565b805160208183018101805160688252928201938201939093209190925280546040805160026001841615610100026000190190931692909204601f8101859004850283018501909152808252909283018282801561417d5780601f106141525761010080835404028352916020019161417d565b820191906000526020600020905b81548152906001019060200180831161416057829003601f168201915b505050505081565b61418d614602565b6033546001600160a01b039081169116146141dd576040805162461bcd60e51b81526020600482018190526024820152600080516020614a5f833981519152604482015290519081900360640190fd5b606754600160a01b900460ff16151560011415614241576040805162461bcd60e51b815260206004820181905260248201527f4d616e75616c204261722052656d6f76616c2069732072657374726963746564604482015290519081900360640190fd5b806040516020018082805190602001908083835b602083106142745780518252601f199092019160209182019101614255565b6001836020036101000a038019825116818451168082178552505050505050905001915050604051602081830303815290604052805190602001206068836040518082805190602001908083835b602083106142e15780518252601f1990920191602091820191016142c2565b6001836020036101000a038019825116818451168082178552505050505050905001915050908152602001604051809103902060405160200180828054600181600116156101000203166002900480156143725780601f10614350576101008083540402835291820191614372565b820191906000526020600020905b81548152906001019060200180831161435e575b505091505060405160208183030381529060405280519060200120146143d7576040805162461bcd60e51b8152602060048201526015602482015274496e636f7272656374204261722064657461696c7360581b604482015290519081900360640190fd5b6068826040518082805190602001908083835b602083106144095780518252601f1990920191602091820191016143ea565b51815160209384036101000a600019018019909216911617905292019485525060405193849003019092206144429250905060006148e3565b6069826040518082805190602001908083835b602083106144745780518252601f199092019160209182019101614455565b51815160209384036101000a6000190180199092169116179052920194855250604051938490038101842085519094869450925082918401908083835b602083106144d05780518252601f1990920191602091820191016144b1565b51815160209384036101000a60001901801990921691161790529201948552506040519384900301909220805460ff1916905550505050565b614511614602565b6033546001600160a01b03908116911614614561576040805162461bcd60e51b81526020600482018190526024820152600080516020614a5f833981519152604482015290519081900360640190fd5b6001600160a01b0381166145a65760405162461bcd60e51b815260040180806020018281038252602681526020018061495e6026913960400191505060405180910390fd5b6033546040516001600160a01b038084169216907f8be0079c531659141344cd1fd0a4f28419497f9722a3daafe3b4186f6b6457e090600090a3603380546001600160a01b0319166001600160a01b0392909216919091179055565b3390565b303b1590565b600054610100900460ff16806146255750614625614606565b80614633575060005460ff16155b61466e5760405162461bcd60e51b815260040180806020018281038252602e815260200180614a31602e913960400191505060405180910390fd5b600054610100900460ff16158015614699576000805460ff1961ff0019909116610100171660011790555b6146a16146be565b6146a961475e565b80156146bb576000805461ff00191690555b50565b600054610100900460ff16806146d757506146d7614606565b806146e5575060005460ff16155b6147205760405162461bcd60e51b815260040180806020018281038252602e815260200180614a31602e913960400191505060405180910390fd5b600054610100900460ff161580156146a9576000805460ff1961ff00199091166101001716600117905580156146bb576000805461ff001916905550565b600054610100900460ff16806147775750614777614606565b80614785575060005460ff16155b6147c05760405162461bcd60e51b815260040180806020018281038252602e815260200180614a31602e913960400191505060405180910390fd5b600054610100900460ff161580156147eb576000805460ff1961ff0019909116610100171660011790555b60006147f5614602565b603380546001600160a01b0319166001600160a01b038316908117909155604051919250906000907f8be0079c531659141344cd1fd0a4f28419497f9722a3daafe3b4186f6b6457e0908290a35080156146bb576000805461ff001916905550565b828054600181600116156101000203166002900490600052602060002090601f01602090048101928261488d57600085556148d3565b82601f106148a657805160ff19168380011785556148d3565b828001600101855582156148d3579182015b828111156148d35782518255916020019190600101906148b8565b506148df929150614923565b5090565b50805460018160011615610100020316600290046000825580601f1061490957506146bb565b601f0160209004906000526020600020908101906146bb91905b5b808211156148df576000815560010161492456fe4f6e6c7920496e69746961746f722063616e2063616c6c20746869732066756e6374696f6e4f776e61626c653a206e6577206f776e657220697320746865207a65726f20616464726573734d616e75616c2042617220496e73657274696f6e20697320726573747269637465644d696e7420696e6974696174696f6e2072657175657374206e6f742065786973744275726e20696e6974696174696f6e2072657175657374206e6f742065786973744f6e6c79204578656375746f722063616e2063616c6c20746869732066756e6374696f6e4d696e7420696e6974696174696f6e207265717565737420616c7265616479206578697374496e697469616c697a61626c653a20636f6e747261637420697320616c726561647920696e697469616c697a65644f776e61626c653a2063616c6c6572206973206e6f7420746865206f776e6572a26469706673582212201cefa8202ee19946ac81ab5622e6ead5c5bcaee5f603b6cba2ca3d09215d2e0964736f6c63430007060033",
  "devdoc": {
    "kind": "dev",
    "methods": {
      "owner()": {
        "details": "Returns the address of the current owner."
      },
      "renounceOwnership()": {
        "details": "Leaves the contract without owner. It will not be possible to call `onlyOwner` functions anymore. Can only be called by the current owner. NOTE: Renouncing ownership will leave the contract without an owner, thereby removing any functionality that is only available to the owner."
      },
      "transferOwnership(address)": {
        "details": "Transfers ownership of the contract to a new account (`newOwner`). Can only be called by the current owner."
      }
    },
    "version": 1
  },
  "userdoc": {
    "kind": "user",
    "methods": {},
    "version": 1
  },
  "storageLayout": {
    "storage": [
      {
        "astId": 180,
        "contract": "contracts/CGOController_V2.sol:CGOController_V2",
        "label": "_initialized",
        "offset": 0,
        "slot": "0",
        "type": "t_bool"
      },
      {
        "astId": 183,
        "contract": "contracts/CGOController_V2.sol:CGOController_V2",
        "label": "_initializing",
        "offset": 1,
        "slot": "0",
        "type": "t_bool"
      },
      {
        "astId": 43,
        "contract": "contracts/CGOController_V2.sol:CGOController_V2",
        "label": "__gap",
        "offset": 0,
        "slot": "1",
        "type": "t_array(t_uint256)50_storage"
      },
      {
        "astId": 55,
        "contract": "contracts/CGOController_V2.sol:CGOController_V2",
        "label": "_owner",
        "offset": 0,
        "slot": "51",
        "type": "t_address"
      },
      {
        "astId": 173,
        "contract": "contracts/CGOController_V2.sol:CGOController_V2",
        "label": "__gap",
        "offset": 0,
        "slot": "52",
        "type": "t_array(t_uint256)49_storage"
      },
      {
        "astId": 2537,
        "contract": "contracts/CGOController_V2.sol:CGOController_V2",
        "label": "tokenAddr",
        "offset": 0,
        "slot": "101",
        "type": "t_address"
      },
      {
        "astId": 2539,
        "contract": "contracts/CGOController_V2.sol:CGOController_V2",
        "label": "initiatorAddr",
        "offset": 0,
        "slot": "102",
        "type": "t_address"
      },
      {
        "astId": 2541,
        "contract": "contracts/CGOController_V2.sol:CGOController_V2",
        "label": "executorAddr",
        "offset": 0,
        "slot": "103",
        "type": "t_address"
      },
      {
        "astId": 2543,
        "contract": "contracts/CGOController_V2.sol:CGOController_V2",
        "label": "isEditBarPaused",
        "offset": 20,
        "slot": "103",
        "type": "t_bool"
      },
      {
        "astId": 2553,
        "contract": "contracts/CGOController_V2.sol:CGOController_V2",
        "label": "barNumWarrantNum",
        "offset": 0,
        "slot": "104",
        "type": "t_mapping(t_string_memory_ptr,t_string_storage)"
      },
      {
        "astId": 2559,
        "contract": "contracts/CGOController_V2.sol:CGOController_V2",
        "label": "txnStatusRecord",
        "offset": 0,
        "slot": "105",
        "type": "t_mapping(t_string_memory_ptr,t_mapping(t_string_memory_ptr,t_enum(txnStatus)2549))"
      },
      {
        "astId": 2561,
        "contract": "contracts/CGOController_V2.sol:CGOController_V2",
        "label": "minterWallet",
        "offset": 0,
        "slot": "106",
        "type": "t_address"
      }
    ],
    "types": {
      "t_address": {
        "encoding": "inplace",
        "label": "address",
        "numberOfBytes": "20"
      },
      "t_array(t_uint256)49_storage": {
        "base": "t_uint256",
        "encoding": "inplace",
        "label": "uint256[49]",
        "numberOfBytes": "1568"
      },
      "t_array(t_uint256)50_storage": {
        "base": "t_uint256",
        "encoding": "inplace",
        "label": "uint256[50]",
        "numberOfBytes": "1600"
      },
      "t_bool": {
        "encoding": "inplace",
        "label": "bool",
        "numberOfBytes": "1"
      },
      "t_enum(txnStatus)2549": {
        "encoding": "inplace",
        "label": "enum CGOController_V2.txnStatus",
        "numberOfBytes": "1"
      },
      "t_mapping(t_string_memory_ptr,t_enum(txnStatus)2549)": {
        "encoding": "mapping",
        "key": "t_string_memory_ptr",
        "label": "mapping(string => enum CGOController_V2.txnStatus)",
        "numberOfBytes": "32",
        "value": "t_enum(txnStatus)2549"
      },
      "t_mapping(t_string_memory_ptr,t_mapping(t_string_memory_ptr,t_enum(txnStatus)2549))": {
        "encoding": "mapping",
        "key": "t_string_memory_ptr",
        "label": "mapping(string => mapping(string => enum CGOController_V2.txnStatus))",
        "numberOfBytes": "32",
        "value": "t_mapping(t_string_memory_ptr,t_enum(txnStatus)2549)"
      },
      "t_mapping(t_string_memory_ptr,t_string_storage)": {
        "encoding": "mapping",
        "key": "t_string_memory_ptr",
        "label": "mapping(string => string)",
        "numberOfBytes": "32",
        "value": "t_string_storage"
      },
      "t_string_memory_ptr": {
        "encoding": "bytes",
        "label": "string",
        "numberOfBytes": "32"
      },
      "t_string_storage": {
        "encoding": "bytes",
        "label": "string",
        "numberOfBytes": "32"
      },
      "t_uint256": {
        "encoding": "inplace",
        "label": "uint256",
        "numberOfBytes": "32"
      }
    }
  }
}