{
  "address": "0xe6c6287D47F216dd06910E7aA5330d01130AAef0",
  "abi": [
    {
      "inputs": [
        {
          "internalType": "address",
          "name": "_tokenAddr",
          "type": "address"
        }
      ],
      "stateMutability": "nonpayable",
      "type": "constructor"
    },
    {
      "anonymous": false,
      "inputs": [
        {
          "indexed": false,
          "internalType": "string",
          "name": "Bar_Number",
          "type": "string"
        },
        {
          "indexed": false,
          "internalType": "string",
          "name": "Warrant_Number",
          "type": "string"
        }
      ],
      "name": "BarAdded",
      "type": "event"
    },
    {
      "anonymous": false,
      "inputs": [
        {
          "indexed": false,
          "internalType": "address",
          "name": "burn_from",
          "type": "address"
        },
        {
          "indexed": false,
          "internalType": "uint256",
          "name": "amount",
          "type": "uint256"
        },
        {
          "indexed": false,
          "internalType": "string",
          "name": "Bar_Number",
          "type": "string"
        },
        {
          "indexed": false,
          "internalType": "string",
          "name": "Warrant_Number",
          "type": "string"
        }
      ],
      "name": "BarBurn",
      "type": "event"
    },
    {
      "anonymous": false,
      "inputs": [
        {
          "indexed": false,
          "internalType": "address",
          "name": "to",
          "type": "address"
        },
        {
          "indexed": false,
          "internalType": "uint256",
          "name": "amount",
          "type": "uint256"
        },
        {
          "indexed": false,
          "internalType": "string",
          "name": "Bar_Number",
          "type": "string"
        },
        {
          "indexed": false,
          "internalType": "string",
          "name": "Warrant_Number",
          "type": "string"
        }
      ],
      "name": "BarMint",
      "type": "event"
    },
    {
      "anonymous": false,
      "inputs": [
        {
          "indexed": false,
          "internalType": "bool",
          "name": "status",
          "type": "bool"
        }
      ],
      "name": "EditBarStatusPaused",
      "type": "event"
    },
    {
      "anonymous": false,
      "inputs": [
        {
          "indexed": true,
          "internalType": "address",
          "name": "previousOwner",
          "type": "address"
        },
        {
          "indexed": true,
          "internalType": "address",
          "name": "newOwner",
          "type": "address"
        }
      ],
      "name": "OwnershipTransferred",
      "type": "event"
    },
    {
      "anonymous": false,
      "inputs": [
        {
          "indexed": false,
          "internalType": "address",
          "name": "to",
          "type": "address"
        },
        {
          "indexed": false,
          "internalType": "uint256",
          "name": "amount",
          "type": "uint256"
        }
      ],
      "name": "WithdrawFunds",
      "type": "event"
    },
    {
      "inputs": [
        {
          "internalType": "string",
          "name": "Bar_Number",
          "type": "string"
        },
        {
          "internalType": "string",
          "name": "Warrant_Number",
          "type": "string"
        }
      ],
      "name": "addBarNumWarrantNum",
      "outputs": [],
      "stateMutability": "nonpayable",
      "type": "function"
    },
    {
      "inputs": [
        {
          "internalType": "string",
          "name": "",
          "type": "string"
        }
      ],
      "name": "barNumWarrantNum",
      "outputs": [
        {
          "internalType": "string",
          "name": "",
          "type": "string"
        }
      ],
      "stateMutability": "view",
      "type": "function"
    },
    {
      "inputs": [
        {
          "internalType": "address",
          "name": "user",
          "type": "address"
        },
        {
          "internalType": "bool",
          "name": "value",
          "type": "bool"
        }
      ],
      "name": "blacklistUpdate",
      "outputs": [],
      "stateMutability": "nonpayable",
      "type": "function"
    },
    {
      "inputs": [
        {
          "internalType": "uint256",
          "name": "amount",
          "type": "uint256"
        },
        {
          "internalType": "string",
          "name": "Bar_Number",
          "type": "string"
        },
        {
          "internalType": "string",
          "name": "Warrant_Number",
          "type": "string"
        }
      ],
      "name": "burn",
      "outputs": [],
      "stateMutability": "nonpayable",
      "type": "function"
    },
    {
      "inputs": [],
      "name": "isEditBarPaused",
      "outputs": [
        {
          "internalType": "bool",
          "name": "",
          "type": "bool"
        }
      ],
      "stateMutability": "view",
      "type": "function"
    },
    {
      "inputs": [
        {
          "internalType": "address",
          "name": "to",
          "type": "address"
        },
        {
          "internalType": "uint256",
          "name": "amount",
          "type": "uint256"
        },
        {
          "internalType": "string",
          "name": "Bar_Number",
          "type": "string"
        },
        {
          "internalType": "string",
          "name": "Warrant_Number",
          "type": "string"
        }
      ],
      "name": "mint",
      "outputs": [],
      "stateMutability": "nonpayable",
      "type": "function"
    },
    {
      "inputs": [],
      "name": "owner",
      "outputs": [
        {
          "internalType": "address",
          "name": "",
          "type": "address"
        }
      ],
      "stateMutability": "view",
      "type": "function"
    },
    {
      "inputs": [
        {
          "internalType": "bool",
          "name": "status",
          "type": "bool"
        }
      ],
      "name": "pauseEditBar",
      "outputs": [],
      "stateMutability": "nonpayable",
      "type": "function"
    },
    {
      "inputs": [
        {
          "internalType": "string",
          "name": "Bar_Number",
          "type": "string"
        },
        {
          "internalType": "string",
          "name": "Warrant_Number",
          "type": "string"
        }
      ],
      "name": "removeBarNumWarrantNum",
      "outputs": [],
      "stateMutability": "nonpayable",
      "type": "function"
    },
    {
      "inputs": [],
      "name": "renounceOwnership",
      "outputs": [],
      "stateMutability": "nonpayable",
      "type": "function"
    },
    {
      "inputs": [],
      "name": "tokenAddr",
      "outputs": [
        {
          "internalType": "address",
          "name": "",
          "type": "address"
        }
      ],
      "stateMutability": "view",
      "type": "function"
    },
    {
      "inputs": [
        {
          "internalType": "address",
          "name": "newOwner",
          "type": "address"
        }
      ],
      "name": "transferCgoOwnership",
      "outputs": [],
      "stateMutability": "nonpayable",
      "type": "function"
    },
    {
      "inputs": [
        {
          "internalType": "address",
          "name": "newOwner",
          "type": "address"
        }
      ],
      "name": "transferOwnership",
      "outputs": [],
      "stateMutability": "nonpayable",
      "type": "function"
    },
    {
      "inputs": [
        {
          "internalType": "address",
          "name": "to",
          "type": "address"
        },
        {
          "internalType": "uint256",
          "name": "amount",
          "type": "uint256"
        }
      ],
      "name": "withdrawFunds",
      "outputs": [],
      "stateMutability": "nonpayable",
      "type": "function"
    }
  ],
  "transactionHash": "0xef94891b92a732938333f0a3972231d5dfec1ebcff00eb7409ccf39656ce20df",
  "args": [
    "0x84bD9f6B49B2C821AcAcb7fD22C5866F5c346b86"
  ],
  "numDeployments": 1,
  "solcInputHash": "33a014fe32b3a5960857c7b7dc898534",
  "bytecode": "0x60806040526001805460ff60a01b1916905534801561001d57600080fd5b50604051611fcf380380611fcf8339818101604052602081101561004057600080fd5b5051600061004c6100bb565b600080546001600160a01b0319166001600160a01b0383169081178255604051929350917f8be0079c531659141344cd1fd0a4f28419497f9722a3daafe3b4186f6b6457e0908290a350600180546001600160a01b0319166001600160a01b03929092169190911790556100bf565b3390565b611f01806100ce6000396000f3fe608060405234801561001057600080fd5b50600436106100ea5760003560e01c8063a71ecc611161008c578063c107532911610066578063c10753291461054b578063cc49109a14610577578063d12554d914610690578063f2fde38b146107b9576100ea565b8063a71ecc61146103d1578063b351dfe8146103ed578063ba211db01461041b576100ea565b80636037749d116100c85780636037749d146102795780636c7ff3bb146103a2578063715018a6146103c15780638da5cb5b146103c9576100ea565b80632fb102cf146100ef5780634a6816731461022f5780635fbe4d1d14610255575b600080fd5b61022d6004803603608081101561010557600080fd5b6001600160a01b0382351691602081013591810190606081016040820135600160201b81111561013457600080fd5b82018360208201111561014657600080fd5b803590602001918460018302840111600160201b8311171561016757600080fd5b91908080601f0160208091040260200160405190810160405280939291908181526020018383808284376000920191909152509295949360208101935035915050600160201b8111156101b957600080fd5b8201836020820111156101cb57600080fd5b803590602001918460018302840111600160201b831117156101ec57600080fd5b91908080601f0160208091040260200160405190810160405280939291908181526020018383808284376000920191909152509295506107df945050505050565b005b61022d6004803603602081101561024557600080fd5b50356001600160a01b0316610c34565b61025d610cf5565b604080516001600160a01b039092168252519081900360200190f35b61022d6004803603604081101561028f57600080fd5b810190602081018135600160201b8111156102a957600080fd5b8201836020820111156102bb57600080fd5b803590602001918460018302840111600160201b831117156102dc57600080fd5b91908080601f0160208091040260200160405190810160405280939291908181526020018383808284376000920191909152509295949360208101935035915050600160201b81111561032e57600080fd5b82018360208201111561034057600080fd5b803590602001918460018302840111600160201b8311171561036157600080fd5b91908080601f016020809104026020016040519081016040528093929190818152602001838380828437600092019190915250929550610d04945050505050565b61022d600480360360208110156103b857600080fd5b503515156110b5565b61022d61115f565b61025d611201565b6103d9611210565b604080519115158252519081900360200190f35b61022d6004803603604081101561040357600080fd5b506001600160a01b0381351690602001351515611220565b61022d6004803603606081101561043157600080fd5b81359190810190604081016020820135600160201b81111561045257600080fd5b82018360208201111561046457600080fd5b803590602001918460018302840111600160201b8311171561048557600080fd5b91908080601f0160208091040260200160405190810160405280939291908181526020018383808284376000920191909152509295949360208101935035915050600160201b8111156104d757600080fd5b8201836020820111156104e957600080fd5b803590602001918460018302840111600160201b8311171561050a57600080fd5b91908080601f0160208091040260200160405190810160405280939291908181526020018383808284376000920191909152509295506112ea945050505050565b61022d6004803603604081101561056157600080fd5b506001600160a01b0381351690602001356117f7565b61061b6004803603602081101561058d57600080fd5b810190602081018135600160201b8111156105a757600080fd5b8201836020820111156105b957600080fd5b803590602001918460018302840111600160201b831117156105da57600080fd5b91908080601f016020809104026020016040519081016040528093929190818152602001838380828437600092019190915250929550611919945050505050565b6040805160208082528351818301528351919283929083019185019080838360005b8381101561065557818101518382015260200161063d565b50505050905090810190601f1680156106825780820380516001836020036101000a031916815260200191505b509250505060405180910390f35b61022d600480360360408110156106a657600080fd5b810190602081018135600160201b8111156106c057600080fd5b8201836020820111156106d257600080fd5b803590602001918460018302840111600160201b831117156106f357600080fd5b91908080601f0160208091040260200160405190810160405280939291908181526020018383808284376000920191909152509295949360208101935035915050600160201b81111561074557600080fd5b82018360208201111561075757600080fd5b803590602001918460018302840111600160201b8311171561077857600080fd5b91908080601f0160208091040260200160405190810160405280939291908181526020018383808284376000920191909152509295506119bf945050505050565b61022d600480360360208110156107cf57600080fd5b50356001600160a01b0316611c7f565b6107e7611d77565b6000546001600160a01b03908116911614610837576040805162461bcd60e51b81526020600482018190526024820152600080516020611eac833981519152604482015290519081900360640190fd5b600154604080516340c10f1960e01b81526001600160a01b038781166004830152670de0b6b3a764000087026024830152915191909216916340c10f1991604480830192600092919082900301818387803b15801561089557600080fd5b505af11580156108a9573d6000803e3d6000fd5b50505050806040516020018082805190602001908083835b602083106108e05780518252601f1990920191602091820191016108c1565b6001836020036101000a038019825116818451168082178552505050505050905001915050604051602081830303815290604052805190602001206002836040518082805190602001908083835b6020831061094d5780518252601f19909201916020918201910161092e565b6001836020036101000a038019825116818451168082178552505050505050905001915050908152602001604051809103902060405160200180828054600181600116156101000203166002900480156109de5780601f106109bc5761010080835404028352918201916109de565b820191906000526020600020905b8154815290600101906020018083116109ca575b5050915050604051602081830303815290604052805190602001201415610a40576040805162461bcd60e51b815260206004820152601160248201527010985c88185b1c9958591e48195e1a5cdd607a1b604482015290519081900360640190fd5b826103e814610a96576040805162461bcd60e51b815260206004820152601a60248201527f4d696e7420616d6f756e742073686f756c642062652031303030000000000000604482015290519081900360640190fd5b806002836040518082805190602001908083835b60208310610ac95780518252601f199092019160209182019101610aaa565b51815160209384036101000a60001901801990921691161790529201948552506040519384900381019093208451610b0a9591949190910192509050611d7b565b507f6c5141baea3136c0a6e98d38bfa1d3f439b831aac09095817ef594d75231ed208484670de0b6b3a764000002848460405180856001600160a01b031681526020018481526020018060200180602001838103835285818151815260200191508051906020019080838360005b83811015610b90578181015183820152602001610b78565b50505050905090810190601f168015610bbd5780820380516001836020036101000a031916815260200191505b50838103825284518152845160209182019186019080838360005b83811015610bf0578181015183820152602001610bd8565b50505050905090810190601f168015610c1d5780820380516001836020036101000a031916815260200191505b50965050505050505060405180910390a150505050565b610c3c611d77565b6000546001600160a01b03908116911614610c8c576040805162461bcd60e51b81526020600482018190526024820152600080516020611eac833981519152604482015290519081900360640190fd5b6001546040805163f2fde38b60e01b81526001600160a01b0384811660048301529151919092169163f2fde38b91602480830192600092919082900301818387803b158015610cda57600080fd5b505af1158015610cee573d6000803e3d6000fd5b5050505050565b6001546001600160a01b031681565b610d0c611d77565b6000546001600160a01b03908116911614610d5c576040805162461bcd60e51b81526020600482018190526024820152600080516020611eac833981519152604482015290519081900360640190fd5b60018054600160a01b900460ff1615151415610da95760405162461bcd60e51b8152600401808060200182810382526022815260200180611e8a6022913960400191505060405180910390fd5b806040516020018082805190602001908083835b60208310610ddc5780518252601f199092019160209182019101610dbd565b6001836020036101000a038019825116818451168082178552505050505050905001915050604051602081830303815290604052805190602001206002836040518082805190602001908083835b60208310610e495780518252601f199092019160209182019101610e2a565b6001836020036101000a03801982511681845116808217855250505050505090500191505090815260200160405180910390206040516020018082805460018160011615610100020316600290048015610eda5780601f10610eb8576101008083540402835291820191610eda565b820191906000526020600020905b815481529060010190602001808311610ec6575b5050915050604051602081830303815290604052805190602001201415610f3c576040805162461bcd60e51b815260206004820152601160248201527010985c88185b1c9958591e48195e1a5cdd607a1b604482015290519081900360640190fd5b806002836040518082805190602001908083835b60208310610f6f5780518252601f199092019160209182019101610f50565b51815160209384036101000a60001901801990921691161790529201948552506040519384900381019093208451610fb09591949190910192509050611d7b565b507fac9bc919b1caca6ecaadfbfafbb1794b941be89e2c6fcefde11f0a91efd1d2198282604051808060200180602001838103835285818151815260200191508051906020019080838360005b83811015611015578181015183820152602001610ffd565b50505050905090810190601f1680156110425780820380516001836020036101000a031916815260200191505b50838103825284518152845160209182019186019080838360005b8381101561107557818101518382015260200161105d565b50505050905090810190601f1680156110a25780820380516001836020036101000a031916815260200191505b5094505050505060405180910390a15050565b6110bd611d77565b6000546001600160a01b0390811691161461110d576040805162461bcd60e51b81526020600482018190526024820152600080516020611eac833981519152604482015290519081900360640190fd5b60018054821515600160a01b810260ff60a01b199092169190911790915560408051918252517e642bba6e3f08aa2c941bc293d57dfe61e9c3c1dd1e282c2871af333aa612ab9181900360200190a150565b611167611d77565b6000546001600160a01b039081169116146111b7576040805162461bcd60e51b81526020600482018190526024820152600080516020611eac833981519152604482015290519081900360640190fd5b600080546040516001600160a01b03909116907f8be0079c531659141344cd1fd0a4f28419497f9722a3daafe3b4186f6b6457e0908390a3600080546001600160a01b0319169055565b6000546001600160a01b031690565b600154600160a01b900460ff1681565b611228611d77565b6000546001600160a01b03908116911614611278576040805162461bcd60e51b81526020600482018190526024820152600080516020611eac833981519152604482015290519081900360640190fd5b6001546040805163166a3bfd60e31b81526001600160a01b03858116600483015284151560248301529151919092169163b351dfe891604480830192600092919082900301818387803b1580156112ce57600080fd5b505af11580156112e2573d6000803e3d6000fd5b505050505050565b6112f2611d77565b6000546001600160a01b03908116911614611342576040805162461bcd60e51b81526020600482018190526024820152600080516020611eac833981519152604482015290519081900360640190fd5b806040516020018082805190602001908083835b602083106113755780518252601f199092019160209182019101611356565b6001836020036101000a038019825116818451168082178552505050505050905001915050604051602081830303815290604052805190602001206002836040518082805190602001908083835b602083106113e25780518252601f1990920191602091820191016113c3565b6001836020036101000a038019825116818451168082178552505050505050905001915050908152602001604051809103902060405160200180828054600181600116156101000203166002900480156114735780601f10611451576101008083540402835291820191611473565b820191906000526020600020905b81548152906001019060200180831161145f575b505091505060405160208183030381529060405280519060200120146114d8576040805162461bcd60e51b8152602060048201526015602482015274496e636f7272656374204261722064657461696c7360581b604482015290519081900360640190fd5b826103e81461152e576040805162461bcd60e51b815260206004820152601a60248201527f4275726e20616d6f756e742073686f756c642062652031303030000000000000604482015290519081900360640190fd5b600154604080516370a0823160e01b81523060048201529051670de0b6b3a76400008602926001600160a01b0316916370a08231916024808301926020929190829003018186803b15801561158257600080fd5b505afa158015611596573d6000803e3d6000fd5b505050506040513d60208110156115ac57600080fd5b505110156115f6576040805162461bcd60e51b8152602060048201526012602482015271496e73756666696369656e742046756e647360701b604482015290519081900360640190fd5b60015460408051630852cd8d60e31b8152670de0b6b3a76400008602600482015290516001600160a01b03909216916342966c689160248082019260009290919082900301818387803b15801561164c57600080fd5b505af1158015611660573d6000803e3d6000fd5b505050506002826040518082805190602001908083835b602083106116965780518252601f199092019160209182019101611677565b51815160209384036101000a600019018019909216911617905292019485525060405193849003019092206116cf925090506000611e07565b7f69607ed0b791422b8f2da1c708bea51e66affd56d4511e89fd7d0ed6df7a380b3084670de0b6b3a764000002848460405180856001600160a01b031681526020018481526020018060200180602001838103835285818151815260200191508051906020019080838360005b8381101561175457818101518382015260200161173c565b50505050905090810190601f1680156117815780820380516001836020036101000a031916815260200191505b50838103825284518152845160209182019186019080838360005b838110156117b457818101518382015260200161179c565b50505050905090810190601f1680156117e15780820380516001836020036101000a031916815260200191505b50965050505050505060405180910390a1505050565b6117ff611d77565b6000546001600160a01b0390811691161461184f576040805162461bcd60e51b81526020600482018190526024820152600080516020611eac833981519152604482015290519081900360640190fd5b6001546040805163a9059cbb60e01b81526001600160a01b038581166004830152602482018590529151919092169163a9059cbb9160448083019260209291908290030181600087803b1580156118a557600080fd5b505af11580156118b9573d6000803e3d6000fd5b505050506040513d60208110156118cf57600080fd5b5050604080516001600160a01b03841681526020810183905281517f21901fa892c430ea8bd38b9390225ac8e67eac75ee10ffba16feefc539a288f9929181900390910190a15050565b80516020818301810180516002808352938301948301949094209390528254604080516001831615610100026000190190921693909304601f81018390048302820183019093528281529291908301828280156119b75780601f1061198c576101008083540402835291602001916119b7565b820191906000526020600020905b81548152906001019060200180831161199a57829003601f168201915b505050505081565b6119c7611d77565b6000546001600160a01b03908116911614611a17576040805162461bcd60e51b81526020600482018190526024820152600080516020611eac833981519152604482015290519081900360640190fd5b60018054600160a01b900460ff1615151415611a7a576040805162461bcd60e51b815260206004820181905260248201527f4d616e75616c204261722052656d6f76616c2069732072657374726963746564604482015290519081900360640190fd5b806040516020018082805190602001908083835b60208310611aad5780518252601f199092019160209182019101611a8e565b6001836020036101000a038019825116818451168082178552505050505050905001915050604051602081830303815290604052805190602001206002836040518082805190602001908083835b60208310611b1a5780518252601f199092019160209182019101611afb565b6001836020036101000a03801982511681845116808217855250505050505090500191505090815260200160405180910390206040516020018082805460018160011615610100020316600290048015611bab5780601f10611b89576101008083540402835291820191611bab565b820191906000526020600020905b815481529060010190602001808311611b97575b50509150506040516020818303038152906040528051906020012014611c10576040805162461bcd60e51b8152602060048201526015602482015274496e636f7272656374204261722064657461696c7360581b604482015290519081900360640190fd5b6002826040518082805190602001908083835b60208310611c425780518252601f199092019160209182019101611c23565b51815160209384036101000a60001901801990921691161790529201948552506040519384900301909220611c7b925090506000611e07565b5050565b611c87611d77565b6000546001600160a01b03908116911614611cd7576040805162461bcd60e51b81526020600482018190526024820152600080516020611eac833981519152604482015290519081900360640190fd5b6001600160a01b038116611d1c5760405162461bcd60e51b8152600401808060200182810382526026815260200180611e646026913960400191505060405180910390fd5b600080546040516001600160a01b03808516939216917f8be0079c531659141344cd1fd0a4f28419497f9722a3daafe3b4186f6b6457e091a3600080546001600160a01b0319166001600160a01b0392909216919091179055565b3390565b828054600181600116156101000203166002900490600052602060002090601f016020900481019282611db15760008555611df7565b82601f10611dca57805160ff1916838001178555611df7565b82800160010185558215611df7579182015b82811115611df7578251825591602001919060010190611ddc565b50611e03929150611e4e565b5090565b50805460018160011615610100020316600290046000825580601f10611e2d5750611e4b565b601f016020900490600052602060002090810190611e4b9190611e4e565b50565b5b80821115611e035760008155600101611e4f56fe4f776e61626c653a206e6577206f776e657220697320746865207a65726f20616464726573734d616e75616c2042617220496e73657274696f6e20697320726573747269637465644f776e61626c653a2063616c6c6572206973206e6f7420746865206f776e6572a2646970667358221220a91b254e48467cc9391795faf24f8c4a1cfaf5fee52299914d82a6b34bf1118a64736f6c63430007060033",
  "devdoc": {
    "kind": "dev",
    "methods": {
      "owner()": {
        "details": "Returns the address of the current owner."
      },
      "renounceOwnership()": {
        "details": "Leaves the contract without owner. It will not be possible to call `onlyOwner` functions anymore. Can only be called by the current owner. NOTE: Renouncing ownership will leave the contract without an owner, thereby removing any functionality that is only available to the owner."
      },
      "transferOwnership(address)": {
        "details": "Transfers ownership of the contract to a new account (`newOwner`). Can only be called by the current owner."
      }
    },
    "version": 1
  },
  "userdoc": {
    "kind": "user",
    "methods": {},
    "version": 1
  },
  "storageLayout": {
    "storage": [
      {
        "astId": 30,
        "contract": "contracts/CGOController.sol:CGOController",
        "label": "_owner",
        "offset": 0,
        "slot": "0",
        "type": "t_address"
      },
      {
        "astId": 1183,
        "contract": "contracts/CGOController.sol:CGOController",
        "label": "tokenAddr",
        "offset": 0,
        "slot": "1",
        "type": "t_address"
      },
      {
        "astId": 1186,
        "contract": "contracts/CGOController.sol:CGOController",
        "label": "isEditBarPaused",
        "offset": 20,
        "slot": "1",
        "type": "t_bool"
      },
      {
        "astId": 1190,
        "contract": "contracts/CGOController.sol:CGOController",
        "label": "barNumWarrantNum",
        "offset": 0,
        "slot": "2",
        "type": "t_mapping(t_string_memory_ptr,t_string_storage)"
      }
    ],
    "types": {
      "t_address": {
        "encoding": "inplace",
        "label": "address",
        "numberOfBytes": "20"
      },
      "t_bool": {
        "encoding": "inplace",
        "label": "bool",
        "numberOfBytes": "1"
      },
      "t_mapping(t_string_memory_ptr,t_string_storage)": {
        "encoding": "mapping",
        "key": "t_string_memory_ptr",
        "label": "mapping(string => string)",
        "numberOfBytes": "32",
        "value": "t_string_storage"
      },
      "t_string_memory_ptr": {
        "encoding": "bytes",
        "label": "string",
        "numberOfBytes": "32"
      },
      "t_string_storage": {
        "encoding": "bytes",
        "label": "string",
        "numberOfBytes": "32"
      }
    }
  }
}