{
  "address": "0x9b83680F226295A3D261a913e873B601d6fc6954",
  "abi": [
    {
      "anonymous": false,
      "inputs": [
        {
          "indexed": false,
          "internalType": "string",
          "name": "Bar_Number",
          "type": "string"
        },
        {
          "indexed": false,
          "internalType": "string",
          "name": "Warrant_Number",
          "type": "string"
        }
      ],
      "name": "BarAdded",
      "type": "event"
    },
    {
      "anonymous": false,
      "inputs": [
        {
          "indexed": false,
          "internalType": "address",
          "name": "burn_from",
          "type": "address"
        },
        {
          "indexed": false,
          "internalType": "uint256",
          "name": "amount",
          "type": "uint256"
        },
        {
          "indexed": false,
          "internalType": "string",
          "name": "Bar_Number",
          "type": "string"
        },
        {
          "indexed": false,
          "internalType": "string",
          "name": "Warrant_Number",
          "type": "string"
        }
      ],
      "name": "BarBurn",
      "type": "event"
    },
    {
      "anonymous": false,
      "inputs": [
        {
          "indexed": false,
          "internalType": "address",
          "name": "to",
          "type": "address"
        },
        {
          "indexed": false,
          "internalType": "uint256",
          "name": "amount",
          "type": "uint256"
        },
        {
          "indexed": false,
          "internalType": "string",
          "name": "Bar_Number",
          "type": "string"
        },
        {
          "indexed": false,
          "internalType": "string",
          "name": "Warrant_Number",
          "type": "string"
        }
      ],
      "name": "BarMint",
      "type": "event"
    },
    {
      "anonymous": false,
      "inputs": [
        {
          "indexed": false,
          "internalType": "string",
          "name": "Bar_Number",
          "type": "string"
        },
        {
          "indexed": false,
          "internalType": "string",
          "name": "Warrant_Number",
          "type": "string"
        },
        {
          "indexed": false,
          "internalType": "enum CGOController.txnStatus",
          "name": "status",
          "type": "uint8"
        }
      ],
      "name": "BurnCancelled",
      "type": "event"
    },
    {
      "anonymous": false,
      "inputs": [
        {
          "indexed": false,
          "internalType": "string",
          "name": "Bar_Number",
          "type": "string"
        },
        {
          "indexed": false,
          "internalType": "string",
          "name": "Warrant_Number",
          "type": "string"
        },
        {
          "indexed": false,
          "internalType": "enum CGOController.txnStatus",
          "name": "status",
          "type": "uint8"
        }
      ],
      "name": "BurnInitiated",
      "type": "event"
    },
    {
      "anonymous": false,
      "inputs": [
        {
          "indexed": false,
          "internalType": "bool",
          "name": "status",
          "type": "bool"
        }
      ],
      "name": "EditBarStatusPaused",
      "type": "event"
    },
    {
      "anonymous": false,
      "inputs": [
        {
          "indexed": false,
          "internalType": "string",
          "name": "Bar_Number",
          "type": "string"
        },
        {
          "indexed": false,
          "internalType": "string",
          "name": "Warrant_Number",
          "type": "string"
        },
        {
          "indexed": false,
          "internalType": "enum CGOController.txnStatus",
          "name": "status",
          "type": "uint8"
        }
      ],
      "name": "MintCancelled",
      "type": "event"
    },
    {
      "anonymous": false,
      "inputs": [
        {
          "indexed": false,
          "internalType": "string",
          "name": "Bar_Number",
          "type": "string"
        },
        {
          "indexed": false,
          "internalType": "string",
          "name": "Warrant_Number",
          "type": "string"
        },
        {
          "indexed": false,
          "internalType": "enum CGOController.txnStatus",
          "name": "status",
          "type": "uint8"
        }
      ],
      "name": "MintInitiated",
      "type": "event"
    },
    {
      "anonymous": false,
      "inputs": [
        {
          "indexed": true,
          "internalType": "address",
          "name": "previousOwner",
          "type": "address"
        },
        {
          "indexed": true,
          "internalType": "address",
          "name": "newOwner",
          "type": "address"
        }
      ],
      "name": "OwnershipTransferred",
      "type": "event"
    },
    {
      "anonymous": false,
      "inputs": [
        {
          "indexed": false,
          "internalType": "address",
          "name": "to",
          "type": "address"
        },
        {
          "indexed": false,
          "internalType": "uint256",
          "name": "amount",
          "type": "uint256"
        }
      ],
      "name": "WithdrawFunds",
      "type": "event"
    },
    {
      "inputs": [
        {
          "internalType": "string",
          "name": "Bar_Number",
          "type": "string"
        },
        {
          "internalType": "string",
          "name": "Warrant_Number",
          "type": "string"
        }
      ],
      "name": "addBarNumWarrantNum",
      "outputs": [],
      "stateMutability": "nonpayable",
      "type": "function"
    },
    {
      "inputs": [
        {
          "internalType": "string",
          "name": "",
          "type": "string"
        }
      ],
      "name": "barNumWarrantNum",
      "outputs": [
        {
          "internalType": "string",
          "name": "",
          "type": "string"
        }
      ],
      "stateMutability": "view",
      "type": "function"
    },
    {
      "inputs": [
        {
          "internalType": "address",
          "name": "user",
          "type": "address"
        },
        {
          "internalType": "bool",
          "name": "value",
          "type": "bool"
        }
      ],
      "name": "blacklistUpdate",
      "outputs": [],
      "stateMutability": "nonpayable",
      "type": "function"
    },
    {
      "inputs": [
        {
          "internalType": "uint256",
          "name": "amount",
          "type": "uint256"
        },
        {
          "internalType": "string",
          "name": "Bar_Number",
          "type": "string"
        },
        {
          "internalType": "string",
          "name": "Warrant_Number",
          "type": "string"
        }
      ],
      "name": "burn",
      "outputs": [],
      "stateMutability": "nonpayable",
      "type": "function"
    },
    {
      "inputs": [
        {
          "internalType": "string",
          "name": "Bar_Number",
          "type": "string"
        },
        {
          "internalType": "string",
          "name": "Warrant_Number",
          "type": "string"
        }
      ],
      "name": "cancelInitiateBurn",
      "outputs": [],
      "stateMutability": "nonpayable",
      "type": "function"
    },
    {
      "inputs": [
        {
          "internalType": "string",
          "name": "Bar_Number",
          "type": "string"
        },
        {
          "internalType": "string",
          "name": "Warrant_Number",
          "type": "string"
        }
      ],
      "name": "cancelInitiateMint",
      "outputs": [],
      "stateMutability": "nonpayable",
      "type": "function"
    },
    {
      "inputs": [],
      "name": "executorAddr",
      "outputs": [
        {
          "internalType": "address",
          "name": "",
          "type": "address"
        }
      ],
      "stateMutability": "view",
      "type": "function"
    },
    {
      "inputs": [
        {
          "internalType": "address",
          "name": "_tokenAddr",
          "type": "address"
        }
      ],
      "name": "initialize",
      "outputs": [],
      "stateMutability": "nonpayable",
      "type": "function"
    },
    {
      "inputs": [
        {
          "internalType": "string",
          "name": "Bar_Number",
          "type": "string"
        },
        {
          "internalType": "string",
          "name": "Warrant_Number",
          "type": "string"
        }
      ],
      "name": "initiateBurn",
      "outputs": [],
      "stateMutability": "nonpayable",
      "type": "function"
    },
    {
      "inputs": [
        {
          "internalType": "string",
          "name": "Bar_Number",
          "type": "string"
        },
        {
          "internalType": "string",
          "name": "Warrant_Number",
          "type": "string"
        }
      ],
      "name": "initiateMint",
      "outputs": [],
      "stateMutability": "nonpayable",
      "type": "function"
    },
    {
      "inputs": [],
      "name": "initiatorAddr",
      "outputs": [
        {
          "internalType": "address",
          "name": "",
          "type": "address"
        }
      ],
      "stateMutability": "view",
      "type": "function"
    },
    {
      "inputs": [],
      "name": "isEditBarPaused",
      "outputs": [
        {
          "internalType": "bool",
          "name": "",
          "type": "bool"
        }
      ],
      "stateMutability": "view",
      "type": "function"
    },
    {
      "inputs": [
        {
          "internalType": "address",
          "name": "to",
          "type": "address"
        },
        {
          "internalType": "uint256",
          "name": "amount",
          "type": "uint256"
        },
        {
          "internalType": "string",
          "name": "Bar_Number",
          "type": "string"
        },
        {
          "internalType": "string",
          "name": "Warrant_Number",
          "type": "string"
        }
      ],
      "name": "mint",
      "outputs": [],
      "stateMutability": "nonpayable",
      "type": "function"
    },
    {
      "inputs": [],
      "name": "owner",
      "outputs": [
        {
          "internalType": "address",
          "name": "",
          "type": "address"
        }
      ],
      "stateMutability": "view",
      "type": "function"
    },
    {
      "inputs": [
        {
          "internalType": "bool",
          "name": "status",
          "type": "bool"
        }
      ],
      "name": "pauseEditBar",
      "outputs": [],
      "stateMutability": "nonpayable",
      "type": "function"
    },
    {
      "inputs": [
        {
          "internalType": "string",
          "name": "Bar_Number",
          "type": "string"
        },
        {
          "internalType": "string",
          "name": "Warrant_Number",
          "type": "string"
        }
      ],
      "name": "removeBarNumWarrantNum",
      "outputs": [],
      "stateMutability": "nonpayable",
      "type": "function"
    },
    {
      "inputs": [],
      "name": "renounceOwnership",
      "outputs": [],
      "stateMutability": "nonpayable",
      "type": "function"
    },
    {
      "inputs": [
        {
          "internalType": "address",
          "name": "_executorAddr",
          "type": "address"
        }
      ],
      "name": "setExecutorAddr",
      "outputs": [],
      "stateMutability": "nonpayable",
      "type": "function"
    },
    {
      "inputs": [
        {
          "internalType": "address",
          "name": "_initiatorAddr",
          "type": "address"
        }
      ],
      "name": "setInitiatorAddr",
      "outputs": [],
      "stateMutability": "nonpayable",
      "type": "function"
    },
    {
      "inputs": [],
      "name": "tokenAddr",
      "outputs": [
        {
          "internalType": "address",
          "name": "",
          "type": "address"
        }
      ],
      "stateMutability": "view",
      "type": "function"
    },
    {
      "inputs": [
        {
          "internalType": "address",
          "name": "newOwner",
          "type": "address"
        }
      ],
      "name": "transferCgoOwnership",
      "outputs": [],
      "stateMutability": "nonpayable",
      "type": "function"
    },
    {
      "inputs": [
        {
          "internalType": "address",
          "name": "newOwner",
          "type": "address"
        }
      ],
      "name": "transferOwnership",
      "outputs": [],
      "stateMutability": "nonpayable",
      "type": "function"
    },
    {
      "inputs": [
        {
          "internalType": "string",
          "name": "",
          "type": "string"
        },
        {
          "internalType": "string",
          "name": "",
          "type": "string"
        }
      ],
      "name": "txnStatusRecord",
      "outputs": [
        {
          "internalType": "enum CGOController.txnStatus",
          "name": "",
          "type": "uint8"
        }
      ],
      "stateMutability": "view",
      "type": "function"
    },
    {
      "inputs": [
        {
          "internalType": "address",
          "name": "to",
          "type": "address"
        },
        {
          "internalType": "uint256",
          "name": "amount",
          "type": "uint256"
        }
      ],
      "name": "withdrawFunds",
      "outputs": [],
      "stateMutability": "nonpayable",
      "type": "function"
    }
  ],
  "transactionHash": "0xf9a8afd60842cd8f34888b056a0c488b97abc5127127917ec662dbc1e1c8b14b",
  "args": [],
  "numDeployments": 1,
  "solcInputHash": "344e374960c65a8c6fc85b02afac26f8",
  "bytecode": "0x60806040526067805460ff60a01b1916905534801561001d57600080fd5b506149b48061002d6000396000f3fe608060405234801561001057600080fd5b50600436106101585760003560e01c8063715018a6116100c3578063ba211db01161007c578063ba211db014610ad3578063c107532914610c03578063c4d66de814610c2f578063cc49109a14610c55578063d12554d914610d6e578063f2fde38b14610e9757610158565b8063715018a614610a69578063760fa67f14610a715780638da5cb5b14610a79578063a71ecc6114610a81578063b00455c114610a9d578063b351dfe814610aa557610158565b8063500e46ab11610115578063500e46ab146106645780635eacf7281461068a5780635fbe4d1d146107d45780636037749d146107f8578063686fa7d6146109215780636c7ff3bb14610a4a57610158565b8063055e29051461015d5780630850c0ac14610288578063236e2f40146103b15780632fb102cf146103d7578063394d5c93146105155780634a6816731461063e575b600080fd5b6102866004803603604081101561017357600080fd5b810190602081018135600160201b81111561018d57600080fd5b82018360208201111561019f57600080fd5b803590602001918460018302840111600160201b831117156101c057600080fd5b91908080601f0160208091040260200160405190810160405280939291908181526020018383808284376000920191909152509295949360208101935035915050600160201b81111561021257600080fd5b82018360208201111561022457600080fd5b803590602001918460018302840111600160201b8311171561024557600080fd5b91908080601f016020809104026020016040519081016040528093929190818152602001838380828437600092019190915250929550610ebd945050505050565b005b6102866004803603604081101561029e57600080fd5b810190602081018135600160201b8111156102b857600080fd5b8201836020820111156102ca57600080fd5b803590602001918460018302840111600160201b831117156102eb57600080fd5b91908080601f0160208091040260200160405190810160405280939291908181526020018383808284376000920191909152509295949360208101935035915050600160201b81111561033d57600080fd5b82018360208201111561034f57600080fd5b803590602001918460018302840111600160201b8311171561037057600080fd5b91908080601f016020809104026020016040519081016040528093929190818152602001838380828437600092019190915250929550611588945050505050565b610286600480360360208110156103c757600080fd5b50356001600160a01b0316611b3b565b610286600480360360808110156103ed57600080fd5b6001600160a01b0382351691602081013591810190606081016040820135600160201b81111561041c57600080fd5b82018360208201111561042e57600080fd5b803590602001918460018302840111600160201b8311171561044f57600080fd5b91908080601f0160208091040260200160405190810160405280939291908181526020018383808284376000920191909152509295949360208101935035915050600160201b8111156104a157600080fd5b8201836020820111156104b357600080fd5b803590602001918460018302840111600160201b831117156104d457600080fd5b91908080601f016020809104026020016040519081016040528093929190818152602001838380828437600092019190915250929550611bb5945050505050565b6102866004803603604081101561052b57600080fd5b810190602081018135600160201b81111561054557600080fd5b82018360208201111561055757600080fd5b803590602001918460018302840111600160201b8311171561057857600080fd5b91908080601f0160208091040260200160405190810160405280939291908181526020018383808284376000920191909152509295949360208101935035915050600160201b8111156105ca57600080fd5b8201836020820111156105dc57600080fd5b803590602001918460018302840111600160201b831117156105fd57600080fd5b91908080601f0160208091040260200160405190810160405280939291908181526020018383808284376000920191909152509295506121dd945050505050565b6102866004803603602081101561065457600080fd5b50356001600160a01b03166127ce565b6102866004803603602081101561067a57600080fd5b50356001600160a01b031661288f565b6107b3600480360360408110156106a057600080fd5b810190602081018135600160201b8111156106ba57600080fd5b8201836020820111156106cc57600080fd5b803590602001918460018302840111600160201b831117156106ed57600080fd5b91908080601f0160208091040260200160405190810160405280939291908181526020018383808284376000920191909152509295949360208101935035915050600160201b81111561073f57600080fd5b82018360208201111561075157600080fd5b803590602001918460018302840111600160201b8311171561077257600080fd5b91908080601f016020809104026020016040519081016040528093929190818152602001838380828437600092019190915250929550612909945050505050565b604051808260048111156107c357fe5b815260200191505060405180910390f35b6107dc612946565b604080516001600160a01b039092168252519081900360200190f35b6102866004803603604081101561080e57600080fd5b810190602081018135600160201b81111561082857600080fd5b82018360208201111561083a57600080fd5b803590602001918460018302840111600160201b8311171561085b57600080fd5b91908080601f0160208091040260200160405190810160405280939291908181526020018383808284376000920191909152509295949360208101935035915050600160201b8111156108ad57600080fd5b8201836020820111156108bf57600080fd5b803590602001918460018302840111600160201b831117156108e057600080fd5b91908080601f016020809104026020016040519081016040528093929190818152602001838380828437600092019190915250929550612955945050505050565b6102866004803603604081101561093757600080fd5b810190602081018135600160201b81111561095157600080fd5b82018360208201111561096357600080fd5b803590602001918460018302840111600160201b8311171561098457600080fd5b91908080601f0160208091040260200160405190810160405280939291908181526020018383808284376000920191909152509295949360208101935035915050600160201b8111156109d657600080fd5b8201836020820111156109e857600080fd5b803590602001918460018302840111600160201b83111715610a0957600080fd5b91908080601f016020809104026020016040519081016040528093929190818152602001838380828437600092019190915250929550612de0945050505050565b61028660048036036020811015610a6057600080fd5b503515156134af565b610286613559565b6107dc6135fb565b6107dc61360a565b610a89613619565b604080519115158252519081900360200190f35b6107dc613629565b61028660048036036040811015610abb57600080fd5b506001600160a01b0381351690602001351515613638565b61028660048036036060811015610ae957600080fd5b81359190810190604081016020820135600160201b811115610b0a57600080fd5b820183602082011115610b1c57600080fd5b803590602001918460018302840111600160201b83111715610b3d57600080fd5b91908080601f0160208091040260200160405190810160405280939291908181526020018383808284376000920191909152509295949360208101935035915050600160201b811115610b8f57600080fd5b820183602082011115610ba157600080fd5b803590602001918460018302840111600160201b83111715610bc257600080fd5b91908080601f016020809104026020016040519081016040528093929190818152602001838380828437600092019190915250929550613702945050505050565b61028660048036036040811015610c1957600080fd5b506001600160a01b038135169060200135613de8565b61028660048036036020811015610c4557600080fd5b50356001600160a01b0316613f0a565b610cf960048036036020811015610c6b57600080fd5b810190602081018135600160201b811115610c8557600080fd5b820183602082011115610c9757600080fd5b803590602001918460018302840111600160201b83111715610cb857600080fd5b91908080601f016020809104026020016040519081016040528093929190818152602001838380828437600092019190915250929550613fde945050505050565b6040805160208082528351818301528351919283929083019185019080838360005b83811015610d33578181015183820152602001610d1b565b50505050905090810190601f168015610d605780820380516001836020036101000a031916815260200191505b509250505060405180910390f35b61028660048036036040811015610d8457600080fd5b810190602081018135600160201b811115610d9e57600080fd5b820183602082011115610db057600080fd5b803590602001918460018302840111600160201b83111715610dd157600080fd5b91908080601f0160208091040260200160405190810160405280939291908181526020018383808284376000920191909152509295949360208101935035915050600160201b811115610e2357600080fd5b820183602082011115610e3557600080fd5b803590602001918460018302840111600160201b83111715610e5657600080fd5b91908080601f016020809104026020016040519081016040528093929190818152602001838380828437600092019190915250929550614085945050505050565b61028660048036036020811015610ead57600080fd5b50356001600160a01b0316614409565b6067546001600160a01b03163314610f065760405162461bcd60e51b81526004018080602001828103825260248152602001806148e86024913960400191505060405180910390fd5b60036069836040518082805190602001908083835b60208310610f3a5780518252601f199092019160209182019101610f1b565b51815160209384036101000a6000190180199092169116179052920194855250604051938490038101842086519094879450925082918401908083835b60208310610f965780518252601f199092019160209182019101610f77565b51815160209384036101000a600019018019909216911617905292019485525060405193849003019092205460ff169150506004811115610fd357fe5b14806110a9575060046069836040518082805190602001908083835b6020831061100e5780518252601f199092019160209182019101610fef565b51815160209384036101000a6000190180199092169116179052920194855250604051938490038101842086519094879450925082918401908083835b6020831061106a5780518252601f19909201916020918201910161104b565b51815160209384036101000a600019018019909216911617905292019485525060405193849003019092205460ff1691505060048111156110a757fe5b145b156110fb576040805162461bcd60e51b815260206004820152601f60248201527f4275726e207265717565737420657869737420666f7220746869732042617200604482015290519081900360640190fd5b806040516020018082805190602001908083835b6020831061112e5780518252601f19909201916020918201910161110f565b6001836020036101000a038019825116818451168082178552505050505050905001915050604051602081830303815290604052805190602001206068836040518082805190602001908083835b6020831061119b5780518252601f19909201916020918201910161117c565b6001836020036101000a0380198251168184511680821785525050505050509050019150509081526020016040518091039020604051602001808280546001816001161561010002031660029004801561122c5780601f1061120a57610100808354040283529182019161122c565b820191906000526020600020905b815481529060010190602001808311611218575b505091505060405160208183030381529060405280519060200120141561128e576040805162461bcd60e51b815260206004820152601160248201527010985c88185b1c9958591e48195e1a5cdd607a1b604482015290519081900360640190fd5b60016069836040518082805190602001908083835b602083106112c25780518252601f1990920191602091820191016112a3565b51815160209384036101000a6000190180199092169116179052920194855250604051938490038101842086519094879450925082918401908083835b6020831061131e5780518252601f1990920191602091820191016112ff565b51815160209384036101000a600019018019909216911617905292019485525060405193849003019092205460ff16915050600481111561135b57fe5b146113975760405162461bcd60e51b81526004018080602001828103825260218152602001806148a66021913960400191505060405180910390fd5b60006069836040518082805190602001908083835b602083106113cb5780518252601f1990920191602091820191016113ac565b51815160209384036101000a6000190180199092169116179052920194855250604051938490038101842086519094879450925082918401908083835b602083106114275780518252601f199092019160209182019101611408565b51815160209384036101000a60001901801990921691161790529201948552506040519384900301909220805490925060ff19169050600183600481111561146b57fe5b02179055507f148baf8fdfa312bf20ec878dd0ebe643ee8b3d92a777405f7b1edf8ea01895c7828260006040518080602001806020018460048111156114ad57fe5b8152602001838103835286818151815260200191508051906020019080838360005b838110156114e75781810151838201526020016114cf565b50505050905090810190601f1680156115145780820380516001836020036101000a031916815260200191505b50838103825285518152855160209182019187019080838360005b8381101561154757818101518382015260200161152f565b50505050905090810190601f1680156115745780820380516001836020036101000a031916815260200191505b509550505050505060405180910390a15050565b6067546001600160a01b031633146115d15760405162461bcd60e51b81526004018080602001828103825260248152602001806148e86024913960400191505060405180910390fd5b606554604080516370a0823160e01b81523060048201529051683635c9adc5dea00000926001600160a01b0316916370a08231916024808301926020929190829003018186803b15801561162457600080fd5b505afa158015611638573d6000803e3d6000fd5b505050506040513d602081101561164e57600080fd5b5051101561169e576040805162461bcd60e51b8152602060048201526018602482015277496e73756666696369656e742043474f2042616c616e636560401b604482015290519081900360640190fd5b60036069836040518082805190602001908083835b602083106116d25780518252601f1990920191602091820191016116b3565b51815160209384036101000a6000190180199092169116179052920194855250604051938490038101842086519094879450925082918401908083835b6020831061172e5780518252601f19909201916020918201910161170f565b51815160209384036101000a600019018019909216911617905292019485525060405193849003019092205460ff16915050600481111561176b57fe5b14158015611844575060046069836040518082805190602001908083835b602083106117a85780518252601f199092019160209182019101611789565b51815160209384036101000a6000190180199092169116179052920194855250604051938490038101842086519094879450925082918401908083835b602083106118045780518252601f1990920191602091820191016117e5565b51815160209384036101000a600019018019909216911617905292019485525060405193849003019092205460ff16915050600481111561184157fe5b14155b1561188f576040805162461bcd60e51b8152602060048201526016602482015275109d5c9b881c995c5d595cdd081b9bdd08195e1a5cdd60521b604482015290519081900360640190fd5b806040516020018082805190602001908083835b602083106118c25780518252601f1990920191602091820191016118a3565b6001836020036101000a038019825116818451168082178552505050505050905001915050604051602081830303815290604052805190602001206068836040518082805190602001908083835b6020831061192f5780518252601f199092019160209182019101611910565b6001836020036101000a038019825116818451168082178552505050505050905001915050908152602001604051809103902060405160200180828054600181600116156101000203166002900480156119c05780601f1061199e5761010080835404028352918201916119c0565b820191906000526020600020905b8154815290600101906020018083116119ac575b50509150506040516020818303038152906040528051906020012014611a25576040805162461bcd60e51b8152602060048201526015602482015274496e636f7272656374204261722064657461696c7360581b604482015290519081900360640190fd5b60026069836040518082805190602001908083835b60208310611a595780518252601f199092019160209182019101611a3a565b51815160209384036101000a6000190180199092169116179052920194855250604051938490038101842086519094879450925082918401908083835b60208310611ab55780518252601f199092019160209182019101611a96565b51815160209384036101000a60001901801990921691161790529201948552506040519384900301909220805490925060ff191690506001836004811115611af957fe5b02179055507ffdf2db319bfdfcf7897b86008483aacc62583ee933c1f1db544e41846ccbf8e3828260026040518080602001806020018460048111156114ad57fe5b611b43614502565b6033546001600160a01b03908116911614611b93576040805162461bcd60e51b8152602060048201819052602482015260008051602061495f833981519152604482015290519081900360640190fd5b606680546001600160a01b0319166001600160a01b0392909216919091179055565b6067546001600160a01b03163314611bfe5760405162461bcd60e51b81526004018080602001828103825260248152602001806148e86024913960400191505060405180910390fd5b606554604080516340c10f1960e01b81526001600160a01b038781166004830152670de0b6b3a764000087026024830152915191909216916340c10f1991604480830192600092919082900301818387803b158015611c5c57600080fd5b505af1158015611c70573d6000803e3d6000fd5b50505050806040516020018082805190602001908083835b60208310611ca75780518252601f199092019160209182019101611c88565b6001836020036101000a038019825116818451168082178552505050505050905001915050604051602081830303815290604052805190602001206068836040518082805190602001908083835b60208310611d145780518252601f199092019160209182019101611cf5565b6001836020036101000a03801982511681845116808217855250505050505090500191505090815260200160405180910390206040516020018082805460018160011615610100020316600290048015611da55780601f10611d83576101008083540402835291820191611da5565b820191906000526020600020905b815481529060010190602001808311611d91575b5050915050604051602081830303815290604052805190602001201415611e07576040805162461bcd60e51b815260206004820152601160248201527010985c88185b1c9958591e48195e1a5cdd607a1b604482015290519081900360640190fd5b60016069836040518082805190602001908083835b60208310611e3b5780518252601f199092019160209182019101611e1c565b51815160209384036101000a6000190180199092169116179052920194855250604051938490038101842086519094879450925082918401908083835b60208310611e975780518252601f199092019160209182019101611e78565b51815160209384036101000a600019018019909216911617905292019485525060405193849003019092205460ff169150506004811115611ed457fe5b14611f105760405162461bcd60e51b81526004018080602001828103825260218152602001806148a66021913960400191505060405180910390fd5b826103e814611f66576040805162461bcd60e51b815260206004820152601a60248201527f4d696e7420616d6f756e742073686f756c642062652031303030000000000000604482015290519081900360640190fd5b806068836040518082805190602001908083835b60208310611f995780518252601f199092019160209182019101611f7a565b51815160209384036101000a60001901801990921691161790529201948552506040519384900381019093208451611fda9591949190910192509050614757565b5060026069836040518082805190602001908083835b6020831061200f5780518252601f199092019160209182019101611ff0565b51815160209384036101000a6000190180199092169116179052920194855250604051938490038101842086519094879450925082918401908083835b6020831061206b5780518252601f19909201916020918201910161204c565b51815160209384036101000a60001901801990921691161790529201948552506040519384900301909220805490925060ff1916905060018360048111156120af57fe5b02179055507f6c5141baea3136c0a6e98d38bfa1d3f439b831aac09095817ef594d75231ed208484670de0b6b3a764000002848460405180856001600160a01b031681526020018481526020018060200180602001838103835285818151815260200191508051906020019080838360005b83811015612139578181015183820152602001612121565b50505050905090810190601f1680156121665780820380516001836020036101000a031916815260200191505b50838103825284518152845160209182019186019080838360005b83811015612199578181015183820152602001612181565b50505050905090810190601f1680156121c65780820380516001836020036101000a031916815260200191505b50965050505050505060405180910390a150505050565b6066546001600160a01b031633146122265760405162461bcd60e51b81526004018080602001828103825260258152602001806148396025913960400191505060405180910390fd5b60036069836040518082805190602001908083835b6020831061225a5780518252601f19909201916020918201910161223b565b51815160209384036101000a6000190180199092169116179052920194855250604051938490038101842086519094879450925082918401908083835b602083106122b65780518252601f199092019160209182019101612297565b51815160209384036101000a600019018019909216911617905292019485525060405193849003019092205460ff1691505060048111156122f357fe5b14806123c9575060046069836040518082805190602001908083835b6020831061232e5780518252601f19909201916020918201910161230f565b51815160209384036101000a6000190180199092169116179052920194855250604051938490038101842086519094879450925082918401908083835b6020831061238a5780518252601f19909201916020918201910161236b565b51815160209384036101000a600019018019909216911617905292019485525060405193849003019092205460ff1691505060048111156123c757fe5b145b1561241b576040805162461bcd60e51b815260206004820152601f60248201527f4275726e207265717565737420657869737420666f7220746869732042617200604482015290519081900360640190fd5b806040516020018082805190602001908083835b6020831061244e5780518252601f19909201916020918201910161242f565b6001836020036101000a038019825116818451168082178552505050505050905001915050604051602081830303815290604052805190602001206068836040518082805190602001908083835b602083106124bb5780518252601f19909201916020918201910161249c565b6001836020036101000a0380198251168184511680821785525050505050509050019150509081526020016040518091039020604051602001808280546001816001161561010002031660029004801561254c5780601f1061252a57610100808354040283529182019161254c565b820191906000526020600020905b815481529060010190602001808311612538575b50509150506040516020818303038152906040528051906020012014156125ae576040805162461bcd60e51b815260206004820152601160248201527010985c88185b1c9958591e48195e1a5cdd607a1b604482015290519081900360640190fd5b60016069836040518082805190602001908083835b602083106125e25780518252601f1990920191602091820191016125c3565b51815160209384036101000a6000190180199092169116179052920194855250604051938490038101842086519094879450925082918401908083835b6020831061263e5780518252601f19909201916020918201910161261f565b51815160209384036101000a600019018019909216911617905292019485525060405193849003019092205460ff16915050600481111561267b57fe5b14156126b85760405162461bcd60e51b815260040180806020018281038252602581526020018061490c6025913960400191505060405180910390fd5b60016069836040518082805190602001908083835b602083106126ec5780518252601f1990920191602091820191016126cd565b51815160209384036101000a6000190180199092169116179052920194855250604051938490038101842086519094879450925082918401908083835b602083106127485780518252601f199092019160209182019101612729565b51815160209384036101000a60001901801990921691161790529201948552506040519384900301909220805490925060ff19169050600183600481111561278c57fe5b02179055507f414a5a1d8ed4fc86e0618577c5ae5de37aee0d3c581567b3832f802f29142b41828260016040518080602001806020018460048111156114ad57fe5b6127d6614502565b6033546001600160a01b03908116911614612826576040805162461bcd60e51b8152602060048201819052602482015260008051602061495f833981519152604482015290519081900360640190fd5b6065546040805163f2fde38b60e01b81526001600160a01b0384811660048301529151919092169163f2fde38b91602480830192600092919082900301818387803b15801561287457600080fd5b505af1158015612888573d6000803e3d6000fd5b5050505050565b612897614502565b6033546001600160a01b039081169116146128e7576040805162461bcd60e51b8152602060048201819052602482015260008051602061495f833981519152604482015290519081900360640190fd5b606780546001600160a01b0319166001600160a01b0392909216919091179055565b8151602081840181018051606982529282019482019490942091909352815180830184018051928152908401929093019190912091525460ff1681565b6065546001600160a01b031681565b61295d614502565b6033546001600160a01b039081169116146129ad576040805162461bcd60e51b8152602060048201819052602482015260008051602061495f833981519152604482015290519081900360640190fd5b606754600160a01b900460ff161515600114156129fb5760405162461bcd60e51b81526004018080602001828103825260228152602001806148846022913960400191505060405180910390fd5b806040516020018082805190602001908083835b60208310612a2e5780518252601f199092019160209182019101612a0f565b6001836020036101000a038019825116818451168082178552505050505050905001915050604051602081830303815290604052805190602001206068836040518082805190602001908083835b60208310612a9b5780518252601f199092019160209182019101612a7c565b6001836020036101000a03801982511681845116808217855250505050505090500191505090815260200160405180910390206040516020018082805460018160011615610100020316600290048015612b2c5780601f10612b0a576101008083540402835291820191612b2c565b820191906000526020600020905b815481529060010190602001808311612b18575b5050915050604051602081830303815290604052805190602001201415612b8e576040805162461bcd60e51b815260206004820152601160248201527010985c88185b1c9958591e48195e1a5cdd607a1b604482015290519081900360640190fd5b806068836040518082805190602001908083835b60208310612bc15780518252601f199092019160209182019101612ba2565b51815160209384036101000a60001901801990921691161790529201948552506040519384900381019093208451612c029591949190910192509050614757565b5060026069836040518082805190602001908083835b60208310612c375780518252601f199092019160209182019101612c18565b51815160209384036101000a6000190180199092169116179052920194855250604051938490038101842086519094879450925082918401908083835b60208310612c935780518252601f199092019160209182019101612c74565b51815160209384036101000a60001901801990921691161790529201948552506040519384900301909220805490925060ff191690506001836004811115612cd757fe5b02179055507fac9bc919b1caca6ecaadfbfafbb1794b941be89e2c6fcefde11f0a91efd1d2198282604051808060200180602001838103835285818151815260200191508051906020019080838360005b83811015612d40578181015183820152602001612d28565b50505050905090810190601f168015612d6d5780820380516001836020036101000a031916815260200191505b50838103825284518152845160209182019186019080838360005b83811015612da0578181015183820152602001612d88565b50505050905090810190601f168015612dcd5780820380516001836020036101000a031916815260200191505b5094505050505060405180910390a15050565b6066546001600160a01b03163314612e295760405162461bcd60e51b81526004018080602001828103825260258152602001806148396025913960400191505060405180910390fd5b606554604080516370a0823160e01b81523060048201529051683635c9adc5dea00000926001600160a01b0316916370a08231916024808301926020929190829003018186803b158015612e7c57600080fd5b505afa158015612e90573d6000803e3d6000fd5b505050506040513d6020811015612ea657600080fd5b50511015612ef6576040805162461bcd60e51b8152602060048201526018602482015277496e73756666696369656e742043474f2042616c616e636560401b604482015290519081900360640190fd5b60036069836040518082805190602001908083835b60208310612f2a5780518252601f199092019160209182019101612f0b565b51815160209384036101000a6000190180199092169116179052920194855250604051938490038101842086519094879450925082918401908083835b60208310612f865780518252601f199092019160209182019101612f67565b51815160209384036101000a600019018019909216911617905292019485525060405193849003019092205460ff169150506004811115612fc357fe5b1480613099575060046069836040518082805190602001908083835b60208310612ffe5780518252601f199092019160209182019101612fdf565b51815160209384036101000a6000190180199092169116179052920194855250604051938490038101842086519094879450925082918401908083835b6020831061305a5780518252601f19909201916020918201910161303b565b51815160209384036101000a600019018019909216911617905292019485525060405193849003019092205460ff16915050600481111561309757fe5b145b156130eb576040805162461bcd60e51b815260206004820152601a60248201527f4275726e207265717565737420616c7265616479206578697374000000000000604482015290519081900360640190fd5b806040516020018082805190602001908083835b6020831061311e5780518252601f1990920191602091820191016130ff565b6001836020036101000a038019825116818451168082178552505050505050905001915050604051602081830303815290604052805190602001206068836040518082805190602001908083835b6020831061318b5780518252601f19909201916020918201910161316c565b6001836020036101000a0380198251168184511680821785525050505050509050019150509081526020016040518091039020604051602001808280546001816001161561010002031660029004801561321c5780601f106131fa57610100808354040283529182019161321c565b820191906000526020600020905b815481529060010190602001808311613208575b50509150506040516020818303038152906040528051906020012014613281576040805162461bcd60e51b8152602060048201526015602482015274496e636f7272656374204261722064657461696c7360581b604482015290519081900360640190fd5b60026069836040518082805190602001908083835b602083106132b55780518252601f199092019160209182019101613296565b51815160209384036101000a6000190180199092169116179052920194855250604051938490038101842086519094879450925082918401908083835b602083106133115780518252601f1990920191602091820191016132f2565b51815160209384036101000a600019018019909216911617905292019485525060405193849003019092205460ff16915050600481111561334e57fe5b14613399576040805162461bcd60e51b8152602060048201526016602482015275135a5b9d081c995c5d595cdd081b9bdd08195e1a5cdd60521b604482015290519081900360640190fd5b60036069836040518082805190602001908083835b602083106133cd5780518252601f1990920191602091820191016133ae565b51815160209384036101000a6000190180199092169116179052920194855250604051938490038101842086519094879450925082918401908083835b602083106134295780518252601f19909201916020918201910161340a565b51815160209384036101000a60001901801990921691161790529201948552506040519384900301909220805490925060ff19169050600183600481111561346d57fe5b02179055507f958e890dc745eff10f691e6643bf164523f5d2347f1824c93258e4150bc408a7828260036040518080602001806020018460048111156114ad57fe5b6134b7614502565b6033546001600160a01b03908116911614613507576040805162461bcd60e51b8152602060048201819052602482015260008051602061495f833981519152604482015290519081900360640190fd5b60678054821515600160a01b810260ff60a01b199092169190911790915560408051918252517e642bba6e3f08aa2c941bc293d57dfe61e9c3c1dd1e282c2871af333aa612ab9181900360200190a150565b613561614502565b6033546001600160a01b039081169116146135b1576040805162461bcd60e51b8152602060048201819052602482015260008051602061495f833981519152604482015290519081900360640190fd5b6033546040516000916001600160a01b0316907f8be0079c531659141344cd1fd0a4f28419497f9722a3daafe3b4186f6b6457e0908390a3603380546001600160a01b0319169055565b6067546001600160a01b031681565b6033546001600160a01b031690565b606754600160a01b900460ff1681565b6066546001600160a01b031681565b613640614502565b6033546001600160a01b03908116911614613690576040805162461bcd60e51b8152602060048201819052602482015260008051602061495f833981519152604482015290519081900360640190fd5b6065546040805163166a3bfd60e31b81526001600160a01b03858116600483015284151560248301529151919092169163b351dfe891604480830192600092919082900301818387803b1580156136e657600080fd5b505af11580156136fa573d6000803e3d6000fd5b505050505050565b6067546001600160a01b0316331461374b5760405162461bcd60e51b81526004018080602001828103825260248152602001806148e86024913960400191505060405180910390fd5b806040516020018082805190602001908083835b6020831061377e5780518252601f19909201916020918201910161375f565b6001836020036101000a038019825116818451168082178552505050505050905001915050604051602081830303815290604052805190602001206068836040518082805190602001908083835b602083106137eb5780518252601f1990920191602091820191016137cc565b6001836020036101000a0380198251168184511680821785525050505050509050019150509081526020016040518091039020604051602001808280546001816001161561010002031660029004801561387c5780601f1061385a57610100808354040283529182019161387c565b820191906000526020600020905b815481529060010190602001808311613868575b505091505060405160208183030381529060405280519060200120146138e1576040805162461bcd60e51b8152602060048201526015602482015274496e636f7272656374204261722064657461696c7360581b604482015290519081900360640190fd5b60036069836040518082805190602001908083835b602083106139155780518252601f1990920191602091820191016138f6565b51815160209384036101000a6000190180199092169116179052920194855250604051938490038101842086519094879450925082918401908083835b602083106139715780518252601f199092019160209182019101613952565b51815160209384036101000a600019018019909216911617905292019485525060405193849003019092205460ff1691505060048111156139ae57fe5b146139ea5760405162461bcd60e51b81526004018080602001828103825260218152602001806148c76021913960400191505060405180910390fd5b826103e814613a40576040805162461bcd60e51b815260206004820152601a60248201527f4275726e20616d6f756e742073686f756c642062652031303030000000000000604482015290519081900360640190fd5b606554604080516370a0823160e01b81523060048201529051670de0b6b3a76400008602926001600160a01b0316916370a08231916024808301926020929190829003018186803b158015613a9457600080fd5b505afa158015613aa8573d6000803e3d6000fd5b505050506040513d6020811015613abe57600080fd5b50511015613b0e576040805162461bcd60e51b8152602060048201526018602482015277496e73756666696369656e742043474f2042616c616e636560401b604482015290519081900360640190fd5b60655460408051630852cd8d60e31b8152670de0b6b3a76400008602600482015290516001600160a01b03909216916342966c689160248082019260009290919082900301818387803b158015613b6457600080fd5b505af1158015613b78573d6000803e3d6000fd5b505050506068826040518082805190602001908083835b60208310613bae5780518252601f199092019160209182019101613b8f565b51815160209384036101000a60001901801990921691161790529201948552506040519384900301909220613be79250905060006147e3565b60046069836040518082805190602001908083835b60208310613c1b5780518252601f199092019160209182019101613bfc565b51815160209384036101000a6000190180199092169116179052920194855250604051938490038101842086519094879450925082918401908083835b60208310613c775780518252601f199092019160209182019101613c58565b51815160209384036101000a60001901801990921691161790529201948552506040519384900301909220805490925060ff191690506001836004811115613cbb57fe5b02179055507f69607ed0b791422b8f2da1c708bea51e66affd56d4511e89fd7d0ed6df7a380b3084670de0b6b3a764000002848460405180856001600160a01b031681526020018481526020018060200180602001838103835285818151815260200191508051906020019080838360005b83811015613d45578181015183820152602001613d2d565b50505050905090810190601f168015613d725780820380516001836020036101000a031916815260200191505b50838103825284518152845160209182019186019080838360005b83811015613da5578181015183820152602001613d8d565b50505050905090810190601f168015613dd25780820380516001836020036101000a031916815260200191505b50965050505050505060405180910390a1505050565b613df0614502565b6033546001600160a01b03908116911614613e40576040805162461bcd60e51b8152602060048201819052602482015260008051602061495f833981519152604482015290519081900360640190fd5b6065546040805163a9059cbb60e01b81526001600160a01b038581166004830152602482018590529151919092169163a9059cbb9160448083019260209291908290030181600087803b158015613e9657600080fd5b505af1158015613eaa573d6000803e3d6000fd5b505050506040513d6020811015613ec057600080fd5b5050604080516001600160a01b03841681526020810183905281517f21901fa892c430ea8bd38b9390225ac8e67eac75ee10ffba16feefc539a288f9929181900390910190a15050565b600054610100900460ff1680613f235750613f23614506565b80613f31575060005460ff16155b613f6c5760405162461bcd60e51b815260040180806020018281038252602e815260200180614931602e913960400191505060405180910390fd5b600054610100900460ff16158015613f97576000805460ff1961ff0019909116610100171660011790555b606580546001600160a01b0384166001600160a01b0319918216179091556066805490911633179055613fc861450c565b8015613fda576000805461ff00191690555b5050565b805160208183018101805160688252928201938201939093209190925280546040805160026001841615610100026000190190931692909204601f8101859004850283018501909152808252909283018282801561407d5780601f106140525761010080835404028352916020019161407d565b820191906000526020600020905b81548152906001019060200180831161406057829003601f168201915b505050505081565b61408d614502565b6033546001600160a01b039081169116146140dd576040805162461bcd60e51b8152602060048201819052602482015260008051602061495f833981519152604482015290519081900360640190fd5b606754600160a01b900460ff16151560011415614141576040805162461bcd60e51b815260206004820181905260248201527f4d616e75616c204261722052656d6f76616c2069732072657374726963746564604482015290519081900360640190fd5b806040516020018082805190602001908083835b602083106141745780518252601f199092019160209182019101614155565b6001836020036101000a038019825116818451168082178552505050505050905001915050604051602081830303815290604052805190602001206068836040518082805190602001908083835b602083106141e15780518252601f1990920191602091820191016141c2565b6001836020036101000a038019825116818451168082178552505050505050905001915050908152602001604051809103902060405160200180828054600181600116156101000203166002900480156142725780601f10614250576101008083540402835291820191614272565b820191906000526020600020905b81548152906001019060200180831161425e575b505091505060405160208183030381529060405280519060200120146142d7576040805162461bcd60e51b8152602060048201526015602482015274496e636f7272656374204261722064657461696c7360581b604482015290519081900360640190fd5b6068826040518082805190602001908083835b602083106143095780518252601f1990920191602091820191016142ea565b51815160209384036101000a600019018019909216911617905292019485525060405193849003019092206143429250905060006147e3565b6069826040518082805190602001908083835b602083106143745780518252601f199092019160209182019101614355565b51815160209384036101000a6000190180199092169116179052920194855250604051938490038101842085519094869450925082918401908083835b602083106143d05780518252601f1990920191602091820191016143b1565b51815160209384036101000a60001901801990921691161790529201948552506040519384900301909220805460ff1916905550505050565b614411614502565b6033546001600160a01b03908116911614614461576040805162461bcd60e51b8152602060048201819052602482015260008051602061495f833981519152604482015290519081900360640190fd5b6001600160a01b0381166144a65760405162461bcd60e51b815260040180806020018281038252602681526020018061485e6026913960400191505060405180910390fd5b6033546040516001600160a01b038084169216907f8be0079c531659141344cd1fd0a4f28419497f9722a3daafe3b4186f6b6457e090600090a3603380546001600160a01b0319166001600160a01b0392909216919091179055565b3390565b303b1590565b600054610100900460ff16806145255750614525614506565b80614533575060005460ff16155b61456e5760405162461bcd60e51b815260040180806020018281038252602e815260200180614931602e913960400191505060405180910390fd5b600054610100900460ff16158015614599576000805460ff1961ff0019909116610100171660011790555b6145a16145be565b6145a961465e565b80156145bb576000805461ff00191690555b50565b600054610100900460ff16806145d757506145d7614506565b806145e5575060005460ff16155b6146205760405162461bcd60e51b815260040180806020018281038252602e815260200180614931602e913960400191505060405180910390fd5b600054610100900460ff161580156145a9576000805460ff1961ff00199091166101001716600117905580156145bb576000805461ff001916905550565b600054610100900460ff16806146775750614677614506565b80614685575060005460ff16155b6146c05760405162461bcd60e51b815260040180806020018281038252602e815260200180614931602e913960400191505060405180910390fd5b600054610100900460ff161580156146eb576000805460ff1961ff0019909116610100171660011790555b60006146f5614502565b603380546001600160a01b0319166001600160a01b038316908117909155604051919250906000907f8be0079c531659141344cd1fd0a4f28419497f9722a3daafe3b4186f6b6457e0908290a35080156145bb576000805461ff001916905550565b828054600181600116156101000203166002900490600052602060002090601f01602090048101928261478d57600085556147d3565b82601f106147a657805160ff19168380011785556147d3565b828001600101855582156147d3579182015b828111156147d35782518255916020019190600101906147b8565b506147df929150614823565b5090565b50805460018160011615610100020316600290046000825580601f1061480957506145bb565b601f0160209004906000526020600020908101906145bb91905b5b808211156147df576000815560010161482456fe4f6e6c7920496e69746961746f722063616e2063616c6c20746869732066756e6374696f6e4f776e61626c653a206e6577206f776e657220697320746865207a65726f20616464726573734d616e75616c2042617220496e73657274696f6e20697320726573747269637465644d696e7420696e6974696174696f6e2072657175657374206e6f742065786973744275726e20696e6974696174696f6e2072657175657374206e6f742065786973744f6e6c79204578656375746f722063616e2063616c6c20746869732066756e6374696f6e4d696e7420696e6974696174696f6e207265717565737420616c7265616479206578697374496e697469616c697a61626c653a20636f6e747261637420697320616c726561647920696e697469616c697a65644f776e61626c653a2063616c6c6572206973206e6f7420746865206f776e6572a2646970667358221220b3485deae18ec14e8f612c7706a24b7e6b39e70736427a2fdb020a3c8daa98ca64736f6c63430007060033",
  "devdoc": {
    "kind": "dev",
    "methods": {
      "owner()": {
        "details": "Returns the address of the current owner."
      },
      "renounceOwnership()": {
        "details": "Leaves the contract without owner. It will not be possible to call `onlyOwner` functions anymore. Can only be called by the current owner. NOTE: Renouncing ownership will leave the contract without an owner, thereby removing any functionality that is only available to the owner."
      },
      "transferOwnership(address)": {
        "details": "Transfers ownership of the contract to a new account (`newOwner`). Can only be called by the current owner."
      }
    },
    "version": 1
  },
  "userdoc": {
    "kind": "user",
    "methods": {},
    "version": 1
  },
  "storageLayout": {
    "storage": [
      {
        "astId": 180,
        "contract": "contracts/CGOController.sol:CGOController",
        "label": "_initialized",
        "offset": 0,
        "slot": "0",
        "type": "t_bool"
      },
      {
        "astId": 183,
        "contract": "contracts/CGOController.sol:CGOController",
        "label": "_initializing",
        "offset": 1,
        "slot": "0",
        "type": "t_bool"
      },
      {
        "astId": 43,
        "contract": "contracts/CGOController.sol:CGOController",
        "label": "__gap",
        "offset": 0,
        "slot": "1",
        "type": "t_array(t_uint256)50_storage"
      },
      {
        "astId": 55,
        "contract": "contracts/CGOController.sol:CGOController",
        "label": "_owner",
        "offset": 0,
        "slot": "51",
        "type": "t_address"
      },
      {
        "astId": 173,
        "contract": "contracts/CGOController.sol:CGOController",
        "label": "__gap",
        "offset": 0,
        "slot": "52",
        "type": "t_array(t_uint256)49_storage"
      },
      {
        "astId": 1594,
        "contract": "contracts/CGOController.sol:CGOController",
        "label": "tokenAddr",
        "offset": 0,
        "slot": "101",
        "type": "t_address"
      },
      {
        "astId": 1596,
        "contract": "contracts/CGOController.sol:CGOController",
        "label": "initiatorAddr",
        "offset": 0,
        "slot": "102",
        "type": "t_address"
      },
      {
        "astId": 1598,
        "contract": "contracts/CGOController.sol:CGOController",
        "label": "executorAddr",
        "offset": 0,
        "slot": "103",
        "type": "t_address"
      },
      {
        "astId": 1601,
        "contract": "contracts/CGOController.sol:CGOController",
        "label": "isEditBarPaused",
        "offset": 20,
        "slot": "103",
        "type": "t_bool"
      },
      {
        "astId": 1611,
        "contract": "contracts/CGOController.sol:CGOController",
        "label": "barNumWarrantNum",
        "offset": 0,
        "slot": "104",
        "type": "t_mapping(t_string_memory_ptr,t_string_storage)"
      },
      {
        "astId": 1617,
        "contract": "contracts/CGOController.sol:CGOController",
        "label": "txnStatusRecord",
        "offset": 0,
        "slot": "105",
        "type": "t_mapping(t_string_memory_ptr,t_mapping(t_string_memory_ptr,t_enum(txnStatus)1607))"
      }
    ],
    "types": {
      "t_address": {
        "encoding": "inplace",
        "label": "address",
        "numberOfBytes": "20"
      },
      "t_array(t_uint256)49_storage": {
        "base": "t_uint256",
        "encoding": "inplace",
        "label": "uint256[49]",
        "numberOfBytes": "1568"
      },
      "t_array(t_uint256)50_storage": {
        "base": "t_uint256",
        "encoding": "inplace",
        "label": "uint256[50]",
        "numberOfBytes": "1600"
      },
      "t_bool": {
        "encoding": "inplace",
        "label": "bool",
        "numberOfBytes": "1"
      },
      "t_enum(txnStatus)1607": {
        "encoding": "inplace",
        "label": "enum CGOController.txnStatus",
        "numberOfBytes": "1"
      },
      "t_mapping(t_string_memory_ptr,t_enum(txnStatus)1607)": {
        "encoding": "mapping",
        "key": "t_string_memory_ptr",
        "label": "mapping(string => enum CGOController.txnStatus)",
        "numberOfBytes": "32",
        "value": "t_enum(txnStatus)1607"
      },
      "t_mapping(t_string_memory_ptr,t_mapping(t_string_memory_ptr,t_enum(txnStatus)1607))": {
        "encoding": "mapping",
        "key": "t_string_memory_ptr",
        "label": "mapping(string => mapping(string => enum CGOController.txnStatus))",
        "numberOfBytes": "32",
        "value": "t_mapping(t_string_memory_ptr,t_enum(txnStatus)1607)"
      },
      "t_mapping(t_string_memory_ptr,t_string_storage)": {
        "encoding": "mapping",
        "key": "t_string_memory_ptr",
        "label": "mapping(string => string)",
        "numberOfBytes": "32",
        "value": "t_string_storage"
      },
      "t_string_memory_ptr": {
        "encoding": "bytes",
        "label": "string",
        "numberOfBytes": "32"
      },
      "t_string_storage": {
        "encoding": "bytes",
        "label": "string",
        "numberOfBytes": "32"
      },
      "t_uint256": {
        "encoding": "inplace",
        "label": "uint256",
        "numberOfBytes": "32"
      }
    }
  }
}