{
  "address": "0x70BB2e9F74a40Ee9A7e3F947aa5F7C68add21729",
  "abi": [
    {
      "inputs": [
        {
          "internalType": "address",
          "name": "_tokenAddr",
          "type": "address"
        }
      ],
      "stateMutability": "nonpayable",
      "type": "constructor"
    },
    {
      "anonymous": false,
      "inputs": [
        {
          "indexed": false,
          "internalType": "string",
          "name": "Bar_Number",
          "type": "string"
        },
        {
          "indexed": false,
          "internalType": "string",
          "name": "Warrant_Number",
          "type": "string"
        }
      ],
      "name": "BarAdded",
      "type": "event"
    },
    {
      "anonymous": false,
      "inputs": [
        {
          "indexed": false,
          "internalType": "address",
          "name": "burn_from",
          "type": "address"
        },
        {
          "indexed": false,
          "internalType": "uint256",
          "name": "amount",
          "type": "uint256"
        },
        {
          "indexed": false,
          "internalType": "string",
          "name": "Bar_Number",
          "type": "string"
        },
        {
          "indexed": false,
          "internalType": "string",
          "name": "Warrant_Number",
          "type": "string"
        }
      ],
      "name": "BarBurn",
      "type": "event"
    },
    {
      "anonymous": false,
      "inputs": [
        {
          "indexed": false,
          "internalType": "address",
          "name": "to",
          "type": "address"
        },
        {
          "indexed": false,
          "internalType": "uint256",
          "name": "amount",
          "type": "uint256"
        },
        {
          "indexed": false,
          "internalType": "string",
          "name": "Bar_Number",
          "type": "string"
        },
        {
          "indexed": false,
          "internalType": "string",
          "name": "Warrant_Number",
          "type": "string"
        }
      ],
      "name": "BarMint",
      "type": "event"
    },
    {
      "anonymous": false,
      "inputs": [
        {
          "indexed": false,
          "internalType": "string",
          "name": "Bar_Number",
          "type": "string"
        },
        {
          "indexed": false,
          "internalType": "string",
          "name": "Warrant_Number",
          "type": "string"
        },
        {
          "indexed": false,
          "internalType": "enum CGOController.txnStatus",
          "name": "status",
          "type": "uint8"
        }
      ],
      "name": "BurnInitiated",
      "type": "event"
    },
    {
      "anonymous": false,
      "inputs": [
        {
          "indexed": false,
          "internalType": "bool",
          "name": "status",
          "type": "bool"
        }
      ],
      "name": "EditBarStatusPaused",
      "type": "event"
    },
    {
      "anonymous": false,
      "inputs": [
        {
          "indexed": false,
          "internalType": "string",
          "name": "Bar_Number",
          "type": "string"
        },
        {
          "indexed": false,
          "internalType": "string",
          "name": "Warrant_Number",
          "type": "string"
        },
        {
          "indexed": false,
          "internalType": "enum CGOController.txnStatus",
          "name": "status",
          "type": "uint8"
        }
      ],
      "name": "MintInitiated",
      "type": "event"
    },
    {
      "anonymous": false,
      "inputs": [
        {
          "indexed": true,
          "internalType": "address",
          "name": "previousOwner",
          "type": "address"
        },
        {
          "indexed": true,
          "internalType": "address",
          "name": "newOwner",
          "type": "address"
        }
      ],
      "name": "OwnershipTransferred",
      "type": "event"
    },
    {
      "anonymous": false,
      "inputs": [
        {
          "indexed": false,
          "internalType": "address",
          "name": "to",
          "type": "address"
        },
        {
          "indexed": false,
          "internalType": "uint256",
          "name": "amount",
          "type": "uint256"
        }
      ],
      "name": "WithdrawFunds",
      "type": "event"
    },
    {
      "inputs": [
        {
          "internalType": "string",
          "name": "Bar_Number",
          "type": "string"
        },
        {
          "internalType": "string",
          "name": "Warrant_Number",
          "type": "string"
        }
      ],
      "name": "addBarNumWarrantNum",
      "outputs": [],
      "stateMutability": "nonpayable",
      "type": "function"
    },
    {
      "inputs": [
        {
          "internalType": "string",
          "name": "",
          "type": "string"
        }
      ],
      "name": "barNumWarrantNum",
      "outputs": [
        {
          "internalType": "string",
          "name": "",
          "type": "string"
        }
      ],
      "stateMutability": "view",
      "type": "function"
    },
    {
      "inputs": [
        {
          "internalType": "address",
          "name": "user",
          "type": "address"
        },
        {
          "internalType": "bool",
          "name": "value",
          "type": "bool"
        }
      ],
      "name": "blacklistUpdate",
      "outputs": [],
      "stateMutability": "nonpayable",
      "type": "function"
    },
    {
      "inputs": [
        {
          "internalType": "uint256",
          "name": "amount",
          "type": "uint256"
        },
        {
          "internalType": "string",
          "name": "Bar_Number",
          "type": "string"
        },
        {
          "internalType": "string",
          "name": "Warrant_Number",
          "type": "string"
        }
      ],
      "name": "burn",
      "outputs": [],
      "stateMutability": "nonpayable",
      "type": "function"
    },
    {
      "inputs": [],
      "name": "executorAddr",
      "outputs": [
        {
          "internalType": "address",
          "name": "",
          "type": "address"
        }
      ],
      "stateMutability": "view",
      "type": "function"
    },
    {
      "inputs": [
        {
          "internalType": "string",
          "name": "Bar_Number",
          "type": "string"
        },
        {
          "internalType": "string",
          "name": "Warrant_Number",
          "type": "string"
        }
      ],
      "name": "initiateBurn",
      "outputs": [],
      "stateMutability": "nonpayable",
      "type": "function"
    },
    {
      "inputs": [
        {
          "internalType": "string",
          "name": "Bar_Number",
          "type": "string"
        },
        {
          "internalType": "string",
          "name": "Warrant_Number",
          "type": "string"
        }
      ],
      "name": "initiateMint",
      "outputs": [],
      "stateMutability": "nonpayable",
      "type": "function"
    },
    {
      "inputs": [],
      "name": "initiatorAddr",
      "outputs": [
        {
          "internalType": "address",
          "name": "",
          "type": "address"
        }
      ],
      "stateMutability": "view",
      "type": "function"
    },
    {
      "inputs": [],
      "name": "isEditBarPaused",
      "outputs": [
        {
          "internalType": "bool",
          "name": "",
          "type": "bool"
        }
      ],
      "stateMutability": "view",
      "type": "function"
    },
    {
      "inputs": [
        {
          "internalType": "address",
          "name": "to",
          "type": "address"
        },
        {
          "internalType": "uint256",
          "name": "amount",
          "type": "uint256"
        },
        {
          "internalType": "string",
          "name": "Bar_Number",
          "type": "string"
        },
        {
          "internalType": "string",
          "name": "Warrant_Number",
          "type": "string"
        }
      ],
      "name": "mint",
      "outputs": [],
      "stateMutability": "nonpayable",
      "type": "function"
    },
    {
      "inputs": [],
      "name": "owner",
      "outputs": [
        {
          "internalType": "address",
          "name": "",
          "type": "address"
        }
      ],
      "stateMutability": "view",
      "type": "function"
    },
    {
      "inputs": [
        {
          "internalType": "bool",
          "name": "status",
          "type": "bool"
        }
      ],
      "name": "pauseEditBar",
      "outputs": [],
      "stateMutability": "nonpayable",
      "type": "function"
    },
    {
      "inputs": [
        {
          "internalType": "string",
          "name": "Bar_Number",
          "type": "string"
        },
        {
          "internalType": "string",
          "name": "Warrant_Number",
          "type": "string"
        }
      ],
      "name": "removeBarNumWarrantNum",
      "outputs": [],
      "stateMutability": "nonpayable",
      "type": "function"
    },
    {
      "inputs": [],
      "name": "renounceOwnership",
      "outputs": [],
      "stateMutability": "nonpayable",
      "type": "function"
    },
    {
      "inputs": [
        {
          "internalType": "address",
          "name": "_executorAddr",
          "type": "address"
        }
      ],
      "name": "setExecutorAddr",
      "outputs": [],
      "stateMutability": "nonpayable",
      "type": "function"
    },
    {
      "inputs": [
        {
          "internalType": "address",
          "name": "_initiatorAddr",
          "type": "address"
        }
      ],
      "name": "setInitiatorAddr",
      "outputs": [],
      "stateMutability": "nonpayable",
      "type": "function"
    },
    {
      "inputs": [],
      "name": "tokenAddr",
      "outputs": [
        {
          "internalType": "address",
          "name": "",
          "type": "address"
        }
      ],
      "stateMutability": "view",
      "type": "function"
    },
    {
      "inputs": [
        {
          "internalType": "address",
          "name": "newOwner",
          "type": "address"
        }
      ],
      "name": "transferCgoOwnership",
      "outputs": [],
      "stateMutability": "nonpayable",
      "type": "function"
    },
    {
      "inputs": [
        {
          "internalType": "address",
          "name": "newOwner",
          "type": "address"
        }
      ],
      "name": "transferOwnership",
      "outputs": [],
      "stateMutability": "nonpayable",
      "type": "function"
    },
    {
      "inputs": [
        {
          "internalType": "string",
          "name": "",
          "type": "string"
        },
        {
          "internalType": "string",
          "name": "",
          "type": "string"
        }
      ],
      "name": "txnStatusRecord",
      "outputs": [
        {
          "internalType": "enum CGOController.txnStatus",
          "name": "",
          "type": "uint8"
        }
      ],
      "stateMutability": "view",
      "type": "function"
    },
    {
      "inputs": [
        {
          "internalType": "address",
          "name": "to",
          "type": "address"
        },
        {
          "internalType": "uint256",
          "name": "amount",
          "type": "uint256"
        }
      ],
      "name": "withdrawFunds",
      "outputs": [],
      "stateMutability": "nonpayable",
      "type": "function"
    }
  ],
  "transactionHash": "0xbfb0f5b7ac5eec1a2df8f4719cb401161740c090ffcc15ddb7f8a4663409059f",
  "args": [
    "0x013540113Ea6b31F66335aE735610411a4b0F563"
  ],
  "numDeployments": 1,
  "solcInputHash": "e6e06a2120ee25ec601fe11ba381b58e",
  "bytecode": "0x60806040526003805460ff60a01b191690553480156200001e57600080fd5b506040516200369b3803806200369b833981810160405260208110156200004457600080fd5b5051600062000052620000cb565b600080546001600160a01b0319166001600160a01b0383169081178255604051929350917f8be0079c531659141344cd1fd0a4f28419497f9722a3daafe3b4186f6b6457e0908290a350600180546001600160a01b039092166001600160a01b03199283161790556002805490911633179055620000cf565b3390565b6135bc80620000df6000396000f3fe608060405234801561001057600080fd5b50600436106101375760003560e01c8063715018a6116100b8578063b351dfe81161007c578063b351dfe814610832578063ba211db014610860578063c107532914610990578063cc49109a146109bc578063d12554d914610ad5578063f2fde38b14610bfe57610137565b8063715018a6146107f6578063760fa67f146107fe5780638da5cb5b14610806578063a71ecc611461080e578063b00455c11461082a57610137565b80635eacf728116100ff5780635eacf728146104175780635fbe4d1d146105615780636037749d14610585578063686fa7d6146106ae5780636c7ff3bb146107d757610137565b8063236e2f401461013c5780632fb102cf14610164578063394d5c93146102a25780634a681673146103cb578063500e46ab146103f1575b600080fd5b6101626004803603602081101561015257600080fd5b50356001600160a01b0316610c24565b005b6101626004803603608081101561017a57600080fd5b6001600160a01b0382351691602081013591810190606081016040820135600160201b8111156101a957600080fd5b8201836020820111156101bb57600080fd5b803590602001918460018302840111600160201b831117156101dc57600080fd5b91908080601f0160208091040260200160405190810160405280939291908181526020018383808284376000920191909152509295949360208101935035915050600160201b81111561022e57600080fd5b82018360208201111561024057600080fd5b803590602001918460018302840111600160201b8311171561026157600080fd5b91908080601f016020809104026020016040519081016040528093929190818152602001838380828437600092019190915250929550610c9e945050505050565b610162600480360360408110156102b857600080fd5b810190602081018135600160201b8111156102d257600080fd5b8201836020820111156102e457600080fd5b803590602001918460018302840111600160201b8311171561030557600080fd5b91908080601f0160208091040260200160405190810160405280939291908181526020018383808284376000920191909152509295949360208101935035915050600160201b81111561035757600080fd5b82018360208201111561036957600080fd5b803590602001918460018302840111600160201b8311171561038a57600080fd5b91908080601f0160208091040260200160405190810160405280939291908181526020018383808284376000920191909152509295506112c6945050505050565b610162600480360360208110156103e157600080fd5b50356001600160a01b0316611992565b6101626004803603602081101561040757600080fd5b50356001600160a01b0316611a53565b6105406004803603604081101561042d57600080fd5b810190602081018135600160201b81111561044757600080fd5b82018360208201111561045957600080fd5b803590602001918460018302840111600160201b8311171561047a57600080fd5b91908080601f0160208091040260200160405190810160405280939291908181526020018383808284376000920191909152509295949360208101935035915050600160201b8111156104cc57600080fd5b8201836020820111156104de57600080fd5b803590602001918460018302840111600160201b831117156104ff57600080fd5b91908080601f016020809104026020016040519081016040528093929190818152602001838380828437600092019190915250929550611acd945050505050565b6040518082600481111561055057fe5b815260200191505060405180910390f35b610569611b0a565b604080516001600160a01b039092168252519081900360200190f35b6101626004803603604081101561059b57600080fd5b810190602081018135600160201b8111156105b557600080fd5b8201836020820111156105c757600080fd5b803590602001918460018302840111600160201b831117156105e857600080fd5b91908080601f0160208091040260200160405190810160405280939291908181526020018383808284376000920191909152509295949360208101935035915050600160201b81111561063a57600080fd5b82018360208201111561064c57600080fd5b803590602001918460018302840111600160201b8311171561066d57600080fd5b91908080601f016020809104026020016040519081016040528093929190818152602001838380828437600092019190915250929550611b19945050505050565b610162600480360360408110156106c457600080fd5b810190602081018135600160201b8111156106de57600080fd5b8201836020820111156106f057600080fd5b803590602001918460018302840111600160201b8311171561071157600080fd5b91908080601f0160208091040260200160405190810160405280939291908181526020018383808284376000920191909152509295949360208101935035915050600160201b81111561076357600080fd5b82018360208201111561077557600080fd5b803590602001918460018302840111600160201b8311171561079657600080fd5b91908080601f016020809104026020016040519081016040528093929190818152602001838380828437600092019190915250929550611ecb945050505050565b610162600480360360208110156107ed57600080fd5b503515156124cd565b610162612577565b610569612619565b610569612628565b610816612637565b604080519115158252519081900360200190f35b610569612647565b6101626004803603604081101561084857600080fd5b506001600160a01b0381351690602001351515612656565b6101626004803603606081101561087657600080fd5b81359190810190604081016020820135600160201b81111561089757600080fd5b8201836020820111156108a957600080fd5b803590602001918460018302840111600160201b831117156108ca57600080fd5b91908080601f0160208091040260200160405190810160405280939291908181526020018383808284376000920191909152509295949360208101935035915050600160201b81111561091c57600080fd5b82018360208201111561092e57600080fd5b803590602001918460018302840111600160201b8311171561094f57600080fd5b91908080601f016020809104026020016040519081016040528093929190818152602001838380828437600092019190915250929550612720945050505050565b610162600480360360408110156109a657600080fd5b506001600160a01b038135169060200135612e00565b610a60600480360360208110156109d257600080fd5b810190602081018135600160201b8111156109ec57600080fd5b8201836020820111156109fe57600080fd5b803590602001918460018302840111600160201b83111715610a1f57600080fd5b91908080601f016020809104026020016040519081016040528093929190818152602001838380828437600092019190915250929550612f22945050505050565b6040805160208082528351818301528351919283929083019185019080838360005b83811015610a9a578181015183820152602001610a82565b50505050905090810190601f168015610ac75780820380516001836020036101000a031916815260200191505b509250505060405180910390f35b61016260048036036040811015610aeb57600080fd5b810190602081018135600160201b811115610b0557600080fd5b820183602082011115610b1757600080fd5b803590602001918460018302840111600160201b83111715610b3857600080fd5b91908080601f0160208091040260200160405190810160405280939291908181526020018383808284376000920191909152509295949360208101935035915050600160201b811115610b8a57600080fd5b820183602082011115610b9c57600080fd5b803590602001918460018302840111600160201b83111715610bbd57600080fd5b91908080601f016020809104026020016040519081016040528093929190818152602001838380828437600092019190915250929550612fc9945050505050565b61016260048036036020811015610c1457600080fd5b50356001600160a01b031661328a565b610c2c613382565b6000546001600160a01b03908116911614610c7c576040805162461bcd60e51b81526020600482018190526024820152600080516020613567833981519152604482015290519081900360640190fd5b600280546001600160a01b0319166001600160a01b0392909216919091179055565b6003546001600160a01b03163314610ce75760405162461bcd60e51b815260040180806020018281038252602481526020018061351e6024913960400191505060405180910390fd5b600154604080516340c10f1960e01b81526001600160a01b038781166004830152670de0b6b3a764000087026024830152915191909216916340c10f1991604480830192600092919082900301818387803b158015610d4557600080fd5b505af1158015610d59573d6000803e3d6000fd5b50505050806040516020018082805190602001908083835b60208310610d905780518252601f199092019160209182019101610d71565b6001836020036101000a038019825116818451168082178552505050505050905001915050604051602081830303815290604052805190602001206004836040518082805190602001908083835b60208310610dfd5780518252601f199092019160209182019101610dde565b6001836020036101000a03801982511681845116808217855250505050505090500191505090815260200160405180910390206040516020018082805460018160011615610100020316600290048015610e8e5780601f10610e6c576101008083540402835291820191610e8e565b820191906000526020600020905b815481529060010190602001808311610e7a575b5050915050604051602081830303815290604052805190602001201415610ef0576040805162461bcd60e51b815260206004820152601160248201527010985c88185b1c9958591e48195e1a5cdd607a1b604482015290519081900360640190fd5b60016005836040518082805190602001908083835b60208310610f245780518252601f199092019160209182019101610f05565b51815160209384036101000a6000190180199092169116179052920194855250604051938490038101842086519094879450925082918401908083835b60208310610f805780518252601f199092019160209182019101610f61565b51815160209384036101000a600019018019909216911617905292019485525060405193849003019092205460ff169150506004811115610fbd57fe5b14610ff95760405162461bcd60e51b81526004018080602001828103825260218152602001806134dc6021913960400191505060405180910390fd5b826103e81461104f576040805162461bcd60e51b815260206004820152601a60248201527f4d696e7420616d6f756e742073686f756c642062652031303030000000000000604482015290519081900360640190fd5b806004836040518082805190602001908083835b602083106110825780518252601f199092019160209182019101611063565b51815160209384036101000a600019018019909216911617905292019485525060405193849003810190932084516110c39591949190910192509050613386565b5060026005836040518082805190602001908083835b602083106110f85780518252601f1990920191602091820191016110d9565b51815160209384036101000a6000190180199092169116179052920194855250604051938490038101842086519094879450925082918401908083835b602083106111545780518252601f199092019160209182019101611135565b51815160209384036101000a60001901801990921691161790529201948552506040519384900301909220805490925060ff19169050600183600481111561119857fe5b02179055507f6c5141baea3136c0a6e98d38bfa1d3f439b831aac09095817ef594d75231ed208484670de0b6b3a764000002848460405180856001600160a01b031681526020018481526020018060200180602001838103835285818151815260200191508051906020019080838360005b8381101561122257818101518382015260200161120a565b50505050905090810190601f16801561124f5780820380516001836020036101000a031916815260200191505b50838103825284518152845160209182019186019080838360005b8381101561128257818101518382015260200161126a565b50505050905090810190601f1680156112af5780820380516001836020036101000a031916815260200191505b50965050505050505060405180910390a150505050565b6002546001600160a01b0316331461130f5760405162461bcd60e51b815260040180806020018281038252602581526020018061346f6025913960400191505060405180910390fd5b60036005836040518082805190602001908083835b602083106113435780518252601f199092019160209182019101611324565b51815160209384036101000a6000190180199092169116179052920194855250604051938490038101842086519094879450925082918401908083835b6020831061139f5780518252601f199092019160209182019101611380565b51815160209384036101000a600019018019909216911617905292019485525060405193849003019092205460ff1691505060048111156113dc57fe5b14806114b2575060046005836040518082805190602001908083835b602083106114175780518252601f1990920191602091820191016113f8565b51815160209384036101000a6000190180199092169116179052920194855250604051938490038101842086519094879450925082918401908083835b602083106114735780518252601f199092019160209182019101611454565b51815160209384036101000a600019018019909216911617905292019485525060405193849003019092205460ff1691505060048111156114b057fe5b145b15611504576040805162461bcd60e51b815260206004820152601f60248201527f4275726e207265717565737420657869737420666f7220746869732042617200604482015290519081900360640190fd5b806040516020018082805190602001908083835b602083106115375780518252601f199092019160209182019101611518565b6001836020036101000a038019825116818451168082178552505050505050905001915050604051602081830303815290604052805190602001206004836040518082805190602001908083835b602083106115a45780518252601f199092019160209182019101611585565b6001836020036101000a038019825116818451168082178552505050505050905001915050908152602001604051809103902060405160200180828054600181600116156101000203166002900480156116355780601f10611613576101008083540402835291820191611635565b820191906000526020600020905b815481529060010190602001808311611621575b5050915050604051602081830303815290604052805190602001201415611697576040805162461bcd60e51b815260206004820152601160248201527010985c88185b1c9958591e48195e1a5cdd607a1b604482015290519081900360640190fd5b60016005836040518082805190602001908083835b602083106116cb5780518252601f1990920191602091820191016116ac565b51815160209384036101000a6000190180199092169116179052920194855250604051938490038101842086519094879450925082918401908083835b602083106117275780518252601f199092019160209182019101611708565b51815160209384036101000a600019018019909216911617905292019485525060405193849003019092205460ff16915050600481111561176457fe5b14156117a15760405162461bcd60e51b81526004018080602001828103825260258152602001806135426025913960400191505060405180910390fd5b60016005836040518082805190602001908083835b602083106117d55780518252601f1990920191602091820191016117b6565b51815160209384036101000a6000190180199092169116179052920194855250604051938490038101842086519094879450925082918401908083835b602083106118315780518252601f199092019160209182019101611812565b51815160209384036101000a60001901801990921691161790529201948552506040519384900301909220805490925060ff19169050600183600481111561187557fe5b02179055507f414a5a1d8ed4fc86e0618577c5ae5de37aee0d3c581567b3832f802f29142b41828260016040518080602001806020018460048111156118b757fe5b8152602001838103835286818151815260200191508051906020019080838360005b838110156118f15781810151838201526020016118d9565b50505050905090810190601f16801561191e5780820380516001836020036101000a031916815260200191505b50838103825285518152855160209182019187019080838360005b83811015611951578181015183820152602001611939565b50505050905090810190601f16801561197e5780820380516001836020036101000a031916815260200191505b509550505050505060405180910390a15050565b61199a613382565b6000546001600160a01b039081169116146119ea576040805162461bcd60e51b81526020600482018190526024820152600080516020613567833981519152604482015290519081900360640190fd5b6001546040805163f2fde38b60e01b81526001600160a01b0384811660048301529151919092169163f2fde38b91602480830192600092919082900301818387803b158015611a3857600080fd5b505af1158015611a4c573d6000803e3d6000fd5b5050505050565b611a5b613382565b6000546001600160a01b03908116911614611aab576040805162461bcd60e51b81526020600482018190526024820152600080516020613567833981519152604482015290519081900360640190fd5b600380546001600160a01b0319166001600160a01b0392909216919091179055565b8151602081840181018051600582529282019482019490942091909352815180830184018051928152908401929093019190912091525460ff1681565b6001546001600160a01b031681565b611b21613382565b6000546001600160a01b03908116911614611b71576040805162461bcd60e51b81526020600482018190526024820152600080516020613567833981519152604482015290519081900360640190fd5b600354600160a01b900460ff16151560011415611bbf5760405162461bcd60e51b81526004018080602001828103825260228152602001806134ba6022913960400191505060405180910390fd5b806040516020018082805190602001908083835b60208310611bf25780518252601f199092019160209182019101611bd3565b6001836020036101000a038019825116818451168082178552505050505050905001915050604051602081830303815290604052805190602001206004836040518082805190602001908083835b60208310611c5f5780518252601f199092019160209182019101611c40565b6001836020036101000a03801982511681845116808217855250505050505090500191505090815260200160405180910390206040516020018082805460018160011615610100020316600290048015611cf05780601f10611cce576101008083540402835291820191611cf0565b820191906000526020600020905b815481529060010190602001808311611cdc575b5050915050604051602081830303815290604052805190602001201415611d52576040805162461bcd60e51b815260206004820152601160248201527010985c88185b1c9958591e48195e1a5cdd607a1b604482015290519081900360640190fd5b806004836040518082805190602001908083835b60208310611d855780518252601f199092019160209182019101611d66565b51815160209384036101000a60001901801990921691161790529201948552506040519384900381019093208451611dc69591949190910192509050613386565b507fac9bc919b1caca6ecaadfbfafbb1794b941be89e2c6fcefde11f0a91efd1d2198282604051808060200180602001838103835285818151815260200191508051906020019080838360005b83811015611e2b578181015183820152602001611e13565b50505050905090810190601f168015611e585780820380516001836020036101000a031916815260200191505b50838103825284518152845160209182019186019080838360005b83811015611e8b578181015183820152602001611e73565b50505050905090810190601f168015611eb85780820380516001836020036101000a031916815260200191505b5094505050505060405180910390a15050565b6002546001600160a01b03163314611f145760405162461bcd60e51b815260040180806020018281038252602581526020018061346f6025913960400191505060405180910390fd5b60036005836040518082805190602001908083835b60208310611f485780518252601f199092019160209182019101611f29565b51815160209384036101000a6000190180199092169116179052920194855250604051938490038101842086519094879450925082918401908083835b60208310611fa45780518252601f199092019160209182019101611f85565b51815160209384036101000a600019018019909216911617905292019485525060405193849003019092205460ff169150506004811115611fe157fe5b14806120b7575060046005836040518082805190602001908083835b6020831061201c5780518252601f199092019160209182019101611ffd565b51815160209384036101000a6000190180199092169116179052920194855250604051938490038101842086519094879450925082918401908083835b602083106120785780518252601f199092019160209182019101612059565b51815160209384036101000a600019018019909216911617905292019485525060405193849003019092205460ff1691505060048111156120b557fe5b145b15612109576040805162461bcd60e51b815260206004820152601a60248201527f4275726e207265717565737420616c7265616479206578697374000000000000604482015290519081900360640190fd5b806040516020018082805190602001908083835b6020831061213c5780518252601f19909201916020918201910161211d565b6001836020036101000a038019825116818451168082178552505050505050905001915050604051602081830303815290604052805190602001206004836040518082805190602001908083835b602083106121a95780518252601f19909201916020918201910161218a565b6001836020036101000a0380198251168184511680821785525050505050509050019150509081526020016040518091039020604051602001808280546001816001161561010002031660029004801561223a5780601f1061221857610100808354040283529182019161223a565b820191906000526020600020905b815481529060010190602001808311612226575b5050915050604051602081830303815290604052805190602001201461229f576040805162461bcd60e51b8152602060048201526015602482015274496e636f7272656374204261722064657461696c7360581b604482015290519081900360640190fd5b60026005836040518082805190602001908083835b602083106122d35780518252601f1990920191602091820191016122b4565b51815160209384036101000a6000190180199092169116179052920194855250604051938490038101842086519094879450925082918401908083835b6020831061232f5780518252601f199092019160209182019101612310565b51815160209384036101000a600019018019909216911617905292019485525060405193849003019092205460ff16915050600481111561236c57fe5b146123b7576040805162461bcd60e51b8152602060048201526016602482015275135a5b9d081c995c5d595cdd081b9bdd08195e1a5cdd60521b604482015290519081900360640190fd5b60036005836040518082805190602001908083835b602083106123eb5780518252601f1990920191602091820191016123cc565b51815160209384036101000a6000190180199092169116179052920194855250604051938490038101842086519094879450925082918401908083835b602083106124475780518252601f199092019160209182019101612428565b51815160209384036101000a60001901801990921691161790529201948552506040519384900301909220805490925060ff19169050600183600481111561248b57fe5b02179055507f958e890dc745eff10f691e6643bf164523f5d2347f1824c93258e4150bc408a7828260036040518080602001806020018460048111156118b757fe5b6124d5613382565b6000546001600160a01b03908116911614612525576040805162461bcd60e51b81526020600482018190526024820152600080516020613567833981519152604482015290519081900360640190fd5b60038054821515600160a01b810260ff60a01b199092169190911790915560408051918252517e642bba6e3f08aa2c941bc293d57dfe61e9c3c1dd1e282c2871af333aa612ab9181900360200190a150565b61257f613382565b6000546001600160a01b039081169116146125cf576040805162461bcd60e51b81526020600482018190526024820152600080516020613567833981519152604482015290519081900360640190fd5b600080546040516001600160a01b03909116907f8be0079c531659141344cd1fd0a4f28419497f9722a3daafe3b4186f6b6457e0908390a3600080546001600160a01b0319169055565b6003546001600160a01b031681565b6000546001600160a01b031690565b600354600160a01b900460ff1681565b6002546001600160a01b031681565b61265e613382565b6000546001600160a01b039081169116146126ae576040805162461bcd60e51b81526020600482018190526024820152600080516020613567833981519152604482015290519081900360640190fd5b6001546040805163166a3bfd60e31b81526001600160a01b03858116600483015284151560248301529151919092169163b351dfe891604480830192600092919082900301818387803b15801561270457600080fd5b505af1158015612718573d6000803e3d6000fd5b505050505050565b6003546001600160a01b031633146127695760405162461bcd60e51b815260040180806020018281038252602481526020018061351e6024913960400191505060405180910390fd5b806040516020018082805190602001908083835b6020831061279c5780518252601f19909201916020918201910161277d565b6001836020036101000a038019825116818451168082178552505050505050905001915050604051602081830303815290604052805190602001206004836040518082805190602001908083835b602083106128095780518252601f1990920191602091820191016127ea565b6001836020036101000a0380198251168184511680821785525050505050509050019150509081526020016040518091039020604051602001808280546001816001161561010002031660029004801561289a5780601f1061287857610100808354040283529182019161289a565b820191906000526020600020905b815481529060010190602001808311612886575b505091505060405160208183030381529060405280519060200120146128ff576040805162461bcd60e51b8152602060048201526015602482015274496e636f7272656374204261722064657461696c7360581b604482015290519081900360640190fd5b60036005836040518082805190602001908083835b602083106129335780518252601f199092019160209182019101612914565b51815160209384036101000a6000190180199092169116179052920194855250604051938490038101842086519094879450925082918401908083835b6020831061298f5780518252601f199092019160209182019101612970565b51815160209384036101000a600019018019909216911617905292019485525060405193849003019092205460ff1691505060048111156129cc57fe5b14612a085760405162461bcd60e51b81526004018080602001828103825260218152602001806134fd6021913960400191505060405180910390fd5b826103e814612a5e576040805162461bcd60e51b815260206004820152601a60248201527f4275726e20616d6f756e742073686f756c642062652031303030000000000000604482015290519081900360640190fd5b600154604080516370a0823160e01b81523060048201529051670de0b6b3a76400008602926001600160a01b0316916370a08231916024808301926020929190829003018186803b158015612ab257600080fd5b505afa158015612ac6573d6000803e3d6000fd5b505050506040513d6020811015612adc57600080fd5b50511015612b26576040805162461bcd60e51b8152602060048201526012602482015271496e73756666696369656e742046756e647360701b604482015290519081900360640190fd5b60015460408051630852cd8d60e31b8152670de0b6b3a76400008602600482015290516001600160a01b03909216916342966c689160248082019260009290919082900301818387803b158015612b7c57600080fd5b505af1158015612b90573d6000803e3d6000fd5b505050506004826040518082805190602001908083835b60208310612bc65780518252601f199092019160209182019101612ba7565b51815160209384036101000a60001901801990921691161790529201948552506040519384900301909220612bff925090506000613412565b60046005836040518082805190602001908083835b60208310612c335780518252601f199092019160209182019101612c14565b51815160209384036101000a6000190180199092169116179052920194855250604051938490038101842086519094879450925082918401908083835b60208310612c8f5780518252601f199092019160209182019101612c70565b51815160209384036101000a60001901801990921691161790529201948552506040519384900301909220805490925060ff191690506001836004811115612cd357fe5b02179055507f69607ed0b791422b8f2da1c708bea51e66affd56d4511e89fd7d0ed6df7a380b3084670de0b6b3a764000002848460405180856001600160a01b031681526020018481526020018060200180602001838103835285818151815260200191508051906020019080838360005b83811015612d5d578181015183820152602001612d45565b50505050905090810190601f168015612d8a5780820380516001836020036101000a031916815260200191505b50838103825284518152845160209182019186019080838360005b83811015612dbd578181015183820152602001612da5565b50505050905090810190601f168015612dea5780820380516001836020036101000a031916815260200191505b50965050505050505060405180910390a1505050565b612e08613382565b6000546001600160a01b03908116911614612e58576040805162461bcd60e51b81526020600482018190526024820152600080516020613567833981519152604482015290519081900360640190fd5b6001546040805163a9059cbb60e01b81526001600160a01b038581166004830152602482018590529151919092169163a9059cbb9160448083019260209291908290030181600087803b158015612eae57600080fd5b505af1158015612ec2573d6000803e3d6000fd5b505050506040513d6020811015612ed857600080fd5b5050604080516001600160a01b03841681526020810183905281517f21901fa892c430ea8bd38b9390225ac8e67eac75ee10ffba16feefc539a288f9929181900390910190a15050565b805160208183018101805160048252928201938201939093209190925280546040805160026001841615610100026000190190931692909204601f81018590048502830185019091528082529092830182828015612fc15780601f10612f9657610100808354040283529160200191612fc1565b820191906000526020600020905b815481529060010190602001808311612fa457829003601f168201915b505050505081565b612fd1613382565b6000546001600160a01b03908116911614613021576040805162461bcd60e51b81526020600482018190526024820152600080516020613567833981519152604482015290519081900360640190fd5b600354600160a01b900460ff16151560011415613085576040805162461bcd60e51b815260206004820181905260248201527f4d616e75616c204261722052656d6f76616c2069732072657374726963746564604482015290519081900360640190fd5b806040516020018082805190602001908083835b602083106130b85780518252601f199092019160209182019101613099565b6001836020036101000a038019825116818451168082178552505050505050905001915050604051602081830303815290604052805190602001206004836040518082805190602001908083835b602083106131255780518252601f199092019160209182019101613106565b6001836020036101000a038019825116818451168082178552505050505050905001915050908152602001604051809103902060405160200180828054600181600116156101000203166002900480156131b65780601f106131945761010080835404028352918201916131b6565b820191906000526020600020905b8154815290600101906020018083116131a2575b5050915050604051602081830303815290604052805190602001201461321b576040805162461bcd60e51b8152602060048201526015602482015274496e636f7272656374204261722064657461696c7360581b604482015290519081900360640190fd5b6004826040518082805190602001908083835b6020831061324d5780518252601f19909201916020918201910161322e565b51815160209384036101000a60001901801990921691161790529201948552506040519384900301909220613286925090506000613412565b5050565b613292613382565b6000546001600160a01b039081169116146132e2576040805162461bcd60e51b81526020600482018190526024820152600080516020613567833981519152604482015290519081900360640190fd5b6001600160a01b0381166133275760405162461bcd60e51b81526004018080602001828103825260268152602001806134946026913960400191505060405180910390fd5b600080546040516001600160a01b03808516939216917f8be0079c531659141344cd1fd0a4f28419497f9722a3daafe3b4186f6b6457e091a3600080546001600160a01b0319166001600160a01b0392909216919091179055565b3390565b828054600181600116156101000203166002900490600052602060002090601f0160209004810192826133bc5760008555613402565b82601f106133d557805160ff1916838001178555613402565b82800160010185558215613402579182015b828111156134025782518255916020019190600101906133e7565b5061340e929150613459565b5090565b50805460018160011615610100020316600290046000825580601f106134385750613456565b601f0160209004906000526020600020908101906134569190613459565b50565b5b8082111561340e576000815560010161345a56fe4f6e6c7920496e69746961746f722063616e2063616c6c20746869732066756e6374696f6e4f776e61626c653a206e6577206f776e657220697320746865207a65726f20616464726573734d616e75616c2042617220496e73657274696f6e20697320726573747269637465644d696e7420696e6974696174696f6e2072657175657374206e6f742065786973744275726e20696e6974696174696f6e2072657175657374206e6f742065786973744f6e6c79204578656375746f722063616e2063616c6c20746869732066756e6374696f6e4d696e7420696e6974696174696f6e207265717565737420616c72656164792065786973744f776e61626c653a2063616c6c6572206973206e6f7420746865206f776e6572a2646970667358221220a271aa7e5ad255e90d5ebddedbd97526d35d830be2529517c481e1de43c313b164736f6c63430007060033",
  "devdoc": {
    "kind": "dev",
    "methods": {
      "owner()": {
        "details": "Returns the address of the current owner."
      },
      "renounceOwnership()": {
        "details": "Leaves the contract without owner. It will not be possible to call `onlyOwner` functions anymore. Can only be called by the current owner. NOTE: Renouncing ownership will leave the contract without an owner, thereby removing any functionality that is only available to the owner."
      },
      "transferOwnership(address)": {
        "details": "Transfers ownership of the contract to a new account (`newOwner`). Can only be called by the current owner."
      }
    },
    "version": 1
  },
  "userdoc": {
    "kind": "user",
    "methods": {},
    "version": 1
  },
  "storageLayout": {
    "storage": [
      {
        "astId": 30,
        "contract": "contracts/CGOController.sol:CGOController",
        "label": "_owner",
        "offset": 0,
        "slot": "0",
        "type": "t_address"
      },
      {
        "astId": 1184,
        "contract": "contracts/CGOController.sol:CGOController",
        "label": "tokenAddr",
        "offset": 0,
        "slot": "1",
        "type": "t_address"
      },
      {
        "astId": 1186,
        "contract": "contracts/CGOController.sol:CGOController",
        "label": "initiatorAddr",
        "offset": 0,
        "slot": "2",
        "type": "t_address"
      },
      {
        "astId": 1188,
        "contract": "contracts/CGOController.sol:CGOController",
        "label": "executorAddr",
        "offset": 0,
        "slot": "3",
        "type": "t_address"
      },
      {
        "astId": 1191,
        "contract": "contracts/CGOController.sol:CGOController",
        "label": "isEditBarPaused",
        "offset": 20,
        "slot": "3",
        "type": "t_bool"
      },
      {
        "astId": 1201,
        "contract": "contracts/CGOController.sol:CGOController",
        "label": "barNumWarrantNum",
        "offset": 0,
        "slot": "4",
        "type": "t_mapping(t_string_memory_ptr,t_string_storage)"
      },
      {
        "astId": 1207,
        "contract": "contracts/CGOController.sol:CGOController",
        "label": "txnStatusRecord",
        "offset": 0,
        "slot": "5",
        "type": "t_mapping(t_string_memory_ptr,t_mapping(t_string_memory_ptr,t_enum(txnStatus)1197))"
      }
    ],
    "types": {
      "t_address": {
        "encoding": "inplace",
        "label": "address",
        "numberOfBytes": "20"
      },
      "t_bool": {
        "encoding": "inplace",
        "label": "bool",
        "numberOfBytes": "1"
      },
      "t_enum(txnStatus)1197": {
        "encoding": "inplace",
        "label": "enum CGOController.txnStatus",
        "numberOfBytes": "1"
      },
      "t_mapping(t_string_memory_ptr,t_enum(txnStatus)1197)": {
        "encoding": "mapping",
        "key": "t_string_memory_ptr",
        "label": "mapping(string => enum CGOController.txnStatus)",
        "numberOfBytes": "32",
        "value": "t_enum(txnStatus)1197"
      },
      "t_mapping(t_string_memory_ptr,t_mapping(t_string_memory_ptr,t_enum(txnStatus)1197))": {
        "encoding": "mapping",
        "key": "t_string_memory_ptr",
        "label": "mapping(string => mapping(string => enum CGOController.txnStatus))",
        "numberOfBytes": "32",
        "value": "t_mapping(t_string_memory_ptr,t_enum(txnStatus)1197)"
      },
      "t_mapping(t_string_memory_ptr,t_string_storage)": {
        "encoding": "mapping",
        "key": "t_string_memory_ptr",
        "label": "mapping(string => string)",
        "numberOfBytes": "32",
        "value": "t_string_storage"
      },
      "t_string_memory_ptr": {
        "encoding": "bytes",
        "label": "string",
        "numberOfBytes": "32"
      },
      "t_string_storage": {
        "encoding": "bytes",
        "label": "string",
        "numberOfBytes": "32"
      }
    }
  }
}