{
  "address": "0x7af454bEBA644ac40519B8c94cF5E40c88Ea52F2",
  "abi": [
    {
      "inputs": [
        {
          "internalType": "address",
          "name": "_tokenAddr",
          "type": "address"
        }
      ],
      "stateMutability": "nonpayable",
      "type": "constructor"
    },
    {
      "anonymous": false,
      "inputs": [
        {
          "indexed": false,
          "internalType": "string",
          "name": "Bar_Number",
          "type": "string"
        },
        {
          "indexed": false,
          "internalType": "string",
          "name": "Warrant_Number",
          "type": "string"
        },
        {
          "indexed": false,
          "internalType": "uint256",
          "name": "blockTimestamp",
          "type": "uint256"
        }
      ],
      "name": "BarAdded",
      "type": "event"
    },
    {
      "anonymous": false,
      "inputs": [
        {
          "indexed": false,
          "internalType": "address",
          "name": "burn_from",
          "type": "address"
        },
        {
          "indexed": false,
          "internalType": "uint256",
          "name": "amount",
          "type": "uint256"
        },
        {
          "indexed": false,
          "internalType": "string",
          "name": "Bar_Number",
          "type": "string"
        },
        {
          "indexed": false,
          "internalType": "string",
          "name": "Warrant_Number",
          "type": "string"
        },
        {
          "indexed": false,
          "internalType": "uint256",
          "name": "blockTimestamp",
          "type": "uint256"
        }
      ],
      "name": "BarBurn",
      "type": "event"
    },
    {
      "anonymous": false,
      "inputs": [
        {
          "indexed": false,
          "internalType": "address",
          "name": "to",
          "type": "address"
        },
        {
          "indexed": false,
          "internalType": "uint256",
          "name": "amount",
          "type": "uint256"
        },
        {
          "indexed": false,
          "internalType": "string",
          "name": "Bar_Number",
          "type": "string"
        },
        {
          "indexed": false,
          "internalType": "string",
          "name": "Warrant_Number",
          "type": "string"
        },
        {
          "indexed": false,
          "internalType": "uint256",
          "name": "blockTimestamp",
          "type": "uint256"
        }
      ],
      "name": "BarMint",
      "type": "event"
    },
    {
      "anonymous": false,
      "inputs": [
        {
          "indexed": false,
          "internalType": "string",
          "name": "Bar_Number",
          "type": "string"
        },
        {
          "indexed": false,
          "internalType": "string",
          "name": "Warrant_Number",
          "type": "string"
        },
        {
          "indexed": false,
          "internalType": "enum CGOController.txnStatus",
          "name": "status",
          "type": "uint8"
        },
        {
          "indexed": false,
          "internalType": "uint256",
          "name": "blockTimestamp",
          "type": "uint256"
        }
      ],
      "name": "BurnCancelled",
      "type": "event"
    },
    {
      "anonymous": false,
      "inputs": [
        {
          "indexed": false,
          "internalType": "string",
          "name": "Bar_Number",
          "type": "string"
        },
        {
          "indexed": false,
          "internalType": "string",
          "name": "Warrant_Number",
          "type": "string"
        },
        {
          "indexed": false,
          "internalType": "enum CGOController.txnStatus",
          "name": "status",
          "type": "uint8"
        },
        {
          "indexed": false,
          "internalType": "uint256",
          "name": "blockTimestamp",
          "type": "uint256"
        }
      ],
      "name": "BurnInitiated",
      "type": "event"
    },
    {
      "anonymous": false,
      "inputs": [
        {
          "indexed": false,
          "internalType": "bool",
          "name": "status",
          "type": "bool"
        }
      ],
      "name": "EditBarStatusPaused",
      "type": "event"
    },
    {
      "anonymous": false,
      "inputs": [
        {
          "indexed": false,
          "internalType": "string",
          "name": "Bar_Number",
          "type": "string"
        },
        {
          "indexed": false,
          "internalType": "string",
          "name": "Warrant_Number",
          "type": "string"
        },
        {
          "indexed": false,
          "internalType": "enum CGOController.txnStatus",
          "name": "status",
          "type": "uint8"
        },
        {
          "indexed": false,
          "internalType": "uint256",
          "name": "blockTimestamp",
          "type": "uint256"
        }
      ],
      "name": "MintCancelled",
      "type": "event"
    },
    {
      "anonymous": false,
      "inputs": [
        {
          "indexed": false,
          "internalType": "string",
          "name": "Bar_Number",
          "type": "string"
        },
        {
          "indexed": false,
          "internalType": "string",
          "name": "Warrant_Number",
          "type": "string"
        },
        {
          "indexed": false,
          "internalType": "enum CGOController.txnStatus",
          "name": "status",
          "type": "uint8"
        },
        {
          "indexed": false,
          "internalType": "uint256",
          "name": "blockTimestamp",
          "type": "uint256"
        }
      ],
      "name": "MintInitiated",
      "type": "event"
    },
    {
      "anonymous": false,
      "inputs": [
        {
          "indexed": true,
          "internalType": "address",
          "name": "previousOwner",
          "type": "address"
        },
        {
          "indexed": true,
          "internalType": "address",
          "name": "newOwner",
          "type": "address"
        }
      ],
      "name": "OwnershipTransferred",
      "type": "event"
    },
    {
      "anonymous": false,
      "inputs": [
        {
          "indexed": false,
          "internalType": "address",
          "name": "to",
          "type": "address"
        },
        {
          "indexed": false,
          "internalType": "uint256",
          "name": "amount",
          "type": "uint256"
        },
        {
          "indexed": false,
          "internalType": "uint256",
          "name": "blockTimestamp",
          "type": "uint256"
        }
      ],
      "name": "WithdrawFunds",
      "type": "event"
    },
    {
      "inputs": [
        {
          "internalType": "string",
          "name": "Bar_Number",
          "type": "string"
        },
        {
          "internalType": "string",
          "name": "Warrant_Number",
          "type": "string"
        }
      ],
      "name": "addBarNumWarrantNum",
      "outputs": [],
      "stateMutability": "nonpayable",
      "type": "function"
    },
    {
      "inputs": [
        {
          "internalType": "string",
          "name": "",
          "type": "string"
        }
      ],
      "name": "barNumWarrantNum",
      "outputs": [
        {
          "internalType": "string",
          "name": "",
          "type": "string"
        }
      ],
      "stateMutability": "view",
      "type": "function"
    },
    {
      "inputs": [
        {
          "internalType": "address",
          "name": "user",
          "type": "address"
        },
        {
          "internalType": "bool",
          "name": "value",
          "type": "bool"
        }
      ],
      "name": "blacklistUpdate",
      "outputs": [],
      "stateMutability": "nonpayable",
      "type": "function"
    },
    {
      "inputs": [
        {
          "internalType": "uint256",
          "name": "amount",
          "type": "uint256"
        },
        {
          "internalType": "string",
          "name": "Bar_Number",
          "type": "string"
        },
        {
          "internalType": "string",
          "name": "Warrant_Number",
          "type": "string"
        }
      ],
      "name": "burn",
      "outputs": [],
      "stateMutability": "nonpayable",
      "type": "function"
    },
    {
      "inputs": [
        {
          "internalType": "string",
          "name": "Bar_Number",
          "type": "string"
        },
        {
          "internalType": "string",
          "name": "Warrant_Number",
          "type": "string"
        }
      ],
      "name": "cancelInitiateBurn",
      "outputs": [],
      "stateMutability": "nonpayable",
      "type": "function"
    },
    {
      "inputs": [
        {
          "internalType": "string",
          "name": "Bar_Number",
          "type": "string"
        },
        {
          "internalType": "string",
          "name": "Warrant_Number",
          "type": "string"
        }
      ],
      "name": "cancelInitiateMint",
      "outputs": [],
      "stateMutability": "nonpayable",
      "type": "function"
    },
    {
      "inputs": [],
      "name": "executorAddr",
      "outputs": [
        {
          "internalType": "address",
          "name": "",
          "type": "address"
        }
      ],
      "stateMutability": "view",
      "type": "function"
    },
    {
      "inputs": [
        {
          "internalType": "string",
          "name": "Bar_Number",
          "type": "string"
        },
        {
          "internalType": "string",
          "name": "Warrant_Number",
          "type": "string"
        }
      ],
      "name": "initiateBurn",
      "outputs": [],
      "stateMutability": "nonpayable",
      "type": "function"
    },
    {
      "inputs": [
        {
          "internalType": "string",
          "name": "Bar_Number",
          "type": "string"
        },
        {
          "internalType": "string",
          "name": "Warrant_Number",
          "type": "string"
        }
      ],
      "name": "initiateMint",
      "outputs": [],
      "stateMutability": "nonpayable",
      "type": "function"
    },
    {
      "inputs": [],
      "name": "initiatorAddr",
      "outputs": [
        {
          "internalType": "address",
          "name": "",
          "type": "address"
        }
      ],
      "stateMutability": "view",
      "type": "function"
    },
    {
      "inputs": [],
      "name": "isEditBarPaused",
      "outputs": [
        {
          "internalType": "bool",
          "name": "",
          "type": "bool"
        }
      ],
      "stateMutability": "view",
      "type": "function"
    },
    {
      "inputs": [
        {
          "internalType": "address",
          "name": "to",
          "type": "address"
        },
        {
          "internalType": "uint256",
          "name": "amount",
          "type": "uint256"
        },
        {
          "internalType": "string",
          "name": "Bar_Number",
          "type": "string"
        },
        {
          "internalType": "string",
          "name": "Warrant_Number",
          "type": "string"
        }
      ],
      "name": "mint",
      "outputs": [],
      "stateMutability": "nonpayable",
      "type": "function"
    },
    {
      "inputs": [],
      "name": "minterWalletAddr",
      "outputs": [
        {
          "internalType": "address",
          "name": "",
          "type": "address"
        }
      ],
      "stateMutability": "view",
      "type": "function"
    },
    {
      "inputs": [],
      "name": "owner",
      "outputs": [
        {
          "internalType": "address",
          "name": "",
          "type": "address"
        }
      ],
      "stateMutability": "view",
      "type": "function"
    },
    {
      "inputs": [
        {
          "internalType": "bool",
          "name": "status",
          "type": "bool"
        }
      ],
      "name": "pauseEditBar",
      "outputs": [],
      "stateMutability": "nonpayable",
      "type": "function"
    },
    {
      "inputs": [
        {
          "internalType": "string",
          "name": "Bar_Number",
          "type": "string"
        },
        {
          "internalType": "string",
          "name": "Warrant_Number",
          "type": "string"
        }
      ],
      "name": "removeBarNumWarrantNum",
      "outputs": [],
      "stateMutability": "nonpayable",
      "type": "function"
    },
    {
      "inputs": [],
      "name": "renounceOwnership",
      "outputs": [],
      "stateMutability": "nonpayable",
      "type": "function"
    },
    {
      "inputs": [
        {
          "internalType": "address",
          "name": "_executorAddr",
          "type": "address"
        }
      ],
      "name": "setExecutorAddr",
      "outputs": [],
      "stateMutability": "nonpayable",
      "type": "function"
    },
    {
      "inputs": [
        {
          "internalType": "address",
          "name": "_initiatorAddr",
          "type": "address"
        }
      ],
      "name": "setInitiatorAddr",
      "outputs": [],
      "stateMutability": "nonpayable",
      "type": "function"
    },
    {
      "inputs": [
        {
          "internalType": "address",
          "name": "_minterWalletAddr",
          "type": "address"
        }
      ],
      "name": "setMinterWalletAddr",
      "outputs": [],
      "stateMutability": "nonpayable",
      "type": "function"
    },
    {
      "inputs": [],
      "name": "tokenAddr",
      "outputs": [
        {
          "internalType": "address",
          "name": "",
          "type": "address"
        }
      ],
      "stateMutability": "view",
      "type": "function"
    },
    {
      "inputs": [
        {
          "internalType": "address",
          "name": "newOwner",
          "type": "address"
        }
      ],
      "name": "transferCgoOwnership",
      "outputs": [],
      "stateMutability": "nonpayable",
      "type": "function"
    },
    {
      "inputs": [
        {
          "internalType": "address",
          "name": "newOwner",
          "type": "address"
        }
      ],
      "name": "transferOwnership",
      "outputs": [],
      "stateMutability": "nonpayable",
      "type": "function"
    },
    {
      "inputs": [
        {
          "internalType": "string",
          "name": "",
          "type": "string"
        },
        {
          "internalType": "string",
          "name": "",
          "type": "string"
        }
      ],
      "name": "txnStatusRecord",
      "outputs": [
        {
          "internalType": "enum CGOController.txnStatus",
          "name": "",
          "type": "uint8"
        }
      ],
      "stateMutability": "view",
      "type": "function"
    },
    {
      "inputs": [
        {
          "internalType": "address",
          "name": "to",
          "type": "address"
        },
        {
          "internalType": "uint256",
          "name": "amount",
          "type": "uint256"
        }
      ],
      "name": "withdrawFunds",
      "outputs": [],
      "stateMutability": "nonpayable",
      "type": "function"
    }
  ],
  "transactionHash": "0x675a2600e5fcc7568611214ccdedbf4c9622223f50fe69233d56ae2cc8fe87ea",
  "args": [
    "0xAa621133002E519918e4Bf08945600FCB79dbfC7"
  ],
  "numDeployments": 1,
  "solcInputHash": "ac0d73db74d9db51d7beb3dc4b37dd33",
  "bytecode": "0x60806040526004805460ff60a01b191690553480156200001e57600080fd5b50604051620049d1380380620049d1833981810160405260208110156200004457600080fd5b50516000620000526200012f565b600080546001600160a01b0319166001600160a01b0383169081178255604051929350917f8be0079c531659141344cd1fd0a4f28419497f9722a3daafe3b4186f6b6457e0908290a3506001600160a01b038116620000ea576040805162461bcd60e51b815260206004820152600f60248201526e496e76616c6964206164647265737360881b604482015290519081900360640190fd5b600180546001600160a01b039092166001600160a01b031992831617905560028054821633908117909155600380548316821790556004805490921617905562000133565b3390565b61488e80620001436000396000f3fe608060405234801561001057600080fd5b50600436106101735760003560e01c8063715018a6116100de578063ba211db011610097578063cc49109a11610071578063cc49109a14610c52578063d12554d914610d6b578063f2fde38b14610e94578063fe33248e14610eba57610173565b8063ba211db014610aee578063bb52c50914610c1e578063c107532914610c2657610173565b8063715018a614610a84578063760fa67f14610a8c5780638da5cb5b14610a94578063a71ecc6114610a9c578063b00455c114610ab8578063b351dfe814610ac057610173565b8063500e46ab11610130578063500e46ab1461067f5780635eacf728146106a55780635fbe4d1d146107ef5780636037749d14610813578063686fa7d61461093c5780636c7ff3bb14610a6557610173565b8063055e2905146101785780630850c0ac146102a3578063236e2f40146103cc5780632fb102cf146103f2578063394d5c93146105305780634a68167314610659575b600080fd5b6102a16004803603604081101561018e57600080fd5b810190602081018135600160201b8111156101a857600080fd5b8201836020820111156101ba57600080fd5b803590602001918460018302840111600160201b831117156101db57600080fd5b91908080601f0160208091040260200160405190810160405280939291908181526020018383808284376000920191909152509295949360208101935035915050600160201b81111561022d57600080fd5b82018360208201111561023f57600080fd5b803590602001918460018302840111600160201b8311171561026057600080fd5b91908080601f016020809104026020016040519081016040528093929190818152602001838380828437600092019190915250929550610ee0945050505050565b005b6102a1600480360360408110156102b957600080fd5b810190602081018135600160201b8111156102d357600080fd5b8201836020820111156102e557600080fd5b803590602001918460018302840111600160201b8311171561030657600080fd5b91908080601f0160208091040260200160405190810160405280939291908181526020018383808284376000920191909152509295949360208101935035915050600160201b81111561035857600080fd5b82018360208201111561036a57600080fd5b803590602001918460018302840111600160201b8311171561038b57600080fd5b91908080601f0160208091040260200160405190810160405280939291908181526020018383808284376000920191909152509295506115b3945050505050565b6102a1600480360360208110156103e257600080fd5b50356001600160a01b0316611b67565b6102a16004803603608081101561040857600080fd5b6001600160a01b0382351691602081013591810190606081016040820135600160201b81111561043757600080fd5b82018360208201111561044957600080fd5b803590602001918460018302840111600160201b8311171561046a57600080fd5b91908080601f0160208091040260200160405190810160405280939291908181526020018383808284376000920191909152509295949360208101935035915050600160201b8111156104bc57600080fd5b8201836020820111156104ce57600080fd5b803590602001918460018302840111600160201b831117156104ef57600080fd5b91908080601f016020809104026020016040519081016040528093929190818152602001838380828437600092019190915250929550611c2e945050505050565b6102a16004803603604081101561054657600080fd5b810190602081018135600160201b81111561056057600080fd5b82018360208201111561057257600080fd5b803590602001918460018302840111600160201b8311171561059357600080fd5b91908080601f0160208091040260200160405190810160405280939291908181526020018383808284376000920191909152509295949360208101935035915050600160201b8111156105e557600080fd5b8201836020820111156105f757600080fd5b803590602001918460018302840111600160201b8311171561061857600080fd5b91908080601f0160208091040260200160405190810160405280939291908181526020018383808284376000920191909152509295506122cb945050505050565b6102a16004803603602081101561066f57600080fd5b50356001600160a01b03166128bd565b6102a16004803603602081101561069557600080fd5b50356001600160a01b031661297e565b6107ce600480360360408110156106bb57600080fd5b810190602081018135600160201b8111156106d557600080fd5b8201836020820111156106e757600080fd5b803590602001918460018302840111600160201b8311171561070857600080fd5b91908080601f0160208091040260200160405190810160405280939291908181526020018383808284376000920191909152509295949360208101935035915050600160201b81111561075a57600080fd5b82018360208201111561076c57600080fd5b803590602001918460018302840111600160201b8311171561078d57600080fd5b91908080601f016020809104026020016040519081016040528093929190818152602001838380828437600092019190915250929550612a45945050505050565b604051808260048111156107de57fe5b815260200191505060405180910390f35b6107f7612a82565b604080516001600160a01b039092168252519081900360200190f35b6102a16004803603604081101561082957600080fd5b810190602081018135600160201b81111561084357600080fd5b82018360208201111561085557600080fd5b803590602001918460018302840111600160201b8311171561087657600080fd5b91908080601f0160208091040260200160405190810160405280939291908181526020018383808284376000920191909152509295949360208101935035915050600160201b8111156108c857600080fd5b8201836020820111156108da57600080fd5b803590602001918460018302840111600160201b831117156108fb57600080fd5b91908080601f016020809104026020016040519081016040528093929190818152602001838380828437600092019190915250929550612a91945050505050565b6102a16004803603604081101561095257600080fd5b810190602081018135600160201b81111561096c57600080fd5b82018360208201111561097e57600080fd5b803590602001918460018302840111600160201b8311171561099f57600080fd5b91908080601f0160208091040260200160405190810160405280939291908181526020018383808284376000920191909152509295949360208101935035915050600160201b8111156109f157600080fd5b820183602082011115610a0357600080fd5b803590602001918460018302840111600160201b83111715610a2457600080fd5b91908080601f016020809104026020016040519081016040528093929190818152602001838380828437600092019190915250929550612f24945050505050565b6102a160048036036020811015610a7b57600080fd5b503515156135f4565b6102a161369e565b6107f7613740565b6107f761374f565b610aa461375e565b604080519115158252519081900360200190f35b6107f761376e565b6102a160048036036040811015610ad657600080fd5b506001600160a01b038135169060200135151561377d565b6102a160048036036060811015610b0457600080fd5b81359190810190604081016020820135600160201b811115610b2557600080fd5b820183602082011115610b3757600080fd5b803590602001918460018302840111600160201b83111715610b5857600080fd5b91908080601f0160208091040260200160405190810160405280939291908181526020018383808284376000920191909152509295949360208101935035915050600160201b811115610baa57600080fd5b820183602082011115610bbc57600080fd5b803590602001918460018302840111600160201b83111715610bdd57600080fd5b91908080601f016020809104026020016040519081016040528093929190818152602001838380828437600092019190915250929550613847945050505050565b6107f7613f35565b6102a160048036036040811015610c3c57600080fd5b506001600160a01b038135169060200135613f44565b610cf660048036036020811015610c6857600080fd5b810190602081018135600160201b811115610c8257600080fd5b820183602082011115610c9457600080fd5b803590602001918460018302840111600160201b83111715610cb557600080fd5b91908080601f01602080910402602001604051908101604052809392919081815260200183838082843760009201919091525092955061406a945050505050565b6040805160208082528351818301528351919283929083019185019080838360005b83811015610d30578181015183820152602001610d18565b50505050905090810190601f168015610d5d5780820380516001836020036101000a031916815260200191505b509250505060405180910390f35b6102a160048036036040811015610d8157600080fd5b810190602081018135600160201b811115610d9b57600080fd5b820183602082011115610dad57600080fd5b803590602001918460018302840111600160201b83111715610dce57600080fd5b91908080601f0160208091040260200160405190810160405280939291908181526020018383808284376000920191909152509295949360208101935035915050600160201b811115610e2057600080fd5b820183602082011115610e3257600080fd5b803590602001918460018302840111600160201b83111715610e5357600080fd5b91908080601f016020809104026020016040519081016040528093929190818152602001838380828437600092019190915250929550614111945050505050565b6102a160048036036020811015610eaa57600080fd5b50356001600160a01b0316614495565b6102a160048036036020811015610ed057600080fd5b50356001600160a01b031661458d565b6003546001600160a01b03163314610f295760405162461bcd60e51b81526004018080602001828103825260248152602001806147f06024913960400191505060405180910390fd5b60036006836040518082805190602001908083835b60208310610f5d5780518252601f199092019160209182019101610f3e565b51815160209384036101000a6000190180199092169116179052920194855250604051938490038101842086519094879450925082918401908083835b60208310610fb95780518252601f199092019160209182019101610f9a565b51815160209384036101000a600019018019909216911617905292019485525060405193849003019092205460ff169150506004811115610ff657fe5b14806110cc575060046006836040518082805190602001908083835b602083106110315780518252601f199092019160209182019101611012565b51815160209384036101000a6000190180199092169116179052920194855250604051938490038101842086519094879450925082918401908083835b6020831061108d5780518252601f19909201916020918201910161106e565b51815160209384036101000a600019018019909216911617905292019485525060405193849003019092205460ff1691505060048111156110ca57fe5b145b1561111e576040805162461bcd60e51b815260206004820152601f60248201527f4275726e207265717565737420657869737420666f7220746869732042617200604482015290519081900360640190fd5b806040516020018082805190602001908083835b602083106111515780518252601f199092019160209182019101611132565b6001836020036101000a038019825116818451168082178552505050505050905001915050604051602081830303815290604052805190602001206005836040518082805190602001908083835b602083106111be5780518252601f19909201916020918201910161119f565b6001836020036101000a0380198251168184511680821785525050505050509050019150509081526020016040518091039020604051602001808280546001816001161561010002031660029004801561124f5780601f1061122d57610100808354040283529182019161124f565b820191906000526020600020905b81548152906001019060200180831161123b575b50509150506040516020818303038152906040528051906020012014156112b1576040805162461bcd60e51b815260206004820152601160248201527010985c88185b1c9958591e48195e1a5cdd607a1b604482015290519081900360640190fd5b60016006836040518082805190602001908083835b602083106112e55780518252601f1990920191602091820191016112c6565b51815160209384036101000a6000190180199092169116179052920194855250604051938490038101842086519094879450925082918401908083835b602083106113415780518252601f199092019160209182019101611322565b51815160209384036101000a600019018019909216911617905292019485525060405193849003019092205460ff16915050600481111561137e57fe5b146113ba5760405162461bcd60e51b81526004018080602001828103825260218152602001806147ae6021913960400191505060405180910390fd5b60006006836040518082805190602001908083835b602083106113ee5780518252601f1990920191602091820191016113cf565b51815160209384036101000a6000190180199092169116179052920194855250604051938490038101842086519094879450925082918401908083835b6020831061144a5780518252601f19909201916020918201910161142b565b51815160209384036101000a60001901801990921691161790529201948552506040519384900301909220805490925060ff19169050600183600481111561148e57fe5b02179055507f9d4accb2107ee20e5db3b4f98391d966b451342605340fbafc461a817015662c82826000426040518080602001806020018560048111156114d157fe5b8152602001848152602001838103835287818151815260200191508051906020019080838360005b838110156115115781810151838201526020016114f9565b50505050905090810190601f16801561153e5780820380516001836020036101000a031916815260200191505b50838103825286518152865160209182019188019080838360005b83811015611571578181015183820152602001611559565b50505050905090810190601f16801561159e5780820380516001836020036101000a031916815260200191505b50965050505050505060405180910390a15050565b6003546001600160a01b031633146115fc5760405162461bcd60e51b81526004018080602001828103825260248152602001806147f06024913960400191505060405180910390fd5b600154604080516370a0823160e01b81523060048201529051683635c9adc5dea00000926001600160a01b0316916370a08231916024808301926020929190829003018186803b15801561164f57600080fd5b505afa158015611663573d6000803e3d6000fd5b505050506040513d602081101561167957600080fd5b505110156116c9576040805162461bcd60e51b8152602060048201526018602482015277496e73756666696369656e742043474f2042616c616e636560401b604482015290519081900360640190fd5b60036006836040518082805190602001908083835b602083106116fd5780518252601f1990920191602091820191016116de565b51815160209384036101000a6000190180199092169116179052920194855250604051938490038101842086519094879450925082918401908083835b602083106117595780518252601f19909201916020918201910161173a565b51815160209384036101000a600019018019909216911617905292019485525060405193849003019092205460ff16915050600481111561179657fe5b1415801561186f575060046006836040518082805190602001908083835b602083106117d35780518252601f1990920191602091820191016117b4565b51815160209384036101000a6000190180199092169116179052920194855250604051938490038101842086519094879450925082918401908083835b6020831061182f5780518252601f199092019160209182019101611810565b51815160209384036101000a600019018019909216911617905292019485525060405193849003019092205460ff16915050600481111561186c57fe5b14155b156118ba576040805162461bcd60e51b8152602060048201526016602482015275109d5c9b881c995c5d595cdd081b9bdd08195e1a5cdd60521b604482015290519081900360640190fd5b806040516020018082805190602001908083835b602083106118ed5780518252601f1990920191602091820191016118ce565b6001836020036101000a038019825116818451168082178552505050505050905001915050604051602081830303815290604052805190602001206005836040518082805190602001908083835b6020831061195a5780518252601f19909201916020918201910161193b565b6001836020036101000a038019825116818451168082178552505050505050905001915050908152602001604051809103902060405160200180828054600181600116156101000203166002900480156119eb5780601f106119c95761010080835404028352918201916119eb565b820191906000526020600020905b8154815290600101906020018083116119d7575b50509150506040516020818303038152906040528051906020012014611a50576040805162461bcd60e51b8152602060048201526015602482015274496e636f7272656374204261722064657461696c7360581b604482015290519081900360640190fd5b60026006836040518082805190602001908083835b60208310611a845780518252601f199092019160209182019101611a65565b51815160209384036101000a6000190180199092169116179052920194855250604051938490038101842086519094879450925082918401908083835b60208310611ae05780518252601f199092019160209182019101611ac1565b51815160209384036101000a60001901801990921691161790529201948552506040519384900301909220805490925060ff191690506001836004811115611b2457fe5b02179055507fcf3ee20cd1f2309d649403cbbd69c1a9649bcd5de8ae5cc86083c8a75f9296dd82826002426040518080602001806020018560048111156114d157fe5b611b6f614654565b6000546001600160a01b03908116911614611bbf576040805162461bcd60e51b81526020600482018190526024820152600080516020614839833981519152604482015290519081900360640190fd5b6001600160a01b038116611c0c576040805162461bcd60e51b815260206004820152600f60248201526e496e76616c6964206164647265737360881b604482015290519081900360640190fd5b600280546001600160a01b0319166001600160a01b0392909216919091179055565b6003546001600160a01b03163314611c775760405162461bcd60e51b81526004018080602001828103825260248152602001806147f06024913960400191505060405180910390fd5b6004546001600160a01b038581169116141580611c9b57506001600160a01b038416155b15611ce4576040805162461bcd60e51b8152602060048201526014602482015273496e76616c6964204d696e74206164647265737360601b604482015290519081900360640190fd5b806040516020018082805190602001908083835b60208310611d175780518252601f199092019160209182019101611cf8565b6001836020036101000a038019825116818451168082178552505050505050905001915050604051602081830303815290604052805190602001206005836040518082805190602001908083835b60208310611d845780518252601f199092019160209182019101611d65565b6001836020036101000a03801982511681845116808217855250505050505090500191505090815260200160405180910390206040516020018082805460018160011615610100020316600290048015611e155780601f10611df3576101008083540402835291820191611e15565b820191906000526020600020905b815481529060010190602001808311611e01575b5050915050604051602081830303815290604052805190602001201415611e77576040805162461bcd60e51b815260206004820152601160248201527010985c88185b1c9958591e48195e1a5cdd607a1b604482015290519081900360640190fd5b60016006836040518082805190602001908083835b60208310611eab5780518252601f199092019160209182019101611e8c565b51815160209384036101000a6000190180199092169116179052920194855250604051938490038101842086519094879450925082918401908083835b60208310611f075780518252601f199092019160209182019101611ee8565b51815160209384036101000a600019018019909216911617905292019485525060405193849003019092205460ff169150506004811115611f4457fe5b14611f805760405162461bcd60e51b81526004018080602001828103825260218152602001806147ae6021913960400191505060405180910390fd5b826103e814611fd6576040805162461bcd60e51b815260206004820152601a60248201527f4d696e7420616d6f756e742073686f756c642062652031303030000000000000604482015290519081900360640190fd5b806005836040518082805190602001908083835b602083106120095780518252601f199092019160209182019101611fea565b51815160209384036101000a6000190180199092169116179052920194855250604051938490038101909320845161204a9591949190910192509050614658565b5060026006836040518082805190602001908083835b6020831061207f5780518252601f199092019160209182019101612060565b51815160209384036101000a6000190180199092169116179052920194855250604051938490038101842086519094879450925082918401908083835b602083106120db5780518252601f1990920191602091820191016120bc565b51815160209384036101000a60001901801990921691161790529201948552506040519384900301909220805490925060ff19169050600183600481111561211f57fe5b02179055507fc884bf3bd7d1c34a6c2ded65f6ee40d38e0bd30780f305874d931f08c7df2f548484670de0b6b3a76400000284844260405180866001600160a01b031681526020018581526020018060200180602001848152602001838103835286818151815260200191508051906020019080838360005b838110156121b0578181015183820152602001612198565b50505050905090810190601f1680156121dd5780820380516001836020036101000a031916815260200191505b50838103825285518152855160209182019187019080838360005b838110156122105781810151838201526020016121f8565b50505050905090810190601f16801561223d5780820380516001836020036101000a031916815260200191505b5097505050505050505060405180910390a1600154604080516340c10f1960e01b81526001600160a01b038781166004830152670de0b6b3a764000087026024830152915191909216916340c10f1991604480830192600092919082900301818387803b1580156122ad57600080fd5b505af11580156122c1573d6000803e3d6000fd5b5050505050505050565b6002546001600160a01b031633146123145760405162461bcd60e51b81526004018080602001828103825260258152602001806147416025913960400191505060405180910390fd5b60036006836040518082805190602001908083835b602083106123485780518252601f199092019160209182019101612329565b51815160209384036101000a6000190180199092169116179052920194855250604051938490038101842086519094879450925082918401908083835b602083106123a45780518252601f199092019160209182019101612385565b51815160209384036101000a600019018019909216911617905292019485525060405193849003019092205460ff1691505060048111156123e157fe5b14806124b7575060046006836040518082805190602001908083835b6020831061241c5780518252601f1990920191602091820191016123fd565b51815160209384036101000a6000190180199092169116179052920194855250604051938490038101842086519094879450925082918401908083835b602083106124785780518252601f199092019160209182019101612459565b51815160209384036101000a600019018019909216911617905292019485525060405193849003019092205460ff1691505060048111156124b557fe5b145b15612509576040805162461bcd60e51b815260206004820152601f60248201527f4275726e207265717565737420657869737420666f7220746869732042617200604482015290519081900360640190fd5b806040516020018082805190602001908083835b6020831061253c5780518252601f19909201916020918201910161251d565b6001836020036101000a038019825116818451168082178552505050505050905001915050604051602081830303815290604052805190602001206005836040518082805190602001908083835b602083106125a95780518252601f19909201916020918201910161258a565b6001836020036101000a0380198251168184511680821785525050505050509050019150509081526020016040518091039020604051602001808280546001816001161561010002031660029004801561263a5780601f1061261857610100808354040283529182019161263a565b820191906000526020600020905b815481529060010190602001808311612626575b505091505060405160208183030381529060405280519060200120141561269c576040805162461bcd60e51b815260206004820152601160248201527010985c88185b1c9958591e48195e1a5cdd607a1b604482015290519081900360640190fd5b60016006836040518082805190602001908083835b602083106126d05780518252601f1990920191602091820191016126b1565b51815160209384036101000a6000190180199092169116179052920194855250604051938490038101842086519094879450925082918401908083835b6020831061272c5780518252601f19909201916020918201910161270d565b51815160209384036101000a600019018019909216911617905292019485525060405193849003019092205460ff16915050600481111561276957fe5b14156127a65760405162461bcd60e51b81526004018080602001828103825260258152602001806148146025913960400191505060405180910390fd5b60016006836040518082805190602001908083835b602083106127da5780518252601f1990920191602091820191016127bb565b51815160209384036101000a6000190180199092169116179052920194855250604051938490038101842086519094879450925082918401908083835b602083106128365780518252601f199092019160209182019101612817565b51815160209384036101000a60001901801990921691161790529201948552506040519384900301909220805490925060ff19169050600183600481111561287a57fe5b02179055507f49483cc5cb083eaa0b29a1c58d24c7cb38ab0b2040261c75977e8c066cb8fe4982826001426040518080602001806020018560048111156114d157fe5b6128c5614654565b6000546001600160a01b03908116911614612915576040805162461bcd60e51b81526020600482018190526024820152600080516020614839833981519152604482015290519081900360640190fd5b6001546040805163f2fde38b60e01b81526001600160a01b0384811660048301529151919092169163f2fde38b91602480830192600092919082900301818387803b15801561296357600080fd5b505af1158015612977573d6000803e3d6000fd5b5050505050565b612986614654565b6000546001600160a01b039081169116146129d6576040805162461bcd60e51b81526020600482018190526024820152600080516020614839833981519152604482015290519081900360640190fd5b6001600160a01b038116612a23576040805162461bcd60e51b815260206004820152600f60248201526e496e76616c6964206164647265737360881b604482015290519081900360640190fd5b600380546001600160a01b0319166001600160a01b0392909216919091179055565b8151602081840181018051600682529282019482019490942091909352815180830184018051928152908401929093019190912091525460ff1681565b6001546001600160a01b031681565b612a99614654565b6000546001600160a01b03908116911614612ae9576040805162461bcd60e51b81526020600482018190526024820152600080516020614839833981519152604482015290519081900360640190fd5b600454600160a01b900460ff16151560011415612b375760405162461bcd60e51b815260040180806020018281038252602281526020018061478c6022913960400191505060405180910390fd5b806040516020018082805190602001908083835b60208310612b6a5780518252601f199092019160209182019101612b4b565b6001836020036101000a038019825116818451168082178552505050505050905001915050604051602081830303815290604052805190602001206005836040518082805190602001908083835b60208310612bd75780518252601f199092019160209182019101612bb8565b6001836020036101000a03801982511681845116808217855250505050505090500191505090815260200160405180910390206040516020018082805460018160011615610100020316600290048015612c685780601f10612c46576101008083540402835291820191612c68565b820191906000526020600020905b815481529060010190602001808311612c54575b5050915050604051602081830303815290604052805190602001201415612cca576040805162461bcd60e51b815260206004820152601160248201527010985c88185b1c9958591e48195e1a5cdd607a1b604482015290519081900360640190fd5b806005836040518082805190602001908083835b60208310612cfd5780518252601f199092019160209182019101612cde565b51815160209384036101000a60001901801990921691161790529201948552506040519384900381019093208451612d3e9591949190910192509050614658565b5060026006836040518082805190602001908083835b60208310612d735780518252601f199092019160209182019101612d54565b51815160209384036101000a6000190180199092169116179052920194855250604051938490038101842086519094879450925082918401908083835b60208310612dcf5780518252601f199092019160209182019101612db0565b51815160209384036101000a60001901801990921691161790529201948552506040519384900301909220805490925060ff191690506001836004811115612e1357fe5b02179055507f3adabc5d48a05610840711441d2906d99441609c843838983a676921504981b2828242604051808060200180602001848152602001838103835286818151815260200191508051906020019080838360005b83811015612e83578181015183820152602001612e6b565b50505050905090810190601f168015612eb05780820380516001836020036101000a031916815260200191505b50838103825285518152855160209182019187019080838360005b83811015612ee3578181015183820152602001612ecb565b50505050905090810190601f168015612f105780820380516001836020036101000a031916815260200191505b509550505050505060405180910390a15050565b6002546001600160a01b03163314612f6d5760405162461bcd60e51b81526004018080602001828103825260258152602001806147416025913960400191505060405180910390fd5b600154604080516370a0823160e01b81523060048201529051683635c9adc5dea00000926001600160a01b0316916370a08231916024808301926020929190829003018186803b158015612fc057600080fd5b505afa158015612fd4573d6000803e3d6000fd5b505050506040513d6020811015612fea57600080fd5b5051101561303a576040805162461bcd60e51b8152602060048201526018602482015277496e73756666696369656e742043474f2042616c616e636560401b604482015290519081900360640190fd5b60036006836040518082805190602001908083835b6020831061306e5780518252601f19909201916020918201910161304f565b51815160209384036101000a6000190180199092169116179052920194855250604051938490038101842086519094879450925082918401908083835b602083106130ca5780518252601f1990920191602091820191016130ab565b51815160209384036101000a600019018019909216911617905292019485525060405193849003019092205460ff16915050600481111561310757fe5b14806131dd575060046006836040518082805190602001908083835b602083106131425780518252601f199092019160209182019101613123565b51815160209384036101000a6000190180199092169116179052920194855250604051938490038101842086519094879450925082918401908083835b6020831061319e5780518252601f19909201916020918201910161317f565b51815160209384036101000a600019018019909216911617905292019485525060405193849003019092205460ff1691505060048111156131db57fe5b145b1561322f576040805162461bcd60e51b815260206004820152601a60248201527f4275726e207265717565737420616c7265616479206578697374000000000000604482015290519081900360640190fd5b806040516020018082805190602001908083835b602083106132625780518252601f199092019160209182019101613243565b6001836020036101000a038019825116818451168082178552505050505050905001915050604051602081830303815290604052805190602001206005836040518082805190602001908083835b602083106132cf5780518252601f1990920191602091820191016132b0565b6001836020036101000a038019825116818451168082178552505050505050905001915050908152602001604051809103902060405160200180828054600181600116156101000203166002900480156133605780601f1061333e576101008083540402835291820191613360565b820191906000526020600020905b81548152906001019060200180831161334c575b505091505060405160208183030381529060405280519060200120146133c5576040805162461bcd60e51b8152602060048201526015602482015274496e636f7272656374204261722064657461696c7360581b604482015290519081900360640190fd5b60026006836040518082805190602001908083835b602083106133f95780518252601f1990920191602091820191016133da565b51815160209384036101000a6000190180199092169116179052920194855250604051938490038101842086519094879450925082918401908083835b602083106134555780518252601f199092019160209182019101613436565b51815160209384036101000a600019018019909216911617905292019485525060405193849003019092205460ff16915050600481111561349257fe5b146134dd576040805162461bcd60e51b8152602060048201526016602482015275135a5b9d081c995c5d595cdd081b9bdd08195e1a5cdd60521b604482015290519081900360640190fd5b60036006836040518082805190602001908083835b602083106135115780518252601f1990920191602091820191016134f2565b51815160209384036101000a6000190180199092169116179052920194855250604051938490038101842086519094879450925082918401908083835b6020831061356d5780518252601f19909201916020918201910161354e565b51815160209384036101000a60001901801990921691161790529201948552506040519384900301909220805490925060ff1916905060018360048111156135b157fe5b02179055507f77d814b94732be342b8a45d00c07b7890cd5fa552c28efeee1f7cd0236baf39382826003426040518080602001806020018560048111156114d157fe5b6135fc614654565b6000546001600160a01b0390811691161461364c576040805162461bcd60e51b81526020600482018190526024820152600080516020614839833981519152604482015290519081900360640190fd5b60048054821515600160a01b810260ff60a01b199092169190911790915560408051918252517e642bba6e3f08aa2c941bc293d57dfe61e9c3c1dd1e282c2871af333aa612ab9181900360200190a150565b6136a6614654565b6000546001600160a01b039081169116146136f6576040805162461bcd60e51b81526020600482018190526024820152600080516020614839833981519152604482015290519081900360640190fd5b600080546040516001600160a01b03909116907f8be0079c531659141344cd1fd0a4f28419497f9722a3daafe3b4186f6b6457e0908390a3600080546001600160a01b0319169055565b6003546001600160a01b031681565b6000546001600160a01b031690565b600454600160a01b900460ff1681565b6002546001600160a01b031681565b613785614654565b6000546001600160a01b039081169116146137d5576040805162461bcd60e51b81526020600482018190526024820152600080516020614839833981519152604482015290519081900360640190fd5b6001546040805163166a3bfd60e31b81526001600160a01b03858116600483015284151560248301529151919092169163b351dfe891604480830192600092919082900301818387803b15801561382b57600080fd5b505af115801561383f573d6000803e3d6000fd5b505050505050565b6003546001600160a01b031633146138905760405162461bcd60e51b81526004018080602001828103825260248152602001806147f06024913960400191505060405180910390fd5b806040516020018082805190602001908083835b602083106138c35780518252601f1990920191602091820191016138a4565b6001836020036101000a038019825116818451168082178552505050505050905001915050604051602081830303815290604052805190602001206005836040518082805190602001908083835b602083106139305780518252601f199092019160209182019101613911565b6001836020036101000a038019825116818451168082178552505050505050905001915050908152602001604051809103902060405160200180828054600181600116156101000203166002900480156139c15780601f1061399f5761010080835404028352918201916139c1565b820191906000526020600020905b8154815290600101906020018083116139ad575b50509150506040516020818303038152906040528051906020012014613a26576040805162461bcd60e51b8152602060048201526015602482015274496e636f7272656374204261722064657461696c7360581b604482015290519081900360640190fd5b60036006836040518082805190602001908083835b60208310613a5a5780518252601f199092019160209182019101613a3b565b51815160209384036101000a6000190180199092169116179052920194855250604051938490038101842086519094879450925082918401908083835b60208310613ab65780518252601f199092019160209182019101613a97565b51815160209384036101000a600019018019909216911617905292019485525060405193849003019092205460ff169150506004811115613af357fe5b14613b2f5760405162461bcd60e51b81526004018080602001828103825260218152602001806147cf6021913960400191505060405180910390fd5b826103e814613b85576040805162461bcd60e51b815260206004820152601a60248201527f4275726e20616d6f756e742073686f756c642062652031303030000000000000604482015290519081900360640190fd5b600154604080516370a0823160e01b81523060048201529051670de0b6b3a76400008602926001600160a01b0316916370a08231916024808301926020929190829003018186803b158015613bd957600080fd5b505afa158015613bed573d6000803e3d6000fd5b505050506040513d6020811015613c0357600080fd5b50511015613c53576040805162461bcd60e51b8152602060048201526018602482015277496e73756666696369656e742043474f2042616c616e636560401b604482015290519081900360640190fd5b6005826040518082805190602001908083835b60208310613c855780518252601f199092019160209182019101613c66565b51815160209384036101000a60001901801990921691161790529201948552506040519384900301909220613cbe9250905060006146e4565b60046006836040518082805190602001908083835b60208310613cf25780518252601f199092019160209182019101613cd3565b51815160209384036101000a6000190180199092169116179052920194855250604051938490038101842086519094879450925082918401908083835b60208310613d4e5780518252601f199092019160209182019101613d2f565b51815160209384036101000a60001901801990921691161790529201948552506040519384900301909220805490925060ff191690506001836004811115613d9257fe5b02179055507f0e56c44ea5d45b5662912b69d1a0ef950e3a469738543db1152d3cf0781495e33084670de0b6b3a76400000284844260405180866001600160a01b031681526020018581526020018060200180602001848152602001838103835286818151815260200191508051906020019080838360005b83811015613e23578181015183820152602001613e0b565b50505050905090810190601f168015613e505780820380516001836020036101000a031916815260200191505b50838103825285518152855160209182019187019080838360005b83811015613e83578181015183820152602001613e6b565b50505050905090810190601f168015613eb05780820380516001836020036101000a031916815260200191505b5097505050505050505060405180910390a160015460408051630852cd8d60e31b8152670de0b6b3a76400008602600482015290516001600160a01b03909216916342966c689160248082019260009290919082900301818387803b158015613f1857600080fd5b505af1158015613f2c573d6000803e3d6000fd5b50505050505050565b6004546001600160a01b031681565b613f4c614654565b6000546001600160a01b03908116911614613f9c576040805162461bcd60e51b81526020600482018190526024820152600080516020614839833981519152604482015290519081900360640190fd5b604080516001600160a01b038416815260208101839052428183015290517f850f3c7e08f80943d8666ef94f99a95a9f85b3fc39af2a08829aa61a276b7a429181900360600190a16001546040805163a9059cbb60e01b81526001600160a01b038581166004830152602482018590529151919092169163a9059cbb9160448083019260209291908290030181600087803b15801561403a57600080fd5b505af115801561404e573d6000803e3d6000fd5b505050506040513d602081101561406457600080fd5b50505050565b805160208183018101805160058252928201938201939093209190925280546040805160026001841615610100026000190190931692909204601f810185900485028301850190915280825290928301828280156141095780601f106140de57610100808354040283529160200191614109565b820191906000526020600020905b8154815290600101906020018083116140ec57829003601f168201915b505050505081565b614119614654565b6000546001600160a01b03908116911614614169576040805162461bcd60e51b81526020600482018190526024820152600080516020614839833981519152604482015290519081900360640190fd5b600454600160a01b900460ff161515600114156141cd576040805162461bcd60e51b815260206004820181905260248201527f4d616e75616c204261722052656d6f76616c2069732072657374726963746564604482015290519081900360640190fd5b806040516020018082805190602001908083835b602083106142005780518252601f1990920191602091820191016141e1565b6001836020036101000a038019825116818451168082178552505050505050905001915050604051602081830303815290604052805190602001206005836040518082805190602001908083835b6020831061426d5780518252601f19909201916020918201910161424e565b6001836020036101000a038019825116818451168082178552505050505050905001915050908152602001604051809103902060405160200180828054600181600116156101000203166002900480156142fe5780601f106142dc5761010080835404028352918201916142fe565b820191906000526020600020905b8154815290600101906020018083116142ea575b50509150506040516020818303038152906040528051906020012014614363576040805162461bcd60e51b8152602060048201526015602482015274496e636f7272656374204261722064657461696c7360581b604482015290519081900360640190fd5b6005826040518082805190602001908083835b602083106143955780518252601f199092019160209182019101614376565b51815160209384036101000a600019018019909216911617905292019485525060405193849003019092206143ce9250905060006146e4565b6006826040518082805190602001908083835b602083106144005780518252601f1990920191602091820191016143e1565b51815160209384036101000a6000190180199092169116179052920194855250604051938490038101842085519094869450925082918401908083835b6020831061445c5780518252601f19909201916020918201910161443d565b51815160209384036101000a60001901801990921691161790529201948552506040519384900301909220805460ff1916905550505050565b61449d614654565b6000546001600160a01b039081169116146144ed576040805162461bcd60e51b81526020600482018190526024820152600080516020614839833981519152604482015290519081900360640190fd5b6001600160a01b0381166145325760405162461bcd60e51b81526004018080602001828103825260268152602001806147666026913960400191505060405180910390fd5b600080546040516001600160a01b03808516939216917f8be0079c531659141344cd1fd0a4f28419497f9722a3daafe3b4186f6b6457e091a3600080546001600160a01b0319166001600160a01b0392909216919091179055565b614595614654565b6000546001600160a01b039081169116146145e5576040805162461bcd60e51b81526020600482018190526024820152600080516020614839833981519152604482015290519081900360640190fd5b6001600160a01b038116614632576040805162461bcd60e51b815260206004820152600f60248201526e496e76616c6964206164647265737360881b604482015290519081900360640190fd5b600480546001600160a01b0319166001600160a01b0392909216919091179055565b3390565b828054600181600116156101000203166002900490600052602060002090601f01602090048101928261468e57600085556146d4565b82601f106146a757805160ff19168380011785556146d4565b828001600101855582156146d4579182015b828111156146d45782518255916020019190600101906146b9565b506146e092915061472b565b5090565b50805460018160011615610100020316600290046000825580601f1061470a5750614728565b601f016020900490600052602060002090810190614728919061472b565b50565b5b808211156146e0576000815560010161472c56fe4f6e6c7920496e69746961746f722063616e2063616c6c20746869732066756e6374696f6e4f776e61626c653a206e6577206f776e657220697320746865207a65726f20616464726573734d616e75616c2042617220496e73657274696f6e20697320726573747269637465644d696e7420696e6974696174696f6e2072657175657374206e6f742065786973744275726e20696e6974696174696f6e2072657175657374206e6f742065786973744f6e6c79204578656375746f722063616e2063616c6c20746869732066756e6374696f6e4d696e7420696e6974696174696f6e207265717565737420616c72656164792065786973744f776e61626c653a2063616c6c6572206973206e6f7420746865206f776e6572a2646970667358221220744b7d4ec99e77e8c0eea2773960601bc000ac3437c5e34dda9defb497b91c8964736f6c63430007060033",
  "devdoc": {
    "kind": "dev",
    "methods": {
      "owner()": {
        "details": "Returns the address of the current owner."
      },
      "renounceOwnership()": {
        "details": "Leaves the contract without owner. It will not be possible to call `onlyOwner` functions anymore. Can only be called by the current owner. NOTE: Renouncing ownership will leave the contract without an owner, thereby removing any functionality that is only available to the owner."
      },
      "transferOwnership(address)": {
        "details": "Transfers ownership of the contract to a new account (`newOwner`). Can only be called by the current owner."
      }
    },
    "version": 1
  },
  "userdoc": {
    "kind": "user",
    "methods": {},
    "version": 1
  },
  "storageLayout": {
    "storage": [
      {
        "astId": 30,
        "contract": "contracts/CGOController.sol:CGOController",
        "label": "_owner",
        "offset": 0,
        "slot": "0",
        "type": "t_address"
      },
      {
        "astId": 1184,
        "contract": "contracts/CGOController.sol:CGOController",
        "label": "tokenAddr",
        "offset": 0,
        "slot": "1",
        "type": "t_address"
      },
      {
        "astId": 1186,
        "contract": "contracts/CGOController.sol:CGOController",
        "label": "initiatorAddr",
        "offset": 0,
        "slot": "2",
        "type": "t_address"
      },
      {
        "astId": 1188,
        "contract": "contracts/CGOController.sol:CGOController",
        "label": "executorAddr",
        "offset": 0,
        "slot": "3",
        "type": "t_address"
      },
      {
        "astId": 1190,
        "contract": "contracts/CGOController.sol:CGOController",
        "label": "minterWalletAddr",
        "offset": 0,
        "slot": "4",
        "type": "t_address"
      },
      {
        "astId": 1193,
        "contract": "contracts/CGOController.sol:CGOController",
        "label": "isEditBarPaused",
        "offset": 20,
        "slot": "4",
        "type": "t_bool"
      },
      {
        "astId": 1203,
        "contract": "contracts/CGOController.sol:CGOController",
        "label": "barNumWarrantNum",
        "offset": 0,
        "slot": "5",
        "type": "t_mapping(t_string_memory_ptr,t_string_storage)"
      },
      {
        "astId": 1209,
        "contract": "contracts/CGOController.sol:CGOController",
        "label": "txnStatusRecord",
        "offset": 0,
        "slot": "6",
        "type": "t_mapping(t_string_memory_ptr,t_mapping(t_string_memory_ptr,t_enum(txnStatus)1199))"
      }
    ],
    "types": {
      "t_address": {
        "encoding": "inplace",
        "label": "address",
        "numberOfBytes": "20"
      },
      "t_bool": {
        "encoding": "inplace",
        "label": "bool",
        "numberOfBytes": "1"
      },
      "t_enum(txnStatus)1199": {
        "encoding": "inplace",
        "label": "enum CGOController.txnStatus",
        "numberOfBytes": "1"
      },
      "t_mapping(t_string_memory_ptr,t_enum(txnStatus)1199)": {
        "encoding": "mapping",
        "key": "t_string_memory_ptr",
        "label": "mapping(string => enum CGOController.txnStatus)",
        "numberOfBytes": "32",
        "value": "t_enum(txnStatus)1199"
      },
      "t_mapping(t_string_memory_ptr,t_mapping(t_string_memory_ptr,t_enum(txnStatus)1199))": {
        "encoding": "mapping",
        "key": "t_string_memory_ptr",
        "label": "mapping(string => mapping(string => enum CGOController.txnStatus))",
        "numberOfBytes": "32",
        "value": "t_mapping(t_string_memory_ptr,t_enum(txnStatus)1199)"
      },
      "t_mapping(t_string_memory_ptr,t_string_storage)": {
        "encoding": "mapping",
        "key": "t_string_memory_ptr",
        "label": "mapping(string => string)",
        "numberOfBytes": "32",
        "value": "t_string_storage"
      },
      "t_string_memory_ptr": {
        "encoding": "bytes",
        "label": "string",
        "numberOfBytes": "32"
      },
      "t_string_storage": {
        "encoding": "bytes",
        "label": "string",
        "numberOfBytes": "32"
      }
    }
  }
}