{
  "address": "0x36B24EB0086152754fF1B8F57Db2cD0a30Bf03eb",
  "abi": [
    {
      "inputs": [],
      "stateMutability": "nonpayable",
      "type": "constructor"
    },
    {
      "anonymous": false,
      "inputs": [
        {
          "indexed": true,
          "internalType": "address",
          "name": "owner",
          "type": "address"
        },
        {
          "indexed": true,
          "internalType": "address",
          "name": "spender",
          "type": "address"
        },
        {
          "indexed": false,
          "internalType": "uint256",
          "name": "value",
          "type": "uint256"
        }
      ],
      "name": "Approval",
      "type": "event"
    },
    {
      "anonymous": false,
      "inputs": [
        {
          "indexed": true,
          "internalType": "address",
          "name": "user",
          "type": "address"
        },
        {
          "indexed": false,
          "internalType": "bool",
          "name": "value",
          "type": "bool"
        }
      ],
      "name": "BlacklistUpdated",
      "type": "event"
    },
    {
      "anonymous": false,
      "inputs": [
        {
          "indexed": true,
          "internalType": "address",
          "name": "previousOwner",
          "type": "address"
        },
        {
          "indexed": true,
          "internalType": "address",
          "name": "newOwner",
          "type": "address"
        }
      ],
      "name": "OwnershipTransferred",
      "type": "event"
    },
    {
      "anonymous": false,
      "inputs": [
        {
          "indexed": true,
          "internalType": "address",
          "name": "from",
          "type": "address"
        },
        {
          "indexed": true,
          "internalType": "address",
          "name": "to",
          "type": "address"
        },
        {
          "indexed": false,
          "internalType": "uint256",
          "name": "value",
          "type": "uint256"
        }
      ],
      "name": "Transfer",
      "type": "event"
    },
    {
      "inputs": [
        {
          "internalType": "address",
          "name": "owner",
          "type": "address"
        },
        {
          "internalType": "address",
          "name": "spender",
          "type": "address"
        }
      ],
      "name": "allowance",
      "outputs": [
        {
          "internalType": "uint256",
          "name": "",
          "type": "uint256"
        }
      ],
      "stateMutability": "view",
      "type": "function"
    },
    {
      "inputs": [
        {
          "internalType": "address",
          "name": "spender",
          "type": "address"
        },
        {
          "internalType": "uint256",
          "name": "amount",
          "type": "uint256"
        }
      ],
      "name": "approve",
      "outputs": [
        {
          "internalType": "bool",
          "name": "",
          "type": "bool"
        }
      ],
      "stateMutability": "nonpayable",
      "type": "function"
    },
    {
      "inputs": [
        {
          "internalType": "address",
          "name": "account",
          "type": "address"
        }
      ],
      "name": "balanceOf",
      "outputs": [
        {
          "internalType": "uint256",
          "name": "",
          "type": "uint256"
        }
      ],
      "stateMutability": "view",
      "type": "function"
    },
    {
      "inputs": [
        {
          "internalType": "address",
          "name": "user",
          "type": "address"
        },
        {
          "internalType": "bool",
          "name": "value",
          "type": "bool"
        }
      ],
      "name": "blacklistUpdate",
      "outputs": [],
      "stateMutability": "nonpayable",
      "type": "function"
    },
    {
      "inputs": [
        {
          "internalType": "uint256",
          "name": "amount",
          "type": "uint256"
        }
      ],
      "name": "burn",
      "outputs": [],
      "stateMutability": "nonpayable",
      "type": "function"
    },
    {
      "inputs": [
        {
          "internalType": "address",
          "name": "account",
          "type": "address"
        },
        {
          "internalType": "uint256",
          "name": "amount",
          "type": "uint256"
        }
      ],
      "name": "burnFrom",
      "outputs": [],
      "stateMutability": "nonpayable",
      "type": "function"
    },
    {
      "inputs": [],
      "name": "decimals",
      "outputs": [
        {
          "internalType": "uint8",
          "name": "",
          "type": "uint8"
        }
      ],
      "stateMutability": "view",
      "type": "function"
    },
    {
      "inputs": [
        {
          "internalType": "address",
          "name": "spender",
          "type": "address"
        },
        {
          "internalType": "uint256",
          "name": "subtractedValue",
          "type": "uint256"
        }
      ],
      "name": "decreaseAllowance",
      "outputs": [
        {
          "internalType": "bool",
          "name": "",
          "type": "bool"
        }
      ],
      "stateMutability": "nonpayable",
      "type": "function"
    },
    {
      "inputs": [
        {
          "internalType": "address",
          "name": "spender",
          "type": "address"
        },
        {
          "internalType": "uint256",
          "name": "addedValue",
          "type": "uint256"
        }
      ],
      "name": "increaseAllowance",
      "outputs": [
        {
          "internalType": "bool",
          "name": "",
          "type": "bool"
        }
      ],
      "stateMutability": "nonpayable",
      "type": "function"
    },
    {
      "inputs": [
        {
          "internalType": "address",
          "name": "user",
          "type": "address"
        }
      ],
      "name": "isBlackListed",
      "outputs": [
        {
          "internalType": "bool",
          "name": "",
          "type": "bool"
        }
      ],
      "stateMutability": "view",
      "type": "function"
    },
    {
      "inputs": [
        {
          "internalType": "address",
          "name": "to",
          "type": "address"
        },
        {
          "internalType": "uint256",
          "name": "amount",
          "type": "uint256"
        }
      ],
      "name": "mint",
      "outputs": [],
      "stateMutability": "nonpayable",
      "type": "function"
    },
    {
      "inputs": [],
      "name": "name",
      "outputs": [
        {
          "internalType": "string",
          "name": "",
          "type": "string"
        }
      ],
      "stateMutability": "view",
      "type": "function"
    },
    {
      "inputs": [],
      "name": "owner",
      "outputs": [
        {
          "internalType": "address",
          "name": "",
          "type": "address"
        }
      ],
      "stateMutability": "view",
      "type": "function"
    },
    {
      "inputs": [],
      "name": "renounceOwnership",
      "outputs": [],
      "stateMutability": "nonpayable",
      "type": "function"
    },
    {
      "inputs": [],
      "name": "symbol",
      "outputs": [
        {
          "internalType": "string",
          "name": "",
          "type": "string"
        }
      ],
      "stateMutability": "view",
      "type": "function"
    },
    {
      "inputs": [],
      "name": "totalSupply",
      "outputs": [
        {
          "internalType": "uint256",
          "name": "",
          "type": "uint256"
        }
      ],
      "stateMutability": "view",
      "type": "function"
    },
    {
      "inputs": [
        {
          "internalType": "address",
          "name": "recipient",
          "type": "address"
        },
        {
          "internalType": "uint256",
          "name": "amount",
          "type": "uint256"
        }
      ],
      "name": "transfer",
      "outputs": [
        {
          "internalType": "bool",
          "name": "",
          "type": "bool"
        }
      ],
      "stateMutability": "nonpayable",
      "type": "function"
    },
    {
      "inputs": [
        {
          "internalType": "address",
          "name": "sender",
          "type": "address"
        },
        {
          "internalType": "address",
          "name": "recipient",
          "type": "address"
        },
        {
          "internalType": "uint256",
          "name": "amount",
          "type": "uint256"
        }
      ],
      "name": "transferFrom",
      "outputs": [
        {
          "internalType": "bool",
          "name": "",
          "type": "bool"
        }
      ],
      "stateMutability": "nonpayable",
      "type": "function"
    },
    {
      "inputs": [
        {
          "internalType": "address",
          "name": "newOwner",
          "type": "address"
        }
      ],
      "name": "transferOwnership",
      "outputs": [],
      "stateMutability": "nonpayable",
      "type": "function"
    }
  ],
  "transactionHash": "0x5c885598989d122c53f7a6333c6d518b5edf8f26ff2a0752713a39df99f208de",
  "args": [],
  "numDeployments": 1,
  "solcInputHash": "568174bedba8cf790b7a96bd92abe679",
  "bytecode": "0x60806040523480156200001157600080fd5b50604080518082018252600c81526b043474f2054455354204455560a41b60208083019182528351808501909452600784526610d1d3d7d517d160ca1b908401528151919291620000659160039162000364565b5080516200007b90600490602084019062000364565b50506005805460ff191660121790555060006200009762000119565b60058054610100600160a81b0319166101006001600160a01b03841690810291909117909155604051919250906000907f8be0079c531659141344cd1fd0a4f28419497f9722a3daafe3b4186f6b6457e0908290a3506200011333620000fc6200011d565b60ff1660000a62989680026200012660201b60201c565b62000410565b3390565b60055460ff1690565b6001600160a01b03821662000182576040805162461bcd60e51b815260206004820152601f60248201527f45524332303a206d696e7420746f20746865207a65726f206164647265737300604482015290519081900360640190fd5b620001906000838362000235565b620001ac81600254620002e460201b62000a9a1790919060201c565b6002556001600160a01b03821660009081526020818152604090912054620001df91839062000a9a620002e4821b17901c565b6001600160a01b0383166000818152602081815260408083209490945583518581529351929391927fddf252ad1be2c89b69c2b068fc378daa952ba7f163c4a11628f55a4df523b3ef9281900390910190a35050565b620002408262000346565b156200027e5760405162461bcd60e51b8152600401808060200182810382526030815260200180620017476030913960400191505060405180910390fd5b620002898362000346565b15620002c75760405162461bcd60e51b815260040180806020018281038252602c8152602001806200171b602c913960400191505060405180910390fd5b620002df838383620002df60201b6200078b1760201c565b505050565b6000828201838110156200033f576040805162461bcd60e51b815260206004820152601b60248201527f536166654d6174683a206164646974696f6e206f766572666c6f770000000000604482015290519081900360640190fd5b9392505050565b6001600160a01b031660009081526006602052604090205460ff1690565b828054600181600116156101000203166002900490600052602060002090601f0160209004810192826200039c5760008555620003e7565b82601f10620003b757805160ff1916838001178555620003e7565b82800160010185558215620003e7579182015b82811115620003e7578251825591602001919060010190620003ca565b50620003f5929150620003f9565b5090565b5b80821115620003f55760008155600101620003fa565b6112fb80620004206000396000f3fe608060405234801561001057600080fd5b50600436106101215760003560e01c8063715018a6116100ad578063a9059cbb11610071578063a9059cbb1461037a578063b351dfe8146103a6578063dd62ed3e146103d4578063e47d606014610402578063f2fde38b1461042857610121565b8063715018a6146102ee57806379cc6790146102f65780638da5cb5b1461032257806395d89b4114610346578063a457c2d71461034e57610121565b8063313ce567116100f4578063313ce56714610233578063395093511461025157806340c10f191461027d57806342966c68146102ab57806370a08231146102c857610121565b806306fdde0314610126578063095ea7b3146101a357806318160ddd146101e357806323b872dd146101fd575b600080fd5b61012e61044e565b6040805160208082528351818301528351919283929083019185019080838360005b83811015610168578181015183820152602001610150565b50505050905090810190601f1680156101955780820380516001836020036101000a031916815260200191505b509250505060405180910390f35b6101cf600480360360408110156101b957600080fd5b506001600160a01b0381351690602001356104e4565b604080519115158252519081900360200190f35b6101eb610501565b60408051918252519081900360200190f35b6101cf6004803603606081101561021357600080fd5b506001600160a01b03813581169160208101359091169060400135610507565b61023b61058e565b6040805160ff9092168252519081900360200190f35b6101cf6004803603604081101561026757600080fd5b506001600160a01b038135169060200135610597565b6102a96004803603604081101561029357600080fd5b506001600160a01b0381351690602001356105e5565b005b6102a9600480360360208110156102c157600080fd5b5035610655565b6101eb600480360360208110156102de57600080fd5b50356001600160a01b0316610669565b6102a9610684565b6102a96004803603604081101561030c57600080fd5b506001600160a01b038135169060200135610736565b61032a610790565b604080516001600160a01b039092168252519081900360200190f35b61012e6107a4565b6101cf6004803603604081101561036457600080fd5b506001600160a01b038135169060200135610805565b6101cf6004803603604081101561039057600080fd5b506001600160a01b03813516906020013561086d565b6102a9600480360360408110156103bc57600080fd5b506001600160a01b0381351690602001351515610881565b6101eb600480360360408110156103ea57600080fd5b506001600160a01b0381358116916020013516610943565b6101cf6004803603602081101561041857600080fd5b50356001600160a01b031661096e565b6102a96004803603602081101561043e57600080fd5b50356001600160a01b031661098c565b60038054604080516020601f60026000196101006001881615020190951694909404938401819004810282018101909252828152606093909290918301828280156104da5780601f106104af576101008083540402835291602001916104da565b820191906000526020600020905b8154815290600101906020018083116104bd57829003601f168201915b5050505050905090565b60006104f86104f1610afb565b8484610aff565b50600192915050565b60025490565b6000610514848484610beb565b61058484610520610afb565b61057f8560405180606001604052806028815260200161119b602891396001600160a01b038a1660009081526001602052604081209061055e610afb565b6001600160a01b031681526020810191909152604001600020549190610d46565b610aff565b5060019392505050565b60055460ff1690565b60006104f86105a4610afb565b8461057f85600160006105b5610afb565b6001600160a01b03908116825260208083019390935260409182016000908120918c168152925290205490610a9a565b6105ed610afb565b6001600160a01b03166105fe610790565b6001600160a01b031614610647576040805162461bcd60e51b815260206004820181905260248201526000805160206111c3833981519152604482015290519081900360640190fd5b6106518282610ddd565b5050565b610666610660610afb565b82610ecd565b50565b6001600160a01b031660009081526020819052604090205490565b61068c610afb565b6001600160a01b031661069d610790565b6001600160a01b0316146106e6576040805162461bcd60e51b815260206004820181905260248201526000805160206111c3833981519152604482015290519081900360640190fd5b60055460405160009161010090046001600160a01b0316907f8be0079c531659141344cd1fd0a4f28419497f9722a3daafe3b4186f6b6457e0908390a360058054610100600160a81b0319169055565b600061076d826040518060600160405280602481526020016111e36024913961076686610761610afb565b610943565b9190610d46565b90506107818361077b610afb565b83610aff565b61078b8383610ecd565b505050565b60055461010090046001600160a01b031690565b60048054604080516020601f60026000196101006001881615020190951694909404938401819004810282018101909252828152606093909290918301828280156104da5780601f106104af576101008083540402835291602001916104da565b60006104f8610812610afb565b8461057f856040518060600160405280602581526020016112a1602591396001600061083c610afb565b6001600160a01b03908116825260208083019390935260409182016000908120918d16815292529020549190610d46565b60006104f861087a610afb565b8484610beb565b610889610afb565b6001600160a01b031661089a610790565b6001600160a01b0316146108e3576040805162461bcd60e51b815260206004820181905260248201526000805160206111c3833981519152604482015290519081900360640190fd5b6001600160a01b038216600081815260066020908152604091829020805460ff1916851515908117909155825190815291517f6a12b3df6cba4203bd7fd06b816789f87de8c594299aed5717ae070fac781bac9281900390910190a25050565b6001600160a01b03918216600090815260016020908152604080832093909416825291909152205490565b6001600160a01b031660009081526006602052604090205460ff1690565b610994610afb565b6001600160a01b03166109a5610790565b6001600160a01b0316146109ee576040805162461bcd60e51b815260206004820181905260248201526000805160206111c3833981519152604482015290519081900360640190fd5b6001600160a01b038116610a335760405162461bcd60e51b81526004018080602001828103825260268152602001806111016026913960400191505060405180910390fd5b6005546040516001600160a01b0380841692610100900416907f8be0079c531659141344cd1fd0a4f28419497f9722a3daafe3b4186f6b6457e090600090a3600580546001600160a01b0390921661010002610100600160a81b0319909216919091179055565b600082820183811015610af4576040805162461bcd60e51b815260206004820152601b60248201527f536166654d6174683a206164646974696f6e206f766572666c6f770000000000604482015290519081900360640190fd5b9392505050565b3390565b6001600160a01b038316610b445760405162461bcd60e51b815260040180806020018281038252602481526020018061124d6024913960400191505060405180910390fd5b6001600160a01b038216610b895760405162461bcd60e51b81526004018080602001828103825260228152602001806111276022913960400191505060405180910390fd5b6001600160a01b03808416600081815260016020908152604080832094871680845294825291829020859055815185815291517f8c5be1e5ebec7d5bd14f71427d1e84f3dd0314c0f7b2291e5b200ac8c7c3b9259281900390910190a3505050565b6001600160a01b038316610c305760405162461bcd60e51b81526004018080602001828103825260258152602001806112286025913960400191505060405180910390fd5b6001600160a01b038216610c755760405162461bcd60e51b81526004018080602001828103825260238152602001806110bc6023913960400191505060405180910390fd5b610c80838383610fc9565b610cbd81604051806060016040528060268152602001611149602691396001600160a01b0386166000908152602081905260409020549190610d46565b6001600160a01b038085166000908152602081905260408082209390935590841681522054610cec9082610a9a565b6001600160a01b038084166000818152602081815260409182902094909455805185815290519193928716927fddf252ad1be2c89b69c2b068fc378daa952ba7f163c4a11628f55a4df523b3ef92918290030190a3505050565b60008184841115610dd55760405162461bcd60e51b81526004018080602001828103825283818151815260200191508051906020019080838360005b83811015610d9a578181015183820152602001610d82565b50505050905090810190601f168015610dc75780820380516001836020036101000a031916815260200191505b509250505060405180910390fd5b505050900390565b6001600160a01b038216610e38576040805162461bcd60e51b815260206004820152601f60248201527f45524332303a206d696e7420746f20746865207a65726f206164647265737300604482015290519081900360640190fd5b610e4460008383610fc9565b600254610e519082610a9a565b6002556001600160a01b038216600090815260208190526040902054610e779082610a9a565b6001600160a01b0383166000818152602081815260408083209490945583518581529351929391927fddf252ad1be2c89b69c2b068fc378daa952ba7f163c4a11628f55a4df523b3ef9281900390910190a35050565b6001600160a01b038216610f125760405162461bcd60e51b81526004018080602001828103825260218152602001806112076021913960400191505060405180910390fd5b610f1e82600083610fc9565b610f5b816040518060600160405280602281526020016110df602291396001600160a01b0385166000908152602081905260409020549190610d46565b6001600160a01b038316600090815260208190526040902055600254610f81908261105e565b6002556040805182815290516000916001600160a01b038516917fddf252ad1be2c89b69c2b068fc378daa952ba7f163c4a11628f55a4df523b3ef9181900360200190a35050565b610fd28261096e565b1561100e5760405162461bcd60e51b81526004018080602001828103825260308152602001806112716030913960400191505060405180910390fd5b6110178361096e565b156110535760405162461bcd60e51b815260040180806020018281038252602c81526020018061116f602c913960400191505060405180910390fd5b61078b83838361078b565b6000828211156110b5576040805162461bcd60e51b815260206004820152601e60248201527f536166654d6174683a207375627472616374696f6e206f766572666c6f770000604482015290519081900360640190fd5b5090039056fe45524332303a207472616e7366657220746f20746865207a65726f206164647265737345524332303a206275726e20616d6f756e7420657863656564732062616c616e63654f776e61626c653a206e6577206f776e657220697320746865207a65726f206164647265737345524332303a20617070726f766520746f20746865207a65726f206164647265737345524332303a207472616e7366657220616d6f756e7420657863656564732062616c616e6365546f6b656e207472616e7366657220726566757365642e20596f7520617265206f6e20626c61636b6c69737445524332303a207472616e7366657220616d6f756e74206578636565647320616c6c6f77616e63654f776e61626c653a2063616c6c6572206973206e6f7420746865206f776e657245524332303a206275726e20616d6f756e74206578636565647320616c6c6f77616e636545524332303a206275726e2066726f6d20746865207a65726f206164647265737345524332303a207472616e736665722066726f6d20746865207a65726f206164647265737345524332303a20617070726f76652066726f6d20746865207a65726f2061646472657373546f6b656e207472616e7366657220726566757365642e205265636569766572206973206f6e20626c61636b6c69737445524332303a2064656372656173656420616c6c6f77616e63652062656c6f77207a65726fa26469706673582212202a23b6d5306818a43fb55e396cc0e725bd34b2700d3ba10021325cb7d99f966764736f6c63430007060033546f6b656e207472616e7366657220726566757365642e20596f7520617265206f6e20626c61636b6c697374546f6b656e207472616e7366657220726566757365642e205265636569766572206973206f6e20626c61636b6c697374",
  "devdoc": {
    "kind": "dev",
    "methods": {
      "allowance(address,address)": {
        "details": "See {IERC20-allowance}."
      },
      "approve(address,uint256)": {
        "details": "See {IERC20-approve}. Requirements: - `spender` cannot be the zero address."
      },
      "balanceOf(address)": {
        "details": "See {IERC20-balanceOf}."
      },
      "burn(uint256)": {
        "details": "Destroys `amount` tokens from the caller. See {ERC20-_burn}."
      },
      "burnFrom(address,uint256)": {
        "details": "Destroys `amount` tokens from `account`, deducting from the caller's allowance. See {ERC20-_burn} and {ERC20-allowance}. Requirements: - the caller must have allowance for ``accounts``'s tokens of at least `amount`."
      },
      "decimals()": {
        "details": "Returns the number of decimals used to get its user representation. For example, if `decimals` equals `2`, a balance of `505` tokens should be displayed to a user as `5,05` (`505 / 10 ** 2`). Tokens usually opt for a value of 18, imitating the relationship between Ether and Wei. This is the value {ERC20} uses, unless {_setupDecimals} is called. NOTE: This information is only used for _display_ purposes: it in no way affects any of the arithmetic of the contract, including {IERC20-balanceOf} and {IERC20-transfer}."
      },
      "decreaseAllowance(address,uint256)": {
        "details": "Atomically decreases the allowance granted to `spender` by the caller. This is an alternative to {approve} that can be used as a mitigation for problems described in {IERC20-approve}. Emits an {Approval} event indicating the updated allowance. Requirements: - `spender` cannot be the zero address. - `spender` must have allowance for the caller of at least `subtractedValue`."
      },
      "increaseAllowance(address,uint256)": {
        "details": "Atomically increases the allowance granted to `spender` by the caller. This is an alternative to {approve} that can be used as a mitigation for problems described in {IERC20-approve}. Emits an {Approval} event indicating the updated allowance. Requirements: - `spender` cannot be the zero address."
      },
      "name()": {
        "details": "Returns the name of the token."
      },
      "owner()": {
        "details": "Returns the address of the current owner."
      },
      "renounceOwnership()": {
        "details": "Leaves the contract without owner. It will not be possible to call `onlyOwner` functions anymore. Can only be called by the current owner. NOTE: Renouncing ownership will leave the contract without an owner, thereby removing any functionality that is only available to the owner."
      },
      "symbol()": {
        "details": "Returns the symbol of the token, usually a shorter version of the name."
      },
      "totalSupply()": {
        "details": "See {IERC20-totalSupply}."
      },
      "transfer(address,uint256)": {
        "details": "See {IERC20-transfer}. Requirements: - `recipient` cannot be the zero address. - the caller must have a balance of at least `amount`."
      },
      "transferFrom(address,address,uint256)": {
        "details": "See {IERC20-transferFrom}. Emits an {Approval} event indicating the updated allowance. This is not required by the EIP. See the note at the beginning of {ERC20}. Requirements: - `sender` and `recipient` cannot be the zero address. - `sender` must have a balance of at least `amount`. - the caller must have allowance for ``sender``'s tokens of at least `amount`."
      },
      "transferOwnership(address)": {
        "details": "Transfers ownership of the contract to a new account (`newOwner`). Can only be called by the current owner."
      }
    },
    "version": 1
  },
  "userdoc": {
    "kind": "user",
    "methods": {},
    "version": 1
  },
  "storageLayout": {
    "storage": [
      {
        "astId": 931,
        "contract": "contracts/Goldtoken.sol:Goldtoken",
        "label": "_balances",
        "offset": 0,
        "slot": "0",
        "type": "t_mapping(t_address,t_uint256)"
      },
      {
        "astId": 937,
        "contract": "contracts/Goldtoken.sol:Goldtoken",
        "label": "_allowances",
        "offset": 0,
        "slot": "1",
        "type": "t_mapping(t_address,t_mapping(t_address,t_uint256))"
      },
      {
        "astId": 939,
        "contract": "contracts/Goldtoken.sol:Goldtoken",
        "label": "_totalSupply",
        "offset": 0,
        "slot": "2",
        "type": "t_uint256"
      },
      {
        "astId": 941,
        "contract": "contracts/Goldtoken.sol:Goldtoken",
        "label": "_name",
        "offset": 0,
        "slot": "3",
        "type": "t_string_storage"
      },
      {
        "astId": 943,
        "contract": "contracts/Goldtoken.sol:Goldtoken",
        "label": "_symbol",
        "offset": 0,
        "slot": "4",
        "type": "t_string_storage"
      },
      {
        "astId": 945,
        "contract": "contracts/Goldtoken.sol:Goldtoken",
        "label": "_decimals",
        "offset": 0,
        "slot": "5",
        "type": "t_uint8"
      },
      {
        "astId": 457,
        "contract": "contracts/Goldtoken.sol:Goldtoken",
        "label": "_owner",
        "offset": 1,
        "slot": "5",
        "type": "t_address"
      },
      {
        "astId": 2525,
        "contract": "contracts/Goldtoken.sol:Goldtoken",
        "label": "_blacklist",
        "offset": 0,
        "slot": "6",
        "type": "t_mapping(t_address,t_bool)"
      }
    ],
    "types": {
      "t_address": {
        "encoding": "inplace",
        "label": "address",
        "numberOfBytes": "20"
      },
      "t_bool": {
        "encoding": "inplace",
        "label": "bool",
        "numberOfBytes": "1"
      },
      "t_mapping(t_address,t_bool)": {
        "encoding": "mapping",
        "key": "t_address",
        "label": "mapping(address => bool)",
        "numberOfBytes": "32",
        "value": "t_bool"
      },
      "t_mapping(t_address,t_mapping(t_address,t_uint256))": {
        "encoding": "mapping",
        "key": "t_address",
        "label": "mapping(address => mapping(address => uint256))",
        "numberOfBytes": "32",
        "value": "t_mapping(t_address,t_uint256)"
      },
      "t_mapping(t_address,t_uint256)": {
        "encoding": "mapping",
        "key": "t_address",
        "label": "mapping(address => uint256)",
        "numberOfBytes": "32",
        "value": "t_uint256"
      },
      "t_string_storage": {
        "encoding": "bytes",
        "label": "string",
        "numberOfBytes": "32"
      },
      "t_uint256": {
        "encoding": "inplace",
        "label": "uint256",
        "numberOfBytes": "32"
      },
      "t_uint8": {
        "encoding": "inplace",
        "label": "uint8",
        "numberOfBytes": "1"
      }
    }
  }
}